{
  "address": "0x986aaa537b8cc170761FDAC6aC4fc7F9d8a20A8C",
  "abi": [
    {
      "inputs": [
        {
          "internalType": "contract IMintableERC20",
          "name": "_token",
          "type": "address"
        },
        {
          "internalType": "contract IMintableERC20",
          "name": "_xtoken",
          "type": "address"
        },
        {
          "internalType": "address",
          "name": "_governance",
          "type": "address"
        },
        {
          "internalType": "address",
          "name": "_sentinel",
          "type": "address"
        }
      ],
      "stateMutability": "nonpayable",
      "type": "constructor"
    },
    {
      "anonymous": false,
      "inputs": [
        {
          "indexed": true,
          "internalType": "contract IVaultAdapter",
          "name": "adapter",
          "type": "address"
        }
      ],
      "name": "ActiveVaultUpdated",
      "type": "event"
    },
    {
      "anonymous": false,
      "inputs": [
        {
          "indexed": false,
          "internalType": "uint256",
          "name": "fee",
          "type": "uint256"
        }
      ],
      "name": "BorrowFeeUpdated",
      "type": "event"
    },
    {
      "anonymous": false,
      "inputs": [
        {
          "indexed": false,
          "internalType": "uint256",
          "name": "limit",
          "type": "uint256"
        }
      ],
      "name": "CollateralizationLimitUpdated",
      "type": "event"
    },
    {
      "anonymous": false,
      "inputs": [
        {
          "indexed": false,
          "internalType": "bool",
          "name": "status",
          "type": "bool"
        }
      ],
      "name": "EmergencyExitUpdated",
      "type": "event"
    },
    {
      "anonymous": false,
      "inputs": [
        {
          "indexed": false,
          "internalType": "uint256",
          "name": "amount",
          "type": "uint256"
        }
      ],
      "name": "FundsFlushed",
      "type": "event"
    },
    {
      "anonymous": false,
      "inputs": [
        {
          "indexed": false,
          "internalType": "uint256",
          "name": "withdrawnAmount",
          "type": "uint256"
        },
        {
          "indexed": false,
          "internalType": "uint256",
          "name": "decreasedValue",
          "type": "uint256"
        }
      ],
      "name": "FundsHarvested",
      "type": "event"
    },
    {
      "anonymous": false,
      "inputs": [
        {
          "indexed": true,
          "internalType": "uint256",
          "name": "vaultId",
          "type": "uint256"
        },
        {
          "indexed": false,
          "internalType": "uint256",
          "name": "withdrawnAmount",
          "type": "uint256"
        },
        {
          "indexed": false,
          "internalType": "uint256",
          "name": "decreasedValue",
          "type": "uint256"
        }
      ],
      "name": "FundsRecalled",
      "type": "event"
    },
    {
      "anonymous": false,
      "inputs": [
        {
          "indexed": false,
          "internalType": "address",
          "name": "governance",
          "type": "address"
        }
      ],
      "name": "GovernanceUpdated",
      "type": "event"
    },
    {
      "anonymous": false,
      "inputs": [
        {
          "indexed": false,
          "internalType": "uint256",
          "name": "fee",
          "type": "uint256"
        }
      ],
      "name": "HarvestFeeUpdated",
      "type": "event"
    },
    {
      "anonymous": false,
      "inputs": [
        {
          "indexed": false,
          "internalType": "uint256",
          "name": "pegMinimum",
          "type": "uint256"
        }
      ],
      "name": "PegMinimumUpdated",
      "type": "event"
    },
    {
      "anonymous": false,
      "inputs": [
        {
          "indexed": false,
          "internalType": "address",
          "name": "pendingGovernance",
          "type": "address"
        }
      ],
      "name": "PendingGovernanceUpdated",
      "type": "event"
    },
    {
      "anonymous": false,
      "inputs": [
        {
          "indexed": false,
          "internalType": "address",
          "name": "treasury",
          "type": "address"
        }
      ],
      "name": "RewardsUpdated",
      "type": "event"
    },
    {
      "anonymous": false,
      "inputs": [
        {
          "indexed": false,
          "internalType": "address",
          "name": "sentinel",
          "type": "address"
        }
      ],
      "name": "SentinelUpdated",
      "type": "event"
    },
    {
      "anonymous": false,
      "inputs": [
        {
          "indexed": true,
          "internalType": "address",
          "name": "account",
          "type": "address"
        },
        {
          "indexed": false,
          "internalType": "uint256",
          "name": "amount",
          "type": "uint256"
        }
      ],
      "name": "TokensDeposited",
      "type": "event"
    },
    {
      "anonymous": false,
      "inputs": [
        {
          "indexed": true,
          "internalType": "address",
          "name": "account",
          "type": "address"
        },
        {
          "indexed": false,
          "internalType": "uint256",
          "name": "requestedAmount",
          "type": "uint256"
        },
        {
          "indexed": false,
          "internalType": "uint256",
          "name": "withdrawnAmount",
          "type": "uint256"
        },
        {
          "indexed": false,
          "internalType": "uint256",
          "name": "decreasedValue",
          "type": "uint256"
        }
      ],
      "name": "TokensLiquidated",
      "type": "event"
    },
    {
      "anonymous": false,
      "inputs": [
        {
          "indexed": true,
          "internalType": "address",
          "name": "account",
          "type": "address"
        },
        {
          "indexed": false,
          "internalType": "uint256",
          "name": "parentAmount",
          "type": "uint256"
        },
        {
          "indexed": false,
          "internalType": "uint256",
          "name": "childAmount",
          "type": "uint256"
        }
      ],
      "name": "TokensRepaid",
      "type": "event"
    },
    {
      "anonymous": false,
      "inputs": [
        {
          "indexed": true,
          "internalType": "address",
          "name": "account",
          "type": "address"
        },
        {
          "indexed": false,
          "internalType": "uint256",
          "name": "requestedAmount",
          "type": "uint256"
        },
        {
          "indexed": false,
          "internalType": "uint256",
          "name": "withdrawnAmount",
          "type": "uint256"
        },
        {
          "indexed": false,
          "internalType": "uint256",
          "name": "decreasedValue",
          "type": "uint256"
        }
      ],
      "name": "TokensWithdrawn",
      "type": "event"
    },
    {
      "anonymous": false,
      "inputs": [
        {
          "indexed": false,
          "internalType": "address",
          "name": "transmuter",
          "type": "address"
        }
      ],
      "name": "TransmuterUpdated",
      "type": "event"
    },
    {
      "inputs": [],
      "name": "MAXIMUM_COLLATERALIZATION_LIMIT",
      "outputs": [
        {
          "internalType": "uint256",
          "name": "",
          "type": "uint256"
        }
      ],
      "stateMutability": "view",
      "type": "function"
    },
    {
      "inputs": [],
      "name": "MINIMUM_COLLATERALIZATION_LIMIT",
      "outputs": [
        {
          "internalType": "uint256",
          "name": "",
          "type": "uint256"
        }
      ],
      "stateMutability": "view",
      "type": "function"
    },
    {
      "inputs": [],
      "name": "PERCENT_RESOLUTION",
      "outputs": [
        {
          "internalType": "uint256",
          "name": "",
          "type": "uint256"
        }
      ],
      "stateMutability": "view",
      "type": "function"
    },
    {
      "inputs": [],
      "name": "ZERO_ADDRESS",
      "outputs": [
        {
          "internalType": "address",
          "name": "",
          "type": "address"
        }
      ],
      "stateMutability": "view",
      "type": "function"
    },
    {
      "inputs": [],
      "name": "acceptGovernance",
      "outputs": [],
      "stateMutability": "nonpayable",
      "type": "function"
    },
    {
      "inputs": [],
      "name": "borrowFee",
      "outputs": [
        {
          "internalType": "uint256",
          "name": "",
          "type": "uint256"
        }
      ],
      "stateMutability": "view",
      "type": "function"
    },
    {
      "inputs": [],
      "name": "collateralizationLimit",
      "outputs": [
        {
          "components": [
            {
              "internalType": "uint256",
              "name": "x",
              "type": "uint256"
            }
          ],
          "internalType": "struct FixedPointMath.FixedDecimal",
          "name": "",
          "type": "tuple"
        }
      ],
      "stateMutability": "view",
      "type": "function"
    },
    {
      "inputs": [
        {
          "internalType": "uint256",
          "name": "_amount",
          "type": "uint256"
        }
      ],
      "name": "deposit",
      "outputs": [],
      "stateMutability": "nonpayable",
      "type": "function"
    },
    {
      "inputs": [],
      "name": "emergencyExit",
      "outputs": [
        {
          "internalType": "bool",
          "name": "",
          "type": "bool"
        }
      ],
      "stateMutability": "view",
      "type": "function"
    },
    {
      "inputs": [],
      "name": "flush",
      "outputs": [
        {
          "internalType": "uint256",
          "name": "",
          "type": "uint256"
        }
      ],
      "stateMutability": "nonpayable",
      "type": "function"
    },
    {
      "inputs": [],
      "name": "flushActivator",
      "outputs": [
        {
          "internalType": "uint256",
          "name": "",
          "type": "uint256"
        }
      ],
      "stateMutability": "view",
      "type": "function"
    },
    {
      "inputs": [
        {
          "internalType": "address",
          "name": "_account",
          "type": "address"
        }
      ],
      "name": "getCdpLastDeposit",
      "outputs": [
        {
          "internalType": "uint256",
          "name": "",
          "type": "uint256"
        }
      ],
      "stateMutability": "view",
      "type": "function"
    },
    {
      "inputs": [
        {
          "internalType": "address",
          "name": "_account",
          "type": "address"
        }
      ],
      "name": "getCdpTotalCredit",
      "outputs": [
        {
          "internalType": "uint256",
          "name": "",
          "type": "uint256"
        }
      ],
      "stateMutability": "view",
      "type": "function"
    },
    {
      "inputs": [
        {
          "internalType": "address",
          "name": "_account",
          "type": "address"
        }
      ],
      "name": "getCdpTotalDebt",
      "outputs": [
        {
          "internalType": "uint256",
          "name": "",
          "type": "uint256"
        }
      ],
      "stateMutability": "view",
      "type": "function"
    },
    {
      "inputs": [
        {
          "internalType": "address",
          "name": "_account",
          "type": "address"
        }
      ],
      "name": "getCdpTotalDeposited",
      "outputs": [
        {
          "internalType": "uint256",
          "name": "",
          "type": "uint256"
        }
      ],
      "stateMutability": "view",
      "type": "function"
    },
    {
      "inputs": [
        {
          "internalType": "uint256",
          "name": "_vaultId",
          "type": "uint256"
        }
      ],
      "name": "getVaultAdapter",
      "outputs": [
        {
          "internalType": "contract IVaultAdapter",
          "name": "",
          "type": "address"
        }
      ],
      "stateMutability": "view",
      "type": "function"
    },
    {
      "inputs": [
        {
          "internalType": "uint256",
          "name": "_vaultId",
          "type": "uint256"
        }
      ],
      "name": "getVaultTotalDeposited",
      "outputs": [
        {
          "internalType": "uint256",
          "name": "",
          "type": "uint256"
        }
      ],
      "stateMutability": "view",
      "type": "function"
    },
    {
      "inputs": [],
      "name": "governance",
      "outputs": [
        {
          "internalType": "address",
          "name": "",
          "type": "address"
        }
      ],
      "stateMutability": "view",
      "type": "function"
    },
    {
      "inputs": [
        {
          "internalType": "uint256",
          "name": "_vaultId",
          "type": "uint256"
        }
      ],
      "name": "harvest",
      "outputs": [
        {
          "internalType": "uint256",
          "name": "",
          "type": "uint256"
        },
        {
          "internalType": "uint256",
          "name": "",
          "type": "uint256"
        }
      ],
      "stateMutability": "nonpayable",
      "type": "function"
    },
    {
      "inputs": [],
      "name": "harvestFee",
      "outputs": [
        {
          "internalType": "uint256",
          "name": "",
          "type": "uint256"
        }
      ],
      "stateMutability": "view",
      "type": "function"
    },
    {
      "inputs": [
        {
          "internalType": "contract IVaultAdapter",
          "name": "_adapter",
          "type": "address"
        }
      ],
      "name": "initialize",
      "outputs": [],
      "stateMutability": "nonpayable",
      "type": "function"
    },
    {
      "inputs": [],
      "name": "initialized",
      "outputs": [
        {
          "internalType": "bool",
          "name": "",
          "type": "bool"
        }
      ],
      "stateMutability": "view",
      "type": "function"
    },
    {
      "inputs": [
        {
          "internalType": "uint256",
          "name": "_amount",
          "type": "uint256"
        }
      ],
      "name": "liquidate",
      "outputs": [
        {
          "internalType": "uint256",
          "name": "",
          "type": "uint256"
        },
        {
          "internalType": "uint256",
          "name": "",
          "type": "uint256"
        }
      ],
      "stateMutability": "nonpayable",
      "type": "function"
    },
    {
      "inputs": [
        {
          "internalType": "contract IVaultAdapter",
          "name": "_adapter",
          "type": "address"
        }
      ],
      "name": "migrate",
      "outputs": [],
      "stateMutability": "nonpayable",
      "type": "function"
    },
    {
      "inputs": [
        {
          "internalType": "uint256",
          "name": "_amount",
          "type": "uint256"
        }
      ],
      "name": "mint",
      "outputs": [],
      "stateMutability": "nonpayable",
      "type": "function"
    },
    {
      "inputs": [],
      "name": "pegMinimum",
      "outputs": [
        {
          "internalType": "uint256",
          "name": "",
          "type": "uint256"
        }
      ],
      "stateMutability": "view",
      "type": "function"
    },
    {
      "inputs": [],
      "name": "pendingGovernance",
      "outputs": [
        {
          "internalType": "address",
          "name": "",
          "type": "address"
        }
      ],
      "stateMutability": "view",
      "type": "function"
    },
    {
      "inputs": [
        {
          "internalType": "uint256",
          "name": "_vaultId",
          "type": "uint256"
        },
        {
          "internalType": "uint256",
          "name": "_amount",
          "type": "uint256"
        }
      ],
      "name": "recall",
      "outputs": [
        {
          "internalType": "uint256",
          "name": "",
          "type": "uint256"
        },
        {
          "internalType": "uint256",
          "name": "",
          "type": "uint256"
        }
      ],
      "stateMutability": "nonpayable",
      "type": "function"
    },
    {
      "inputs": [
        {
          "internalType": "uint256",
          "name": "_vaultId",
          "type": "uint256"
        }
      ],
      "name": "recallAll",
      "outputs": [
        {
          "internalType": "uint256",
          "name": "",
          "type": "uint256"
        },
        {
          "internalType": "uint256",
          "name": "",
          "type": "uint256"
        }
      ],
      "stateMutability": "nonpayable",
      "type": "function"
    },
    {
      "inputs": [
        {
          "internalType": "uint256",
          "name": "_parentAmount",
          "type": "uint256"
        },
        {
          "internalType": "uint256",
          "name": "_childAmount",
          "type": "uint256"
        }
      ],
      "name": "repay",
      "outputs": [],
      "stateMutability": "nonpayable",
      "type": "function"
    },
    {
      "inputs": [],
      "name": "rewards",
      "outputs": [
        {
          "internalType": "address",
          "name": "",
          "type": "address"
        }
      ],
      "stateMutability": "view",
      "type": "function"
    },
    {
      "inputs": [],
      "name": "sentinel",
      "outputs": [
        {
          "internalType": "address",
          "name": "",
          "type": "address"
        }
      ],
      "stateMutability": "view",
      "type": "function"
    },
    {
      "inputs": [
        {
          "internalType": "uint256",
          "name": "_borrowFee",
          "type": "uint256"
        }
      ],
      "name": "setBorrowFee",
      "outputs": [],
      "stateMutability": "nonpayable",
      "type": "function"
    },
    {
      "inputs": [
        {
          "internalType": "uint256",
          "name": "_limit",
          "type": "uint256"
        }
      ],
      "name": "setCollateralizationLimit",
      "outputs": [],
      "stateMutability": "nonpayable",
      "type": "function"
    },
    {
      "inputs": [
        {
          "internalType": "bool",
          "name": "_emergencyExit",
          "type": "bool"
        }
      ],
      "name": "setEmergencyExit",
      "outputs": [],
      "stateMutability": "nonpayable",
      "type": "function"
    },
    {
      "inputs": [
        {
          "internalType": "uint256",
          "name": "_flushActivator",
          "type": "uint256"
        }
      ],
      "name": "setFlushActivator",
      "outputs": [],
      "stateMutability": "nonpayable",
      "type": "function"
    },
    {
      "inputs": [
        {
          "internalType": "uint256",
          "name": "_harvestFee",
          "type": "uint256"
        }
      ],
      "name": "setHarvestFee",
      "outputs": [],
      "stateMutability": "nonpayable",
      "type": "function"
    },
    {
      "inputs": [
        {
          "internalType": "uint256",
          "name": "peg",
          "type": "uint256"
        }
      ],
      "name": "setPegMinimum",
      "outputs": [],
      "stateMutability": "nonpayable",
      "type": "function"
    },
    {
      "inputs": [
        {
          "internalType": "address",
          "name": "_pendingGovernance",
          "type": "address"
        }
      ],
      "name": "setPendingGovernance",
      "outputs": [],
      "stateMutability": "nonpayable",
      "type": "function"
    },
    {
      "inputs": [
        {
          "internalType": "address",
          "name": "_rewards",
          "type": "address"
        }
      ],
      "name": "setRewards",
      "outputs": [],
      "stateMutability": "nonpayable",
      "type": "function"
    },
    {
      "inputs": [
        {
          "internalType": "address",
          "name": "_sentinel",
          "type": "address"
        }
      ],
      "name": "setSentinel",
      "outputs": [],
      "stateMutability": "nonpayable",
      "type": "function"
    },
    {
      "inputs": [
        {
          "internalType": "address",
          "name": "_transmuter",
          "type": "address"
        }
      ],
      "name": "setTransmuter",
      "outputs": [],
      "stateMutability": "nonpayable",
      "type": "function"
    },
    {
      "inputs": [],
      "name": "token",
      "outputs": [
        {
          "internalType": "contract IMintableERC20",
          "name": "",
          "type": "address"
        }
      ],
      "stateMutability": "view",
      "type": "function"
    },
    {
      "inputs": [],
      "name": "totalDeposited",
      "outputs": [
        {
          "internalType": "uint256",
          "name": "",
          "type": "uint256"
        }
      ],
      "stateMutability": "view",
      "type": "function"
    },
    {
      "inputs": [],
      "name": "transmuter",
      "outputs": [
        {
          "internalType": "address",
          "name": "",
          "type": "address"
        }
      ],
      "stateMutability": "view",
      "type": "function"
    },
    {
      "inputs": [],
      "name": "vaultCount",
      "outputs": [
        {
          "internalType": "uint256",
          "name": "",
          "type": "uint256"
        }
      ],
      "stateMutability": "view",
      "type": "function"
    },
    {
      "inputs": [
        {
          "internalType": "uint256",
          "name": "_amount",
          "type": "uint256"
        }
      ],
      "name": "withdraw",
      "outputs": [
        {
          "internalType": "uint256",
          "name": "",
          "type": "uint256"
        },
        {
          "internalType": "uint256",
          "name": "",
          "type": "uint256"
        }
      ],
      "stateMutability": "nonpayable",
      "type": "function"
    },
    {
      "inputs": [],
      "name": "xtoken",
      "outputs": [
        {
          "internalType": "contract IMintableERC20",
          "name": "",
          "type": "address"
        }
      ],
      "stateMutability": "view",
      "type": "function"
    }
  ],
  "transactionHash": "0xf108cd050dd7dbbd888329596c2d25ed74872949fa8f6b56e5ef051ebe8e8145",
  "args": [
    "0x4bf010f1b9beDA5450a8dD702ED602A104ff65EE",
    "0x40a42Baf86Fc821f972Ad2aC878729063CeEF403",
    "0xf39Fd6e51aad88F6F4ce6aB8827279cffFb92266",
    "0xf39Fd6e51aad88F6F4ce6aB8827279cffFb92266"
  ],
  "solcInputHash": "e28779e1c6fa97393b5bc15b8c643560",
  "bytecode": "0x60806040523480156200001157600080fd5b50604051620047b5380380620047b583398101604081905262000034916200018a565b60016000556001600160a01b0382166200006b5760405162461bcd60e51b81526004016200006290620001f1565b60405180910390fd5b6001600160a01b038116620000945760405162461bcd60e51b815260040162000062906200027e565b600180546001600160a01b03199081166001600160a01b03878116919091179092556002805482168684161781556003805483168685161790556005805490921692841692909217905569152d02c7e14af6800000600b556000906200011090670de0b6b3a76400009062000141602090811b620024cd17901c565b604080516020808201835290839052600d9290925580519182019052600090819052600e5550620002e19350505050565b600082620001525750600062000184565b828202828482816200016057fe5b0414620001815760405162461bcd60e51b815260040162000062906200023d565b90505b92915050565b60008060008060808587031215620001a0578384fd5b8451620001ad81620002c8565b6020860151909450620001c081620002c8565b6040860151909350620001d381620002c8565b6060860151909250620001e681620002c8565b939692955090935050565b6020808252602c908201527f416c6368656d6973743a20676f7665726e616e6365206164647265737320636160408201526b373737ba10313290183c181760a11b606082015260800190565b60208082526021908201527f536166654d6174683a206d756c7469706c69636174696f6e206f766572666c6f6040820152607760f81b606082015260800190565b6020808252602a908201527f416c6368656d6973743a2073656e74696e656c20616464726573732063616e6e60408201526937ba10313290183c181760b11b606082015260800190565b6001600160a01b0381168114620002de57600080fd5b50565b6144c480620002f16000396000f3fe608060405234801561001057600080fd5b50600436106103205760003560e01c80639a9af221116101a7578063ce5494bb116100ee578063f39c38a011610097578063fc0c546a11610071578063fc0c546a146105ed578063fefdc5d1146105f5578063ff50abdc1461060857610320565b8063f39c38a0146105ca578063f58c251c146105d2578063fc00e8a0146105da57610320565b8063e626648a116100c8578063e626648a146105a7578063ec38a862146105af578063f0d787a3146105c257610320565b8063ce5494bb1461056e578063d8aed14514610581578063ddc632621461059457610320565b8063aaf1666011610150578063b6b55f251161012a578063b6b55f2514610535578063c4d66de814610548578063c869adb41461055b57610320565b8063aaf1666014610507578063adb4a9ad1461051a578063b59629171461052d57610320565b8063a1e401a911610181578063a1e401a9146104d9578063a7c6a100146104ec578063aa6e0434146104f457610320565b80639a9af221146104ab5780639ec5a894146104be578063a0712d68146104c657610320565b8063415f12401161026b57806353ffa18b116102145780636b9f96ea116101ee5780636b9f96ea146104885780637239d2b914610490578063792b55b61461049857610320565b806353ffa18b146104655780635641ec03146104785780635aa6e6751461048057610320565b80634aaf7c65116102455780634aaf7c65146104355780634c3a8e021461044a578063538ba4f91461045d57610320565b8063415f12401461040757806345ee07551461041a57806345f867b31461042d57610320565b8063238efcbc116102cd57806330d4d190116102a757806330d4d190146103e457806334024e02146103ec5780633847f038146103ff57610320565b8063238efcbc146103a85780632670fdd8146103b05780632e1a7d4d146103c357610320565b8063158ef93e116102fe578063158ef93e1461036b5780631718a68f1461038057806322c37b751461039557610320565b80630510111e1461032557806309dac061146103435780630abb603514610358575b600080fd5b61032d610610565b60405161033a91906143ad565b60405180910390f35b610356610351366004613959565b61061c565b005b610356610366366004613959565b61073e565b61037361084c565b60405161033a9190613aae565b610388610855565b60405161033a9190613a36565b6103566103a33660046139c9565b610871565b6103566108c7565b6103886103be3660046139c9565b610989565b6103d66103d13660046139c9565b6109b5565b60405161033a9291906143b6565b61032d610bcb565b6103566103fa3660046139c9565b610bd7565b61032d610c5d565b6103d66104153660046139c9565b610c63565b610356610428366004613975565b610ed1565b61032d610fa4565b61043d610faa565b60405161033a91906143a3565b6103d66104583660046139c9565b610fc6565b610388611074565b6103566104733660046139c9565b611079565b61037361118e565b61038861119c565b61032d6111b8565b61038861128c565b6103566104a63660046139c9565b6112a8565b61032d6104b9366004613959565b61136a565b610388611395565b6103566104d43660046139c9565b6113b1565b61032d6104e7366004613959565b611791565b61032d6117b9565b61032d610502366004613959565b6117ca565b61032d6105153660046139c9565b611801565b610356610528366004613959565b61181a565b61032d611928565b6103566105433660046139c9565b61192e565b610356610556366004613959565b611af2565b6103566105693660046139c9565b611c55565b61035661057c366004613959565b611d17565b61035661058f3660046139f9565b611db0565b6103d66105a23660046139c9565b612144565b61032d61229e565b6103566105bd366004613959565b6122a4565b61032d6123b2565b6103886123b8565b6103886123d4565b61032d6105e8366004613959565b6123f0565b610388612420565b6103d66106033660046139f9565b61243c565b61032d6124c7565b673782dace9d90000081565b60035473ffffffffffffffffffffffffffffffffffffffff163314610676576040517f08c379a000000000000000000000000000000000000000000000000000000000815260040161066d90613ea6565b60405180910390fd5b73ffffffffffffffffffffffffffffffffffffffff81166106c3576040517f08c379a000000000000000000000000000000000000000000000000000000000815260040161066d9061418a565b600580547fffffffffffffffffffffffff00000000000000000000000000000000000000001673ffffffffffffffffffffffffffffffffffffffff83161790556040517fdc117600f93282860144d2cd2745f8e2e15c3ca2a32b4290c30f7cd1ae7ffcb990610733908390613a36565b60405180910390a150565b60035473ffffffffffffffffffffffffffffffffffffffff16331461078f576040517f08c379a000000000000000000000000000000000000000000000000000000000815260040161066d90613ea6565b73ffffffffffffffffffffffffffffffffffffffff81166107dc576040517f08c379a000000000000000000000000000000000000000000000000000000000815260040161066d90613b67565b600480547fffffffffffffffffffffffff00000000000000000000000000000000000000001673ffffffffffffffffffffffffffffffffffffffff83161790556040517fc9e2377236eab4280090ce8f2317332649736d92f00dcf20a8dd6684ec5e783990610733908390613a36565b600c5460ff1681565b60025473ffffffffffffffffffffffffffffffffffffffff1681565b60035473ffffffffffffffffffffffffffffffffffffffff1633146108c2576040517f08c379a000000000000000000000000000000000000000000000000000000000815260040161066d90613ea6565b600b55565b60045473ffffffffffffffffffffffffffffffffffffffff16338114610919576040517f08c379a000000000000000000000000000000000000000000000000000000000815260040161066d90613f97565b600380547fffffffffffffffffffffffff00000000000000000000000000000000000000001673ffffffffffffffffffffffffffffffffffffffff83161790556040517f9d3e522e1e47a2f6009739342b9cc7b252a1888154e843ab55ee1c81745795ab90610733908390613a36565b60008061099760108461252a565b5473ffffffffffffffffffffffffffffffffffffffff169392505050565b600080600260005414156109f5576040517f08c379a000000000000000000000000000000000000000000000000000000000815260040161066d906141e7565b6002600055610a0333612551565b158015610a0f57503332145b610a45576040517f08c379a000000000000000000000000000000000000000000000000000000000815260040161066d90613cb5565b600c5460ff16610a81576040517f08c379a000000000000000000000000000000000000000000000000000000000815260040161066d906140f6565b336000908152600f6020526040902060038101544311610acd576040517f08c379a000000000000000000000000000000000000000000000000000000000815260040161066d90613fce565b610ad881600d612557565b600080610ae533876125c9565b60408051808201909152601b81527f4578636565647320776974686472617761626c6520616d6f756e74000000000060208201528554929450909250610b2d91908390612730565b835560408051606081019091526031808252610b5691600d916144376020830139859190612776565b600b548610610b6957610b676127bf565b505b3373ffffffffffffffffffffffffffffffffffffffff167fb3ad69dc1d2c6b1f5f5b0927ffd8ee8f1437a156253c8f6dccc75e6f8e4fd38b878484604051610bb3939291906143c4565b60405180910390a26001600055909590945092505050565b670de0b6b3a764000081565b60035473ffffffffffffffffffffffffffffffffffffffff163314610c28576040517f08c379a000000000000000000000000000000000000000000000000000000000815260040161066d90613ea6565b60118190556040517f5ed2ed42a3f6f395decb1c6e41b55d52532f9a0bd40293262be91d7b88126403906107339083906143ad565b60115481565b60008060026000541415610ca3576040517f08c379a000000000000000000000000000000000000000000000000000000000815260040161066d906141e7565b6002600055610cb133612551565b158015610cbd57503332145b610cf3576040517f08c379a000000000000000000000000000000000000000000000000000000000815260040161066d90613cb5565b60115415610dd557601154600160009054906101000a900473ffffffffffffffffffffffffffffffffffffffff1673ffffffffffffffffffffffffffffffffffffffff1663bb7b8b806040518163ffffffff1660e01b815260040160206040518083038186803b158015610d6657600080fd5b505afa158015610d7a573d6000803e3d6000fd5b505050506040513d601f19601f82011682018060405250810190610d9e91906139e1565b11610dd5576040517f08c379a000000000000000000000000000000000000000000000000000000000815260040161066d906142b2565b600c5460ff16610e11576040517f08c379a000000000000000000000000000000000000000000000000000000000815260040161066d906140f6565b336000908152600f60205260409020610e2b81600d612557565b8060010154841115610e3f57806001015493505b600080610e4c30876125c9565b91509150610e5982612818565b6040805160208101909152600081528354610e75918390612730565b83556040805160208101909152600081526001840154610e96918490612730565b600184015560405133907f3ea051727656be6fd11c2260f244f29ff3c70d1fb077bfa73e89d554e9bb95c790610bb3908990869086906143c4565b60035473ffffffffffffffffffffffffffffffffffffffff16331480610f0e575060055473ffffffffffffffffffffffffffffffffffffffff1633145b610f44576040517f08c379a000000000000000000000000000000000000000000000000000000000815260040161066d90613fce565b600c80547fffffffffffffffffffffffffffffffffffffffffffffffffffffffffffff00ff16610100831515021790556040517ff0064f2efd0da4bc63eecf2e75590fe8a308eaa526a51c334e50eec09a71104990610733908390613aae565b61271081565b610fb2613946565b506040805160208101909152600d54815290565b60008060026000541415611006576040517f08c379a000000000000000000000000000000000000000000000000000000000815260040161066d906141e7565b6002600055600c5460ff16611047576040517f08c379a000000000000000000000000000000000000000000000000000000000815260040161066d906140f6565b600061105460108561252a565b90506110648482600101546129dc565b6001600055909590945092505050565b600081565b60035473ffffffffffffffffffffffffffffffffffffffff1633146110ca576040517f08c379a000000000000000000000000000000000000000000000000000000000815260040161066d90613ea6565b670de0b6b3a764000081101561110c576040517f08c379a000000000000000000000000000000000000000000000000000000000815260040161066d90613dec565b673782dace9d90000081111561114e576040517f08c379a000000000000000000000000000000000000000000000000000000000815260040161066d90613e49565b60408051602081018252829052600d829055517ff78180bc708b1292177c888900951cd66a39faf48dc7b6d111e93285dbbe55a0906107339083906143ad565b600c54610100900460ff1681565b60035473ffffffffffffffffffffffffffffffffffffffff1681565b6000600260005414156111f7576040517f08c379a000000000000000000000000000000000000000000000000000000000815260040161066d906141e7565b6002600055600c54610100900460ff161561123e576040517f08c379a000000000000000000000000000000000000000000000000000000000815260040161066d90613fdf565b600c5460ff1661127a576040517f08c379a000000000000000000000000000000000000000000000000000000000815260040161066d906140f6565b6112826127bf565b9050600160005590565b60065473ffffffffffffffffffffffffffffffffffffffff1681565b60035473ffffffffffffffffffffffffffffffffffffffff1633146112f9576040517f08c379a000000000000000000000000000000000000000000000000000000000815260040161066d90613ea6565b612710811115611335576040517f08c379a000000000000000000000000000000000000000000000000000000000815260040161066d90613f3a565b60088190556040517fc36862a253ff42cc71f4f200d3c62e8e5eaaece01041fc6900aeace64ade72a8906107339083906143ad565b73ffffffffffffffffffffffffffffffffffffffff166000908152600f602052604090206003015490565b60075473ffffffffffffffffffffffffffffffffffffffff1681565b600260005414156113ee576040517f08c379a000000000000000000000000000000000000000000000000000000000815260040161066d906141e7565b6002600055600c54610100900460ff1615611435576040517f08c379a000000000000000000000000000000000000000000000000000000000815260040161066d90613fdf565b61143e33612551565b15801561144a57503332145b611480576040517f08c379a000000000000000000000000000000000000000000000000000000000815260040161066d90613cb5565b6011541561156257601154600160009054906101000a900473ffffffffffffffffffffffffffffffffffffffff1673ffffffffffffffffffffffffffffffffffffffff1663bb7b8b806040518163ffffffff1660e01b815260040160206040518083038186803b1580156114f357600080fd5b505afa158015611507573d6000803e3d6000fd5b505050506040513d601f19601f8201168201806040525081019061152b91906139e1565b11611562576040517f08c379a000000000000000000000000000000000000000000000000000000000815260040161066d906142b2565b600c5460ff1661159e576040517f08c379a000000000000000000000000000000000000000000000000000000000815260040161066d906140f6565b336000908152600f602052604090206115b881600d612557565b6002810154828110156116da5760095481840390156116925760006115f46127106115ee600954856124cd90919063ffffffff16565b90612abf565b90506116008282612b0b565b6002546007546040517f40c10f1900000000000000000000000000000000000000000000000000000000815292945073ffffffffffffffffffffffffffffffffffffffff918216926340c10f199261165e9216908590600401613a57565b600060405180830381600087803b15801561167857600080fd5b505af115801561168c573d6000803e3d6000fd5b50505050505b60018301546116a19082612b0b565b600184015560006002840155604080516060810190915260278082526116d491600d916144686020830139859190612776565b506116ea565b6116e48184612b4a565b60028301555b6002546040517f40c10f1900000000000000000000000000000000000000000000000000000000815273ffffffffffffffffffffffffffffffffffffffff909116906340c10f19906117429033908790600401613a57565b600060405180830381600087803b15801561175c57600080fd5b505af1158015611770573d6000803e3d6000fd5b50505050600b548310611787576117856127bf565b505b5050600160005550565b73ffffffffffffffffffffffffffffffffffffffff166000908152600f602052604090205490565b60006117c56010612b8c565b905090565b73ffffffffffffffffffffffffffffffffffffffff81166000908152600f602052604081206117fa81600d612b90565b9392505050565b60008061180f60108461252a565b600101549392505050565b60035473ffffffffffffffffffffffffffffffffffffffff16331461186b576040517f08c379a000000000000000000000000000000000000000000000000000000000815260040161066d90613ea6565b73ffffffffffffffffffffffffffffffffffffffff81166118b8576040517f08c379a000000000000000000000000000000000000000000000000000000000815260040161066d90613b0a565b600680547fffffffffffffffffffffffff00000000000000000000000000000000000000001673ffffffffffffffffffffffffffffffffffffffff83161790556040517fe42bb1780117f5788c6e0042e955291223819875891ddf465b8e4fbb85a933e990610733908390613a36565b60085481565b6002600054141561196b576040517f08c379a000000000000000000000000000000000000000000000000000000000815260040161066d906141e7565b6002600055600c54610100900460ff16156119b2576040517f08c379a000000000000000000000000000000000000000000000000000000000815260040161066d90613fdf565b6119bb33612551565b1580156119c757503332145b6119fd576040517f08c379a000000000000000000000000000000000000000000000000000000000815260040161066d90613cb5565b600c5460ff16611a39576040517f08c379a000000000000000000000000000000000000000000000000000000000815260040161066d906140f6565b336000908152600f60205260409020611a5381600d612557565b600154611a789073ffffffffffffffffffffffffffffffffffffffff16333085612bc0565b600b548210611a8b57611a896127bf565b505b600a54611a989083612b0b565b600a558054611aa79083612b0b565b815543600382015560405133907f59062170a285eb80e8c6b8ced60428442a51910635005233fc4ce084a475845e90611ae19085906143ad565b60405180910390a250506001600055565b60035473ffffffffffffffffffffffffffffffffffffffff163314611b43576040517f08c379a000000000000000000000000000000000000000000000000000000000815260040161066d90613ea6565b600c5460ff1615611b80576040517f08c379a000000000000000000000000000000000000000000000000000000000815260040161066d90613cea565b60065473ffffffffffffffffffffffffffffffffffffffff16611bcf576040517f08c379a000000000000000000000000000000000000000000000000000000000815260040161066d90613bc4565b60075473ffffffffffffffffffffffffffffffffffffffff16611c1e576040517f08c379a000000000000000000000000000000000000000000000000000000000815260040161066d90613c58565b611c2781612c63565b50600c80547fffffffffffffffffffffffffffffffffffffffffffffffffffffffffffffff00166001179055565b60035473ffffffffffffffffffffffffffffffffffffffff163314611ca6576040517f08c379a000000000000000000000000000000000000000000000000000000000815260040161066d90613ea6565b612710811115611ce2576040517f08c379a000000000000000000000000000000000000000000000000000000000815260040161066d906142e9565b60098190556040517fe06319d5f3489148c5b3d388187bd61bb8e051b6f054d72e4eec0e07118a1903906107339083906143ad565b600c5460ff16611d53576040517f08c379a000000000000000000000000000000000000000000000000000000000815260040161066d906140f6565b60035473ffffffffffffffffffffffffffffffffffffffff163314611da4576040517f08c379a000000000000000000000000000000000000000000000000000000000815260040161066d90613ea6565b611dad81612c63565b50565b60026000541415611ded576040517f08c379a000000000000000000000000000000000000000000000000000000000815260040161066d906141e7565b6002600055611dfb33612551565b158015611e0757503332145b611e3d576040517f08c379a000000000000000000000000000000000000000000000000000000000815260040161066d90613cb5565b60115415611f1f57601154600160009054906101000a900473ffffffffffffffffffffffffffffffffffffffff1673ffffffffffffffffffffffffffffffffffffffff1663bb7b8b806040518163ffffffff1660e01b815260040160206040518083038186803b158015611eb057600080fd5b505afa158015611ec4573d6000803e3d6000fd5b505050506040513d601f19601f82011682018060405250810190611ee891906139e1565b11611f1f576040517f08c379a000000000000000000000000000000000000000000000000000000000815260040161066d906142b2565b600c5460ff16611f5b576040517f08c379a000000000000000000000000000000000000000000000000000000000815260040161066d906140f6565b336000908152600f60205260409020611f7581600d612557565b8215611fa957600154611fa09073ffffffffffffffffffffffffffffffffffffffff16333086612bc0565b611fa983612818565b81156120c2576002546040517f79cc679000000000000000000000000000000000000000000000000000000000815273ffffffffffffffffffffffffffffffffffffffff909116906379cc6790906120079033908690600401613a57565b600060405180830381600087803b15801561202157600080fd5b505af1158015612035573d6000803e3d6000fd5b50506002546040517f288aafcb00000000000000000000000000000000000000000000000000000000815273ffffffffffffffffffffffffffffffffffffffff909116925063288aafcb915061208f9085906004016143ad565b600060405180830381600087803b1580156120a957600080fd5b505af11580156120bd573d6000803e3d6000fd5b505050505b60006120ce8484612b0b565b90506120f8816040518060200160405280600081525084600101546127309092919063ffffffff16565b600183015560405133907fbade234341a40ca3c71df59b3ca02b8bb65b491a098af970953228b4f4a5d38f9061213190879087906143b6565b60405180910390a2505060016000555050565b600c54600090819060ff16612185576040517f08c379a000000000000000000000000000000000000000000000000000000000815260040161066d906140f6565b600061219260108561252a565b90506000806121a18330612e1c565b9092509050811561225a5760006121c96127106115ee600854866124cd90919063ffffffff16565b905060006121d78483612b4a565b90506121e1613946565b6121f6600a546121f084612e6f565b90612eb1565b6040805160208101909152600e5481529091506122139082612ee5565b51600e558215612247576007546001546122479173ffffffffffffffffffffffffffffffffffffffff918216911685612f15565b81156122565761225682612818565b5050505b7f11d2034f4471d11a13f0f1798ceaf0c9db2812d450a0681958ce7d4f2fb97f09828260405161228b9291906143b6565b60405180910390a1909350915050915091565b60095481565b60035473ffffffffffffffffffffffffffffffffffffffff1633146122f5576040517f08c379a000000000000000000000000000000000000000000000000000000000815260040161066d90613ea6565b73ffffffffffffffffffffffffffffffffffffffff8116612342576040517f08c379a000000000000000000000000000000000000000000000000000000000815260040161066d90614346565b600780547fffffffffffffffffffffffff00000000000000000000000000000000000000001673ffffffffffffffffffffffffffffffffffffffff83161790556040517f05f3326e0527f309d4015dee3bc3f36e650b53fc823bab69c99847814acfafdf90610733908390613a36565b600b5481565b60045473ffffffffffffffffffffffffffffffffffffffff1681565b60055473ffffffffffffffffffffffffffffffffffffffff1681565b73ffffffffffffffffffffffffffffffffffffffff81166000908152600f602052604081206117fa81600d612f39565b60015473ffffffffffffffffffffffffffffffffffffffff1681565b6000806002600054141561247c576040517f08c379a000000000000000000000000000000000000000000000000000000000815260040161066d906141e7565b6002600055600c5460ff166124bd576040517f08c379a000000000000000000000000000000000000000000000000000000000815260040161066d906140f6565b61106484846129dc565b600a5481565b6000826124dc57506000612524565b828202828482816124e957fe5b0414612521576040517f08c379a000000000000000000000000000000000000000000000000000000000815260040161066d90613edd565b90505b92915050565b600082600001828154811061253b57fe5b9060005260206000209060020201905092915050565b3b151590565b60006125638383612f80565b905082600101548111156125a75761259661258b846001015483612b4a90919063ffffffff16565b600285015490612b0b565b6002840155600060018401556125bc565b60018301546125b69082612b4a565b60018401555b5060010154600490910155565b6001546040517f70a082310000000000000000000000000000000000000000000000000000000081526000918291829161267f91869173ffffffffffffffffffffffffffffffffffffffff16906370a082319061262a903090600401613a36565b60206040518083038186803b15801561264257600080fd5b505afa158015612656573d6000803e3d6000fd5b505050506040513d601f19601f8201168201806040525081019061267a91906139e1565b612ff9565b905073ffffffffffffffffffffffffffffffffffffffff851630146126c2576001546126c29073ffffffffffffffffffffffffffffffffffffffff168683612f15565b808060006126d08783612b4a565b90508015612711576000806126f18a846126ea601061300f565b919061303a565b90925090506127008583612b0b565b945061270c8482612b0b565b935050505b600a5461271e9083612b4a565b600a55509093509150505b9250929050565b6000818484111561276e576040517f08c379a000000000000000000000000000000000000000000000000000000000815260040161066d9190613ab9565b505050900390565b6127808383613070565b81906127b9576040517f08c379a000000000000000000000000000000000000000000000000000000000815260040161066d9190613ab9565b50505050565b6000806127cc601061300f565b905060006127d98261309e565b90507f860f4701faa0ecdeecd9e9eaae11a8612bbd01c663081f7c0c4e4873df653d698160405161280a91906143ad565b60405180910390a191505090565b6001546006546040517f095ea7b300000000000000000000000000000000000000000000000000000000815273ffffffffffffffffffffffffffffffffffffffff9283169263095ea7b392612874929116908590600401613a57565b602060405180830381600087803b15801561288e57600080fd5b505af11580156128a2573d6000803e3d6000fd5b505050506040513d601f19601f820116820180604052508101906128c69190613991565b506006546040517ffb93210800000000000000000000000000000000000000000000000000000000815273ffffffffffffffffffffffffffffffffffffffff9091169063fb9321089061291f9030908590600401613a57565b600060405180830381600087803b15801561293957600080fd5b505af115801561294d573d6000803e3d6000fd5b50506002546040517f288aafcb00000000000000000000000000000000000000000000000000000000815273ffffffffffffffffffffffffffffffffffffffff909116925063288aafcb91506129a79084906004016143ad565b600060405180830381600087803b1580156129c157600080fd5b505af11580156129d5573d6000803e3d6000fd5b5050505050565b600c546000908190610100900460ff1680612a0e575060035473ffffffffffffffffffffffffffffffffffffffff1633145b80612a225750612a1e601061313f565b8414155b612a58576040517f08c379a000000000000000000000000000000000000000000000000000000000815260040161066d9061404d565b6000612a6560108661252a565b9050600080612a7583308861303a565b91509150867fccbd929f935422b28ee209a0db0556280b0a3d9bc4da58f1d3f0ab4f8a4996478383604051612aab9291906143b6565b60405180910390a290969095509350505050565b6000808211612afa576040517f08c379a000000000000000000000000000000000000000000000000000000000815260040161066d90613db5565b818381612b0357fe5b049392505050565b600082820183811015612521576040517f08c379a000000000000000000000000000000000000000000000000000000000815260040161066d90613c21565b600082821115612b86576040517f08c379a000000000000000000000000000000000000000000000000000000000815260040161066d90613d21565b50900390565b5490565b600080612b9d8484612f80565b600185015490915080821015612bb557039050612524565b506000949350505050565b6127b9846323b872dd60e01b858585604051602401612be193929190613a7d565b604080517fffffffffffffffffffffffffffffffffffffffffffffffffffffffffffffffe08184030181529190526020810180517bffffffffffffffffffffffffffffffffffffffffffffffffffffffff167fffffffff0000000000000000000000000000000000000000000000000000000090931692909217909152613198565b73ffffffffffffffffffffffffffffffffffffffff8116612cb0576040517f08c379a000000000000000000000000000000000000000000000000000000000815260040161066d90614255565b600154604080517ffc0c546a000000000000000000000000000000000000000000000000000000008152905173ffffffffffffffffffffffffffffffffffffffff9283169284169163fc0c546a916004808301926020929190829003018186803b158015612d1d57600080fd5b505afa158015612d31573d6000803e3d6000fd5b505050506040513d601f19601f82011682018060405250810190612d5591906139ad565b73ffffffffffffffffffffffffffffffffffffffff1614612da2576040517f08c379a000000000000000000000000000000000000000000000000000000000815260040161066d9061421e565b6040805180820190915273ffffffffffffffffffffffffffffffffffffffff8216815260006020820152612dd89060109061324e565b60405173ffffffffffffffffffffffffffffffffffffffff8216907f0821015de34e20b0878a40f6f165801417f53b2017016d7321cacee989c8cfa790600090a250565b6000808360010154612e2d856132b6565b11612e3d57506000905080612729565b6000612e568560010154612e50876132b6565b90612b4a565b9050612e63858583613358565b92509250509250929050565b612e77613946565b6000821580612e94575050670de0b6b3a764000082810290810483145b612e9d57600080fd5b604080516020810190915290815292915050565b612eb9613946565b81612ec357600080fd5b604051806020016040528083856000015181612edb57fe5b0490529392505050565b612eed613946565b82518251810190811015612f0057600080fd5b60408051602081019091529081529392505050565b612f348363a9059cbb60e01b8484604051602401612be1929190613a57565b505050565b600080612f468484612f80565b905080612f595750506002820154612524565b6001840154808211612f7057600092505050612524565b6002850154910301905092915050565b6000612f8a613946565b50604080516020810190915260018301548152612fa5613946565b50604080516020810190915260048501548152612fc28282613541565b612fd157600092505050612524565b8454612ff090612feb90612fe58585613590565b906135ab565b6135d9565b95945050505050565b60008183106130085781612521565b5090919050565b60008161301b8161313f565b8154811061302557fe5b90600052602060002090600202019050919050565b600080808061304a878787613358565b6001890154919350915061305e9082612b4a565b60018801559092509050935093915050565b60008061309561308085856135e8565b60408051602081019091528554815290613541565b13159392505050565b6000806130aa8361362c565b90506117fa8173ffffffffffffffffffffffffffffffffffffffff166370a08231306040518263ffffffff1660e01b81526004016130e89190613a36565b60206040518083038186803b15801561310057600080fd5b505afa158015613114573d6000803e3d6000fd5b505050506040513d601f19601f8201168201806040525081019061313891906139e1565b84906136ce565b60008061314b83612b8c565b90506117fa60016040518060400160405280601a81526020017f416c6368656d6973745661756c742e4c6973743a20656d707479000000000000815250836127309092919063ffffffff16565b60606131fa826040518060400160405280602081526020017f5361666545524332303a206c6f772d6c6576656c2063616c6c206661696c65648152508573ffffffffffffffffffffffffffffffffffffffff166137a89092919063ffffffff16565b805190915015612f3457808060200190518101906132189190613991565b612f34576040517f08c379a000000000000000000000000000000000000000000000000000000000815260040161066d9061412d565b8154600180820184556000938452602093849020835160029093020180547fffffffffffffffffffffffff00000000000000000000000000000000000000001673ffffffffffffffffffffffffffffffffffffffff9093169290921782559190920151910155565b8054604080517fd4c3eea0000000000000000000000000000000000000000000000000000000008152905160009273ffffffffffffffffffffffffffffffffffffffff169163d4c3eea0916004808301926020929190829003018186803b15801561332057600080fd5b505afa158015613334573d6000803e3d6000fd5b505050506040513d601f19601f8201168201806040525081019061252491906139e1565b60008060006133668661362c565b905060008173ffffffffffffffffffffffffffffffffffffffff166370a08231876040518263ffffffff1660e01b81526004016133a39190613a36565b60206040518083038186803b1580156133bb57600080fd5b505afa1580156133cf573d6000803e3d6000fd5b505050506040513d601f19601f820116820180604052508101906133f391906139e1565b90506000613400886132b6565b88546040517ff3fef3a300000000000000000000000000000000000000000000000000000000815291925073ffffffffffffffffffffffffffffffffffffffff169063f3fef3a390613458908a908a90600401613a57565b600060405180830381600087803b15801561347257600080fd5b505af1158015613486573d6000803e3d6000fd5b505050506000613519838573ffffffffffffffffffffffffffffffffffffffff166370a082318b6040518263ffffffff1660e01b81526004016134c99190613a36565b60206040518083038186803b1580156134e157600080fd5b505afa1580156134f5573d6000803e3d6000fd5b505050506040513d601f19601f82011682018060405250810190612e5091906139e1565b905060006135306135298b6132b6565b8490612b4a565b919a91995090975050505050505050565b80518251600091111561357557507fffffffffffffffffffffffffffffffffffffffffffffffffffffffffffffffff612524565b81518351111561358757506001612524565b50600092915050565b613598613946565b82518251810390811115612f0057600080fd5b6135b3613946565b60008215806135d05750508251828102908382816135cd57fe5b04145b612f0057600080fd5b51670de0b6b3a7640000900490565b6135f0613946565b60006135fc8484612b90565b9050806136135761360b6137b7565b915050612524565b613624816121f08660000154612e6f565b949350505050565b8054604080517ffc0c546a000000000000000000000000000000000000000000000000000000008152905160009273ffffffffffffffffffffffffffffffffffffffff169163fc0c546a916004808301926020929190829003018186803b15801561369657600080fd5b505afa1580156136aa573d6000803e3d6000fd5b505050506040513d601f19601f8201168201806040525081019061252491906139ad565b6000806136da8461362c565b84549091506137039073ffffffffffffffffffffffffffffffffffffffff808416911685612f15565b83546040517fb6b55f2500000000000000000000000000000000000000000000000000000000815273ffffffffffffffffffffffffffffffffffffffff9091169063b6b55f25906137589086906004016143ad565b600060405180830381600087803b15801561377257600080fd5b505af1158015613786573d6000803e3d6000fd5b5050506001850154613799915084612b0b565b60018501555081905092915050565b606061362484846000856137f1565b6137bf613946565b5060408051602081019091527fffffffffffffffffffffffffffffffffffffffffffffffffffffffffffffffff815290565b60608247101561382d576040517f08c379a000000000000000000000000000000000000000000000000000000000815260040161066d90613d58565b61383685612551565b61386c576040517f08c379a000000000000000000000000000000000000000000000000000000000815260040161066d90614016565b600060608673ffffffffffffffffffffffffffffffffffffffff1685876040516138969190613a1a565b60006040518083038185875af1925050503d80600081146138d3576040519150601f19603f3d011682016040523d82523d6000602084013e6138d8565b606091505b50915091506138e88282866138f3565b979650505050505050565b606083156139025750816117fa565b8251156139125782518084602001fd5b816040517f08c379a000000000000000000000000000000000000000000000000000000000815260040161066d9190613ab9565b6040518060200160405280600081525090565b60006020828403121561396a578081fd5b813561252181614406565b600060208284031215613986578081fd5b813561252181614428565b6000602082840312156139a2578081fd5b815161252181614428565b6000602082840312156139be578081fd5b815161252181614406565b6000602082840312156139da578081fd5b5035919050565b6000602082840312156139f2578081fd5b5051919050565b60008060408385031215613a0b578081fd5b50508035926020909101359150565b60008251613a2c8184602087016143da565b9190910192915050565b73ffffffffffffffffffffffffffffffffffffffff91909116815260200190565b73ffffffffffffffffffffffffffffffffffffffff929092168252602082015260400190565b73ffffffffffffffffffffffffffffffffffffffff9384168152919092166020820152604081019190915260600190565b901515815260200190565b6000602082528251806020840152613ad88160408501602087016143da565b601f017fffffffffffffffffffffffffffffffffffffffffffffffffffffffffffffffe0169190910160400192915050565b6020808252602c908201527f416c6368656d6973743a207472616e736d75746572206164647265737320636160408201527f6e6e6f74206265203078302e0000000000000000000000000000000000000000606082015260800190565b6020808252602c908201527f416c6368656d6973743a20676f7665726e616e6365206164647265737320636160408201527f6e6e6f74206265203078302e0000000000000000000000000000000000000000606082015260800190565b60208082526036908201527f416c6368656d6973743a2063616e6e6f7420696e697469616c697a652074726160408201527f6e736d75746572206164647265737320746f2030783000000000000000000000606082015260800190565b6020808252601b908201527f536166654d6174683a206164646974696f6e206f766572666c6f770000000000604082015260600190565b60208082526033908201527f416c6368656d6973743a2063616e6e6f7420696e697469616c697a652072657760408201527f61726473206164647265737320746f2030783000000000000000000000000000606082015260800190565b6020808252818101527f536f72727920776520646f206e6f742061636365707420636f6e747261637421604082015260600190565b6020808252601e908201527f416c6368656d6973743a20616c726561647920696e697469616c697a65640000604082015260600190565b6020808252601e908201527f536166654d6174683a207375627472616374696f6e206f766572666c6f770000604082015260600190565b60208082526026908201527f416464726573733a20696e73756666696369656e742062616c616e636520666f60408201527f722063616c6c0000000000000000000000000000000000000000000000000000606082015260800190565b6020808252601a908201527f536166654d6174683a206469766973696f6e206279207a65726f000000000000604082015260600190565b60208082526031908201527f416c6368656d6973743a20636f6c6c61746572616c697a6174696f6e206c696d60408201527f69742062656c6f77206d696e696d756d2e000000000000000000000000000000606082015260800190565b60208082526031908201527f416c6368656d6973743a20636f6c6c61746572616c697a6174696f6e206c696d60408201527f69742061626f7665206d6178696d756d2e000000000000000000000000000000606082015260800190565b6020808252601b908201527f416c6368656d6973743a206f6e6c7920676f7665726e616e63652e0000000000604082015260600190565b60208082526021908201527f536166654d6174683a206d756c7469706c69636174696f6e206f766572666c6f60408201527f7700000000000000000000000000000000000000000000000000000000000000606082015260800190565b60208082526025908201527f416c6368656d6973743a2068617276657374206665652061626f7665206d617860408201527f696d756d2e000000000000000000000000000000000000000000000000000000606082015260800190565b6020808252601f908201527f73656e646572206973206e6f742070656e64696e67476f7665726e616e636500604082015260600190565b602080825260009082015260400190565b60208082526017908201527f656d657267656e637920706175736520656e61626c6564000000000000000000604082015260600190565b6020808252601d908201527f416464726573733a2063616c6c20746f206e6f6e2d636f6e7472616374000000604082015260600190565b60208082526070908201527f416c6368656d6973743a206e6f7420616e20656d657267656e63792c206e6f7460408201527f20676f7665726e616e63652c20616e64207573657220646f6573206e6f74206860608201527f617665207065726d697373696f6e20746f20726563616c6c2066756e6473206660808201527f726f6d20616374697665207661756c740000000000000000000000000000000060a082015260c00190565b6020808252601b908201527f416c6368656d6973743a206e6f7420696e697469616c697a65642e0000000000604082015260600190565b6020808252602a908201527f5361666545524332303a204552433230206f7065726174696f6e20646964206e60408201527f6f74207375636365656400000000000000000000000000000000000000000000606082015260800190565b6020808252602a908201527f416c6368656d6973743a2073656e74696e656c20616464726573732063616e6e60408201527f6f74206265203078302e00000000000000000000000000000000000000000000606082015260800190565b6020808252601f908201527f5265656e7472616e637947756172643a207265656e7472616e742063616c6c00604082015260600190565b6020808252601a908201527f416c6368656d6973743a20746f6b656e206d69736d617463682e000000000000604082015260600190565b6020808252602e908201527f416c6368656d6973743a20616374697665207661756c7420616464726573732060408201527f63616e6e6f74206265203078302e000000000000000000000000000000000000606082015260800190565b60208082526012908201527f6f666620706567206c696d69746174696f6e0000000000000000000000000000604082015260600190565b60208082526024908201527f416c6368656d6973743a20626f72726f77206665652061626f7665206d61786960408201527f6d756d2e00000000000000000000000000000000000000000000000000000000606082015260800190565b60208082526029908201527f416c6368656d6973743a207265776172647320616464726573732063616e6e6f60408201527f74206265203078302e0000000000000000000000000000000000000000000000606082015260800190565b9051815260200190565b90815260200190565b918252602082015260400190565b9283526020830191909152604082015260600190565b60005b838110156143f55781810151838201526020016143dd565b838111156127b95750506000910152565b73ffffffffffffffffffffffffffffffffffffffff81168114611dad57600080fd5b8015158114611dad57600080fdfe416374696f6e20626c6f636b65643a20756e6865616c74687920636f6c6c61746572616c697a6174696f6e20726174696f416c6368656d6973743a204c6f616e2d746f2d76616c756520726174696f206272656163686564a2646970667358221220659a16acdec1f610aef1cb28bc9b5e7db0596c199cb974840f11bb953f297f0664736f6c634300060c0033",
  "devdoc": {
    "kind": "dev",
    "methods": {
      "acceptGovernance()": {
        "details": "Accepts the role as governance. This function reverts if the caller is not the new pending governance."
      },
      "collateralizationLimit()": {
        "details": "Gets the collateralization limit. The collateralization limit is the minimum ratio of collateral to debt that is allowed by the system.",
        "returns": {
          "_0": "the collateralization limit."
        }
      },
      "deposit(uint256)": {
        "details": "Deposits collateral into a CDP. This function reverts if an emergency exit is active. This is in place to prevent the potential loss of additional funds.",
        "params": {
          "_amount": "the amount of collateral to deposit."
        }
      },
      "flush()": {
        "details": "Flushes buffered tokens to the active vault. This function reverts if an emergency exit is active. This is in place to prevent the potential loss of additional funds.",
        "returns": {
          "_0": "the amount of tokens flushed to the active vault."
        }
      },
      "getCdpLastDeposit(address)": {
        "details": "Gets the last recorded block of when a user made a deposit into their CDP.",
        "params": {
          "_account": "the user account of the CDP to query."
        },
        "returns": {
          "_0": "the block number of the last deposit."
        }
      },
      "getCdpTotalCredit(address)": {
        "details": "Get the total amount of credit that a CDP has.",
        "params": {
          "_account": "the user account of the CDP to query."
        },
        "returns": {
          "_0": "the amount of credit."
        }
      },
      "getCdpTotalDebt(address)": {
        "details": "Get the total amount of alchemic tokens borrowed from a CDP.",
        "params": {
          "_account": "the user account of the CDP to query."
        },
        "returns": {
          "_0": "the borrowed amount of tokens."
        }
      },
      "getCdpTotalDeposited(address)": {
        "details": "Get the total amount of collateral deposited into a CDP.",
        "params": {
          "_account": "the user account of the CDP to query."
        },
        "returns": {
          "_0": "the deposited amount of tokens."
        }
      },
      "getVaultAdapter(uint256)": {
        "details": "Get the adapter of a vault.",
        "params": {
          "_vaultId": "the identifier of the vault."
        },
        "returns": {
          "_0": "the vault adapter."
        }
      },
      "getVaultTotalDeposited(uint256)": {
        "details": "Get the total amount of the parent asset that has been deposited into a vault.",
        "params": {
          "_vaultId": "the identifier of the vault."
        },
        "returns": {
          "_0": "the total amount of deposited tokens."
        }
      },
      "harvest(uint256)": {
        "details": "Harvests yield from a vault.",
        "params": {
          "_vaultId": "the identifier of the vault to harvest from."
        },
        "returns": {
          "_0": "the amount of funds that were harvested from the vault."
        }
      },
      "initialize(address)": {
        "details": "Initializes the contract. This function checks that the transmuter and rewards have been set and sets up the active vault.",
        "params": {
          "_adapter": "the vault adapter of the active vault."
        }
      },
      "liquidate(uint256)": {
        "details": "Attempts to liquidate part of a CDP's collateral to pay back its debt.",
        "params": {
          "_amount": "the amount of collateral to attempt to liquidate."
        }
      },
      "migrate(address)": {
        "details": "Migrates the system to a new vault. This function reverts if the vault adapter is the zero address, if the token that the vault adapter accepts is not the token that this contract defines as the parent asset, or if the contract has not yet been initialized.",
        "params": {
          "_adapter": "the adapter for the vault the system will migrate to."
        }
      },
      "mint(uint256)": {
        "details": "Mints synthetic tokens by either claiming credit or increasing the debt. Claiming credit will take priority over increasing the debt. This function reverts if the debt is increased and the CDP health check fails.",
        "params": {
          "_amount": "the amount of alchemic tokens to borrow."
        }
      },
      "recall(uint256,uint256)": {
        "details": "Recalls an amount of deposited funds from a vault to this contract.",
        "params": {
          "_vaultId": "the identifier of the recall funds from."
        },
        "returns": {
          "_0": "the amount of funds that were recalled from the vault to this contract and the decreased vault value."
        }
      },
      "recallAll(uint256)": {
        "details": "Recalls all the deposited funds from a vault to this contract.",
        "params": {
          "_vaultId": "the identifier of the recall funds from."
        },
        "returns": {
          "_0": "the amount of funds that were recalled from the vault to this contract and the decreased vault value."
        }
      },
      "repay(uint256,uint256)": {
        "details": "Repays debt with the native and or synthetic token. An approval is required to transfer native tokens to the transmuter."
      },
      "setBorrowFee(uint256)": {
        "details": "Sets the borrow fee. This function reverts if the caller is not the current governance.",
        "params": {
          "_borrowFee": "the new borrow fee."
        }
      },
      "setCollateralizationLimit(uint256)": {
        "details": "Sets the collateralization limit. This function reverts if the caller is not the current governance or if the collateralization limit is outside of the accepted bounds.",
        "params": {
          "_limit": "the new collateralization limit."
        }
      },
      "setEmergencyExit(bool)": {
        "details": "Sets if the contract should enter emergency exit mode.",
        "params": {
          "_emergencyExit": "if the contract should enter emergency exit mode."
        }
      },
      "setFlushActivator(uint256)": {
        "details": "Sets the flushActivator.",
        "params": {
          "_flushActivator": "the new flushActivator."
        }
      },
      "setHarvestFee(uint256)": {
        "details": "Sets the harvest fee. This function reverts if the caller is not the current governance.",
        "params": {
          "_harvestFee": "the new harvest fee."
        }
      },
      "setPegMinimum(uint256)": {
        "details": "Set pegMinimum."
      },
      "setPendingGovernance(address)": {
        "details": "Sets the pending governance. This function reverts if the new pending governance is the zero address or the caller is not the current governance. This is to prevent the contract governance being set to the zero address which would deadlock privileged contract functionality.",
        "params": {
          "_pendingGovernance": "the new pending governance."
        }
      },
      "setRewards(address)": {
        "details": "Sets the rewards contract. This function reverts if the new rewards contract is the zero address or the caller is not the current governance.",
        "params": {
          "_rewards": "the new rewards contract."
        }
      },
      "setTransmuter(address)": {
        "details": "Sets the transmuter. This function reverts if the new transmuter is the zero address or the caller is not the current governance.",
        "params": {
          "_transmuter": "the new transmuter."
        }
      },
      "vaultCount()": {
        "details": "Gets the number of vaults in the vault list.",
        "returns": {
          "_0": "the vault count."
        }
      },
      "withdraw(uint256)": {
        "details": "Attempts to withdraw part of a CDP's collateral. This function reverts if a deposit into the CDP was made in the same block. This is to prevent flash loan attacks on other internal or external systems.",
        "params": {
          "_amount": "the amount of collateral to withdraw."
        }
      }
    },
    "stateVariables": {
      "MAXIMUM_COLLATERALIZATION_LIMIT": {
        "details": "The maximum value that the collateralization limit can be set to by the governance. This is a safety rail to prevent the collateralization from being set to a value which breaks the system. This value is equal to 400%. IMPORTANT: This constant is a raw FixedPointMath.FixedDecimal value and assumes a resolution of 64 bits. If the            resolution for the FixedPointMath library changes this constant must change as well."
      },
      "MINIMUM_COLLATERALIZATION_LIMIT": {
        "details": "The minimum value that the collateralization limit can be set to by the governance. This is a safety rail to prevent the collateralization from being set to a value which breaks the system. This value is equal to 100%. IMPORTANT: This constant is a raw FixedPointMath.FixedDecimal value and assumes a resolution of 64 bits. If the            resolution for the FixedPointMath library changes this constant must change as well."
      },
      "PERCENT_RESOLUTION": {
        "details": "Resolution for all fixed point numeric parameters which represent percents. The resolution allows for a granularity of 0.01% increments."
      },
      "_cdps": {
        "details": "A mapping of all of the user CDPs. If a user wishes to have multiple CDPs they will have to either create a new address."
      },
      "_ctx": {
        "details": "The context shared between the CDPs."
      },
      "_vaults": {
        "details": "A list of all of the vaults. The last element of the list is the vault that is currently being used for deposits and withdraws. Vaults before the last element are considered inactive and are expected to be cleared."
      },
      "borrowFee": {
        "details": "The percent of minted debt that will go to the rewards contract."
      },
      "emergencyExit": {
        "details": "A flag indicating if deposits and flushes should be halted and if all parties should be able to recall from the active vault."
      },
      "flushActivator": {
        "details": "when movemetns are bigger than this number flush is activated."
      },
      "governance": {
        "details": "The address of the account which currently has administrative capabilities over this contract."
      },
      "harvestFee": {
        "details": "The percent of each profitable harvest that will go to the rewards contract."
      },
      "initialized": {
        "details": "A flag indicating if the contract has been initialized yet."
      },
      "pegMinimum": {
        "details": "The minimum returned amount needed to be on peg according to the oracle."
      },
      "pendingGovernance": {
        "details": "The address of the pending governance."
      },
      "rewards": {
        "details": "The address of the contract which will receive fees."
      },
      "sentinel": {
        "details": "The address of the account which can initiate an emergency withdraw of funds in a vault."
      },
      "token": {
        "details": "The token that this contract is using as the parent asset."
      },
      "totalDeposited": {
        "details": "The total amount the native token deposited into the system that is owned by external users."
      },
      "transmuter": {
        "details": "The address of the contract which will transmute synthetic tokens back into native tokens."
      },
      "xtoken": {
        "details": "The token that this contract is using as the child asset."
      }
    },
    "version": 1
  },
  "userdoc": {
    "kind": "user",
    "methods": {},
    "version": 1
  },
  "storageLayout": {
    "storage": [
      {
        "astId": 2326,
        "contract": "contracts/Alchemist.sol:Alchemist",
        "label": "_status",
        "offset": 0,
        "slot": "0",
        "type": "t_uint256"
      },
      {
        "astId": 2854,
        "contract": "contracts/Alchemist.sol:Alchemist",
        "label": "token",
        "offset": 0,
        "slot": "1",
        "type": "t_contract(IMintableERC20)6113"
      },
      {
        "astId": 2857,
        "contract": "contracts/Alchemist.sol:Alchemist",
        "label": "xtoken",
        "offset": 0,
        "slot": "2",
        "type": "t_contract(IMintableERC20)6113"
      },
      {
        "astId": 2860,
        "contract": "contracts/Alchemist.sol:Alchemist",
        "label": "governance",
        "offset": 0,
        "slot": "3",
        "type": "t_address"
      },
      {
        "astId": 2863,
        "contract": "contracts/Alchemist.sol:Alchemist",
        "label": "pendingGovernance",
        "offset": 0,
        "slot": "4",
        "type": "t_address"
      },
      {
        "astId": 2866,
        "contract": "contracts/Alchemist.sol:Alchemist",
        "label": "sentinel",
        "offset": 0,
        "slot": "5",
        "type": "t_address"
      },
      {
        "astId": 2869,
        "contract": "contracts/Alchemist.sol:Alchemist",
        "label": "transmuter",
        "offset": 0,
        "slot": "6",
        "type": "t_address"
      },
      {
        "astId": 2872,
        "contract": "contracts/Alchemist.sol:Alchemist",
        "label": "rewards",
        "offset": 0,
        "slot": "7",
        "type": "t_address"
      },
      {
        "astId": 2875,
        "contract": "contracts/Alchemist.sol:Alchemist",
        "label": "harvestFee",
        "offset": 0,
        "slot": "8",
        "type": "t_uint256"
      },
      {
        "astId": 2878,
        "contract": "contracts/Alchemist.sol:Alchemist",
        "label": "borrowFee",
        "offset": 0,
        "slot": "9",
        "type": "t_uint256"
      },
      {
        "astId": 2881,
        "contract": "contracts/Alchemist.sol:Alchemist",
        "label": "totalDeposited",
        "offset": 0,
        "slot": "10",
        "type": "t_uint256"
      },
      {
        "astId": 2884,
        "contract": "contracts/Alchemist.sol:Alchemist",
        "label": "flushActivator",
        "offset": 0,
        "slot": "11",
        "type": "t_uint256"
      },
      {
        "astId": 2887,
        "contract": "contracts/Alchemist.sol:Alchemist",
        "label": "initialized",
        "offset": 0,
        "slot": "12",
        "type": "t_bool"
      },
      {
        "astId": 2890,
        "contract": "contracts/Alchemist.sol:Alchemist",
        "label": "emergencyExit",
        "offset": 1,
        "slot": "12",
        "type": "t_bool"
      },
      {
        "astId": 2893,
        "contract": "contracts/Alchemist.sol:Alchemist",
        "label": "_ctx",
        "offset": 0,
        "slot": "13",
        "type": "t_struct(Context)7229_storage"
      },
      {
        "astId": 2898,
        "contract": "contracts/Alchemist.sol:Alchemist",
        "label": "_cdps",
        "offset": 0,
        "slot": "15",
        "type": "t_mapping(t_address,t_struct(Data)7240_storage)"
      },
      {
        "astId": 2901,
        "contract": "contracts/Alchemist.sol:Alchemist",
        "label": "_vaults",
        "offset": 0,
        "slot": "16",
        "type": "t_struct(List)6845_storage"
      },
      {
        "astId": 2904,
        "contract": "contracts/Alchemist.sol:Alchemist",
        "label": "pegMinimum",
        "offset": 0,
        "slot": "17",
        "type": "t_uint256"
      }
    ],
    "types": {
      "t_address": {
        "encoding": "inplace",
        "label": "address",
        "numberOfBytes": "20"
      },
      "t_array(t_struct(Data)6841_storage)dyn_storage": {
        "base": "t_struct(Data)6841_storage",
        "encoding": "dynamic_array",
        "label": "struct AlchemistVault.Data[]",
        "numberOfBytes": "32"
      },
      "t_bool": {
        "encoding": "inplace",
        "label": "bool",
        "numberOfBytes": "1"
      },
      "t_contract(IMintableERC20)6113": {
        "encoding": "inplace",
        "label": "contract IMintableERC20",
        "numberOfBytes": "20"
      },
      "t_contract(IVaultAdapter)6215": {
        "encoding": "inplace",
        "label": "contract IVaultAdapter",
        "numberOfBytes": "20"
      },
      "t_mapping(t_address,t_struct(Data)7240_storage)": {
        "encoding": "mapping",
        "key": "t_address",
        "label": "mapping(address => struct CDP.Data)",
        "numberOfBytes": "32",
        "value": "t_struct(Data)7240_storage"
      },
      "t_struct(Context)7229_storage": {
        "encoding": "inplace",
        "label": "struct CDP.Context",
        "members": [
          {
            "astId": 7226,
            "contract": "contracts/Alchemist.sol:Alchemist",
            "label": "collateralizationLimit",
            "offset": 0,
            "slot": "0",
            "type": "t_struct(FixedDecimal)6565_storage"
          },
          {
            "astId": 7228,
            "contract": "contracts/Alchemist.sol:Alchemist",
            "label": "accumulatedYieldWeight",
            "offset": 0,
            "slot": "1",
            "type": "t_struct(FixedDecimal)6565_storage"
          }
        ],
        "numberOfBytes": "64"
      },
      "t_struct(Data)6841_storage": {
        "encoding": "inplace",
        "label": "struct AlchemistVault.Data",
        "members": [
          {
            "astId": 6838,
            "contract": "contracts/Alchemist.sol:Alchemist",
            "label": "adapter",
            "offset": 0,
            "slot": "0",
            "type": "t_contract(IVaultAdapter)6215"
          },
          {
            "astId": 6840,
            "contract": "contracts/Alchemist.sol:Alchemist",
            "label": "totalDeposited",
            "offset": 0,
            "slot": "1",
            "type": "t_uint256"
          }
        ],
        "numberOfBytes": "64"
      },
      "t_struct(Data)7240_storage": {
        "encoding": "inplace",
        "label": "struct CDP.Data",
        "members": [
          {
            "astId": 7231,
            "contract": "contracts/Alchemist.sol:Alchemist",
            "label": "totalDeposited",
            "offset": 0,
            "slot": "0",
            "type": "t_uint256"
          },
          {
            "astId": 7233,
            "contract": "contracts/Alchemist.sol:Alchemist",
            "label": "totalDebt",
            "offset": 0,
            "slot": "1",
            "type": "t_uint256"
          },
          {
            "astId": 7235,
            "contract": "contracts/Alchemist.sol:Alchemist",
            "label": "totalCredit",
            "offset": 0,
            "slot": "2",
            "type": "t_uint256"
          },
          {
            "astId": 7237,
            "contract": "contracts/Alchemist.sol:Alchemist",
            "label": "lastDeposit",
            "offset": 0,
            "slot": "3",
            "type": "t_uint256"
          },
          {
            "astId": 7239,
            "contract": "contracts/Alchemist.sol:Alchemist",
            "label": "lastAccumulatedYieldWeight",
            "offset": 0,
            "slot": "4",
            "type": "t_struct(FixedDecimal)6565_storage"
          }
        ],
        "numberOfBytes": "160"
      },
      "t_struct(FixedDecimal)6565_storage": {
        "encoding": "inplace",
        "label": "struct FixedPointMath.FixedDecimal",
        "members": [
          {
            "astId": 6564,
            "contract": "contracts/Alchemist.sol:Alchemist",
            "label": "x",
            "offset": 0,
            "slot": "0",
            "type": "t_uint256"
          }
        ],
        "numberOfBytes": "32"
      },
      "t_struct(List)6845_storage": {
        "encoding": "inplace",
        "label": "struct AlchemistVault.List",
        "members": [
          {
            "astId": 6844,
            "contract": "contracts/Alchemist.sol:Alchemist",
            "label": "elements",
            "offset": 0,
            "slot": "0",
            "type": "t_array(t_struct(Data)6841_storage)dyn_storage"
          }
        ],
        "numberOfBytes": "32"
      },
      "t_uint256": {
        "encoding": "inplace",
        "label": "uint256",
        "numberOfBytes": "32"
      }
    }
  }
}