{
  "address": "0xe1Fd27F4390DcBE165f4D60DBF821e4B9Bb02dEd",
  "abi": [
    {
      "inputs": [
        {
          "internalType": "address",
          "name": "_token",
          "type": "address"
        }
      ],
      "name": "balanceOf",
      "outputs": [
        {
          "internalType": "uint256",
          "name": "",
          "type": "uint256"
        }
      ],
      "stateMutability": "view",
      "type": "function"
    },
    {
      "inputs": [],
      "name": "blackhole",
      "outputs": [
        {
          "internalType": "address",
          "name": "",
          "type": "address"
        }
      ],
      "stateMutability": "view",
      "type": "function"
    },
    {
      "inputs": [
        {
          "internalType": "address",
          "name": "_token",
          "type": "address"
        },
        {
          "internalType": "uint256",
          "name": "_amount",
          "type": "uint256"
        }
      ],
      "name": "earn",
      "outputs": [],
      "stateMutability": "nonpayable",
      "type": "function"
    },
    {
      "inputs": [
        {
          "internalType": "uint256",
          "name": "_withdrawalFee",
          "type": "uint256"
        }
      ],
      "name": "setWithdrawalFee",
      "outputs": [],
      "stateMutability": "nonpayable",
      "type": "function"
    },
    {
      "inputs": [
        {
          "internalType": "address",
          "name": "_token",
          "type": "address"
        },
        {
          "internalType": "uint256",
          "name": "_amount",
          "type": "uint256"
        }
      ],
      "name": "withdraw",
      "outputs": [],
      "stateMutability": "nonpayable",
      "type": "function"
    },
    {
      "inputs": [],
      "name": "withdrawalFee",
      "outputs": [
        {
          "internalType": "uint256",
          "name": "",
          "type": "uint256"
        }
      ],
      "stateMutability": "view",
      "type": "function"
    },
    {
      "inputs": [],
      "name": "withdrawalMax",
      "outputs": [
        {
          "internalType": "uint256",
          "name": "",
          "type": "uint256"
        }
      ],
      "stateMutability": "view",
      "type": "function"
    }
  ],
  "transactionHash": "0xa5e07e0acc60c42fd3d44f947568b75836df07b82a89a0f7e24ea05bcb295bb6",
  "args": [],
  "solcInputHash": "e28779e1c6fa97393b5bc15b8c643560",
  "bytecode": "0x6080604052603260005534801561001557600080fd5b5061083a806100256000396000f3fe608060405234801561001057600080fd5b506004361061007d5760003560e01c8063b02bf4b91161005b578063b02bf4b9146100c8578063d5c1ff73146100db578063f34447f7146100e3578063f3fef3a3146100f85761007d565b806370a08231146100825780638bc7e8c4146100ab578063ac1e5025146100b3575b600080fd5b610095610090366004610591565b61010b565b6040516100a291906107cb565b60405180910390f35b6100956101b6565b6100c66100c13660046105f6565b6101bc565b005b6100c66100d63660046105ac565b6101c1565b6100956101c5565b6100eb6101cb565b6040516100a29190610642565b6100c66101063660046105ac565b6101d1565b6040517f70a0823100000000000000000000000000000000000000000000000000000000815260009073ffffffffffffffffffffffffffffffffffffffff8316906370a0823190610160903090600401610642565b60206040518083038186803b15801561017857600080fd5b505afa15801561018c573d6000803e3d6000fd5b505050506040513d601f19601f820116820180604052508101906101b0919061060e565b92915050565b60005481565b600055565b5050565b61271081565b61dead81565b6040517f70a0823100000000000000000000000000000000000000000000000000000000815260009073ffffffffffffffffffffffffffffffffffffffff8416906370a0823190610226903090600401610642565b60206040518083038186803b15801561023e57600080fd5b505afa158015610252573d6000803e3d6000fd5b505050506040513d601f19601f82011682018060405250810190610276919061060e565b905061029973ffffffffffffffffffffffffffffffffffffffff8416338461029e565b505050565b6102998363a9059cbb60e01b84846040516024016102bd929190610663565b604080517fffffffffffffffffffffffffffffffffffffffffffffffffffffffffffffffe08184030181529190526020810180517bffffffffffffffffffffffffffffffffffffffffffffffffffffffff167fffffffff0000000000000000000000000000000000000000000000000000000090931692909217909152606061039c826040518060400160405280602081526020017f5361666545524332303a206c6f772d6c6576656c2063616c6c206661696c65648152508573ffffffffffffffffffffffffffffffffffffffff166103f99092919063ffffffff16565b80519091501561029957808060200190518101906103ba91906105d6565b610299576040517f08c379a00000000000000000000000000000000000000000000000000000000081526004016103f09061076e565b60405180910390fd5b60606104088484600085610412565b90505b9392505050565b60608247101561044e576040517f08c379a00000000000000000000000000000000000000000000000000000000081526004016103f0906106da565b61045785610514565b61048d576040517f08c379a00000000000000000000000000000000000000000000000000000000081526004016103f090610737565b600060608673ffffffffffffffffffffffffffffffffffffffff1685876040516104b79190610626565b60006040518083038185875af1925050503d80600081146104f4576040519150601f19603f3d011682016040523d82523d6000602084013e6104f9565b606091505b509150915061050982828661051a565b979650505050505050565b3b151590565b6060831561052957508161040b565b8251156105395782518084602001fd5b816040517f08c379a00000000000000000000000000000000000000000000000000000000081526004016103f09190610689565b803573ffffffffffffffffffffffffffffffffffffffff811681146101b057600080fd5b6000602082840312156105a2578081fd5b61040b838361056d565b600080604083850312156105be578081fd5b6105c8848461056d565b946020939093013593505050565b6000602082840312156105e7578081fd5b8151801515811461040b578182fd5b600060208284031215610607578081fd5b5035919050565b60006020828403121561061f578081fd5b5051919050565b600082516106388184602087016107d4565b9190910192915050565b73ffffffffffffffffffffffffffffffffffffffff91909116815260200190565b73ffffffffffffffffffffffffffffffffffffffff929092168252602082015260400190565b60006020825282518060208401526106a88160408501602087016107d4565b601f017fffffffffffffffffffffffffffffffffffffffffffffffffffffffffffffffe0169190910160400192915050565b60208082526026908201527f416464726573733a20696e73756666696369656e742062616c616e636520666f60408201527f722063616c6c0000000000000000000000000000000000000000000000000000606082015260800190565b6020808252601d908201527f416464726573733a2063616c6c20746f206e6f6e2d636f6e7472616374000000604082015260600190565b6020808252602a908201527f5361666545524332303a204552433230206f7065726174696f6e20646964206e60408201527f6f74207375636365656400000000000000000000000000000000000000000000606082015260800190565b90815260200190565b60005b838110156107ef5781810151838201526020016107d7565b838111156107fe576000848401525b5050505056fea2646970667358221220f17001111cc6e10f898d4df6301d82bd58813cbbb0bdb347914507850994a04864736f6c634300060c0033",
  "devdoc": {
    "kind": "dev",
    "methods": {},
    "version": 1
  },
  "userdoc": {
    "kind": "user",
    "methods": {},
    "version": 1
  },
  "storageLayout": {
    "storage": [
      {
        "astId": 7649,
        "contract": "contracts/mocks/YearnControllerMock.sol:YearnControllerMock",
        "label": "withdrawalFee",
        "offset": 0,
        "slot": "0",
        "type": "t_uint256"
      }
    ],
    "types": {
      "t_uint256": {
        "encoding": "inplace",
        "label": "uint256",
        "numberOfBytes": "32"
      }
    }
  }
}