{
  "address": "0x5d91249f82bdA2bca718Ac4766C13C0D831C98A9",
  "abi": [
    {
      "inputs": [
        {
          "internalType": "contract IDetailedERC20",
          "name": "_token",
          "type": "address"
        },
        {
          "internalType": "contract IYearnController",
          "name": "_controller",
          "type": "address"
        }
      ],
      "stateMutability": "nonpayable",
      "type": "constructor"
    },
    {
      "anonymous": false,
      "inputs": [
        {
          "indexed": true,
          "internalType": "address",
          "name": "owner",
          "type": "address"
        },
        {
          "indexed": true,
          "internalType": "address",
          "name": "spender",
          "type": "address"
        },
        {
          "indexed": false,
          "internalType": "uint256",
          "name": "value",
          "type": "uint256"
        }
      ],
      "name": "Approval",
      "type": "event"
    },
    {
      "anonymous": false,
      "inputs": [
        {
          "indexed": true,
          "internalType": "address",
          "name": "from",
          "type": "address"
        },
        {
          "indexed": true,
          "internalType": "address",
          "name": "to",
          "type": "address"
        },
        {
          "indexed": false,
          "internalType": "uint256",
          "name": "value",
          "type": "uint256"
        }
      ],
      "name": "Transfer",
      "type": "event"
    },
    {
      "inputs": [
        {
          "internalType": "address",
          "name": "owner",
          "type": "address"
        },
        {
          "internalType": "address",
          "name": "spender",
          "type": "address"
        }
      ],
      "name": "allowance",
      "outputs": [
        {
          "internalType": "uint256",
          "name": "",
          "type": "uint256"
        }
      ],
      "stateMutability": "view",
      "type": "function"
    },
    {
      "inputs": [
        {
          "internalType": "address",
          "name": "spender",
          "type": "address"
        },
        {
          "internalType": "uint256",
          "name": "amount",
          "type": "uint256"
        }
      ],
      "name": "approve",
      "outputs": [
        {
          "internalType": "bool",
          "name": "",
          "type": "bool"
        }
      ],
      "stateMutability": "nonpayable",
      "type": "function"
    },
    {
      "inputs": [],
      "name": "available",
      "outputs": [
        {
          "internalType": "uint256",
          "name": "",
          "type": "uint256"
        }
      ],
      "stateMutability": "view",
      "type": "function"
    },
    {
      "inputs": [],
      "name": "balance",
      "outputs": [
        {
          "internalType": "uint256",
          "name": "",
          "type": "uint256"
        }
      ],
      "stateMutability": "view",
      "type": "function"
    },
    {
      "inputs": [
        {
          "internalType": "address",
          "name": "account",
          "type": "address"
        }
      ],
      "name": "balanceOf",
      "outputs": [
        {
          "internalType": "uint256",
          "name": "",
          "type": "uint256"
        }
      ],
      "stateMutability": "view",
      "type": "function"
    },
    {
      "inputs": [],
      "name": "clear",
      "outputs": [],
      "stateMutability": "nonpayable",
      "type": "function"
    },
    {
      "inputs": [],
      "name": "controller",
      "outputs": [
        {
          "internalType": "contract IYearnController",
          "name": "",
          "type": "address"
        }
      ],
      "stateMutability": "view",
      "type": "function"
    },
    {
      "inputs": [],
      "name": "decimals",
      "outputs": [
        {
          "internalType": "uint8",
          "name": "",
          "type": "uint8"
        }
      ],
      "stateMutability": "view",
      "type": "function"
    },
    {
      "inputs": [
        {
          "internalType": "address",
          "name": "spender",
          "type": "address"
        },
        {
          "internalType": "uint256",
          "name": "subtractedValue",
          "type": "uint256"
        }
      ],
      "name": "decreaseAllowance",
      "outputs": [
        {
          "internalType": "bool",
          "name": "",
          "type": "bool"
        }
      ],
      "stateMutability": "nonpayable",
      "type": "function"
    },
    {
      "inputs": [
        {
          "internalType": "uint256",
          "name": "_amount",
          "type": "uint256"
        }
      ],
      "name": "deposit",
      "outputs": [
        {
          "internalType": "uint256",
          "name": "",
          "type": "uint256"
        }
      ],
      "stateMutability": "nonpayable",
      "type": "function"
    },
    {
      "inputs": [],
      "name": "earn",
      "outputs": [],
      "stateMutability": "nonpayable",
      "type": "function"
    },
    {
      "inputs": [
        {
          "internalType": "address",
          "name": "spender",
          "type": "address"
        },
        {
          "internalType": "uint256",
          "name": "addedValue",
          "type": "uint256"
        }
      ],
      "name": "increaseAllowance",
      "outputs": [
        {
          "internalType": "bool",
          "name": "",
          "type": "bool"
        }
      ],
      "stateMutability": "nonpayable",
      "type": "function"
    },
    {
      "inputs": [],
      "name": "max",
      "outputs": [
        {
          "internalType": "uint256",
          "name": "",
          "type": "uint256"
        }
      ],
      "stateMutability": "view",
      "type": "function"
    },
    {
      "inputs": [],
      "name": "min",
      "outputs": [
        {
          "internalType": "uint256",
          "name": "",
          "type": "uint256"
        }
      ],
      "stateMutability": "view",
      "type": "function"
    },
    {
      "inputs": [],
      "name": "name",
      "outputs": [
        {
          "internalType": "string",
          "name": "",
          "type": "string"
        }
      ],
      "stateMutability": "view",
      "type": "function"
    },
    {
      "inputs": [],
      "name": "pricePerShare",
      "outputs": [
        {
          "internalType": "uint256",
          "name": "",
          "type": "uint256"
        }
      ],
      "stateMutability": "view",
      "type": "function"
    },
    {
      "inputs": [],
      "name": "symbol",
      "outputs": [
        {
          "internalType": "string",
          "name": "",
          "type": "string"
        }
      ],
      "stateMutability": "view",
      "type": "function"
    },
    {
      "inputs": [],
      "name": "token",
      "outputs": [
        {
          "internalType": "contract IDetailedERC20",
          "name": "",
          "type": "address"
        }
      ],
      "stateMutability": "view",
      "type": "function"
    },
    {
      "inputs": [],
      "name": "totalSupply",
      "outputs": [
        {
          "internalType": "uint256",
          "name": "",
          "type": "uint256"
        }
      ],
      "stateMutability": "view",
      "type": "function"
    },
    {
      "inputs": [
        {
          "internalType": "address",
          "name": "recipient",
          "type": "address"
        },
        {
          "internalType": "uint256",
          "name": "amount",
          "type": "uint256"
        }
      ],
      "name": "transfer",
      "outputs": [
        {
          "internalType": "bool",
          "name": "",
          "type": "bool"
        }
      ],
      "stateMutability": "nonpayable",
      "type": "function"
    },
    {
      "inputs": [
        {
          "internalType": "address",
          "name": "sender",
          "type": "address"
        },
        {
          "internalType": "address",
          "name": "recipient",
          "type": "address"
        },
        {
          "internalType": "uint256",
          "name": "amount",
          "type": "uint256"
        }
      ],
      "name": "transferFrom",
      "outputs": [
        {
          "internalType": "bool",
          "name": "",
          "type": "bool"
        }
      ],
      "stateMutability": "nonpayable",
      "type": "function"
    },
    {
      "inputs": [],
      "name": "vdecimals",
      "outputs": [
        {
          "internalType": "uint8",
          "name": "",
          "type": "uint8"
        }
      ],
      "stateMutability": "view",
      "type": "function"
    },
    {
      "inputs": [
        {
          "internalType": "uint256",
          "name": "_shares",
          "type": "uint256"
        },
        {
          "internalType": "address",
          "name": "_recipient",
          "type": "address"
        }
      ],
      "name": "withdraw",
      "outputs": [
        {
          "internalType": "uint256",
          "name": "",
          "type": "uint256"
        }
      ],
      "stateMutability": "nonpayable",
      "type": "function"
    }
  ],
  "transactionHash": "0xeacedc0eb77640a5813683a53550d9dc668dae16d890e1f9012787db86122279",
  "args": [
    "0x6dB53Ed036135f2c299d54353b2ae7e748a85628",
    "0xAe4DbeC66a2C34b816C38Ecc1B34AEA537aaC400"
  ],
  "solcInputHash": "20923e0b5f6e5e3163a7e1ebc3ad7440",
  "bytecode": "0x608060405261251c6006553480156200001757600080fd5b5060405162002225380380620022258339810160408190526200003a916200017d565b604080518082018252600a815269794561726e204d6f636b60b01b602080830191825283518085019094526005845264794d4f434b60d81b9084015281519192916200008991600391620000e1565b5080516200009f906004906020840190620000e1565b50506005805460ff1916601217905550600880546001600160a01b039384166001600160a01b03199182161790915560078054929093169116179055620001d4565b828054600181600116156101000203166002900490600052602060002090601f016020900481019282601f106200012457805160ff191683800117855562000154565b8280016001018555821562000154579182015b828111156200015457825182559160200191906001019062000137565b506200016292915062000166565b5090565b5b8082111562000162576000815560010162000167565b6000806040838503121562000190578182fd5b82516200019d81620001bb565b6020840151909250620001b081620001bb565b809150509250929050565b6001600160a01b0381168114620001d157600080fd5b50565b61204180620001e46000396000f3fe608060405234801561001057600080fd5b506004361061018c5760003560e01c806370a08231116100e3578063b6b55f251161008c578063f77c479111610066578063f77c4791146102d3578063f8897945146102e8578063fc0c546a146102f05761018c565b8063b6b55f25146102a5578063d389800f146102b8578063dd62ed3e146102c05761018c565b8063a457c2d7116100bd578063a457c2d714610277578063a9059cbb1461028a578063b69ef8a81461029d5761018c565b806370a082311461025457806395d89b411461026757806399530b061461026f5761018c565b80632fea88d41161014557806348a0d7541161011f57806348a0d7541461023a57806352efea6e146102425780636ac5db191461024c5761018c565b80632fea88d41461020a578063313ce5671461021f57806339509351146102275761018c565b8063095ea7b311610176578063095ea7b3146101cf57806318160ddd146101ef57806323b872dd146101f75761018c565b8062f714ce1461019157806306fdde03146101ba575b600080fd5b6101a461019f366004611a00565b6102f8565b6040516101b19190611f0e565b60405180910390f35b6101c2610575565b6040516101b19190611ac2565b6101e26101dd366004611986565b610629565b6040516101b19190611ab7565b6101a4610647565b6101e2610205366004611946565b61064d565b6102126106ef565b6040516101b19190611f17565b6102126106fe565b6101e2610235366004611986565b610707565b6101a4610762565b61024a610819565b005b6101a46109ec565b6101a46102623660046118f7565b6109f2565b6101c2610a1a565b6101a4610a99565b6101e2610285366004611986565b610aba565b6101e2610298366004611986565b610b2f565b6101a4610b43565b6101a46102b33660046119d0565b610c9f565b61024a610e74565b6101a46102ce366004611912565b610f3c565b6102db610f74565b6040516101b19190611a3f565b6101a4610f90565b6102db610f96565b60008061031e610306610647565b61031886610312610b43565b90610fb2565b9061100f565b905061032a338561105b565b6008546040517f70a0823100000000000000000000000000000000000000000000000000000000815260009173ffffffffffffffffffffffffffffffffffffffff16906370a0823190610381903090600401611a3f565b60206040518083038186803b15801561039957600080fd5b505afa1580156103ad573d6000803e3d6000fd5b505050506040513d601f19601f820116820180604052508101906103d191906119e8565b9050818110156105495760006103e7838361118b565b6007546008546040517ff3fef3a300000000000000000000000000000000000000000000000000000000815292935073ffffffffffffffffffffffffffffffffffffffff9182169263f3fef3a3926104459216908590600401611a91565b600060405180830381600087803b15801561045f57600080fd5b505af1158015610473573d6000803e3d6000fd5b50506008546040517f70a082310000000000000000000000000000000000000000000000000000000081526000935073ffffffffffffffffffffffffffffffffffffffff90911691506370a08231906104d0903090600401611a3f565b60206040518083038186803b1580156104e857600080fd5b505afa1580156104fc573d6000803e3d6000fd5b505050506040513d601f19601f8201168201806040525081019061052091906119e8565b9050600061052e828561118b565b9050828110156105455761054284826111cd565b94505b5050505b60085461056d9073ffffffffffffffffffffffffffffffffffffffff16858461120c565b505092915050565b60038054604080516020601f60027fffffffffffffffffffffffffffffffffffffffffffffffffffffffffffffffff61010060018816150201909516949094049384018190048102820181019092528281526060939092909183018282801561061f5780601f106105f45761010080835404028352916020019161061f565b820191906000526020600020905b81548152906001019060200180831161060257829003601f168201915b5050505050905090565b600061063d6106366112b2565b84846112b6565b5060015b92915050565b60025490565b600061065a8484846113c5565b6106e4846106666112b2565b6106df85604051806060016040528060288152602001611fbf6028913973ffffffffffffffffffffffffffffffffffffffff8a166000908152600160205260408120906106b16112b2565b73ffffffffffffffffffffffffffffffffffffffff168152602081019190915260400160002054919061154f565b6112b6565b5060015b9392505050565b60006106f96106fe565b905090565b60055460ff1690565b600061063d6107146112b2565b846106df85600160006107256112b2565b73ffffffffffffffffffffffffffffffffffffffff908116825260208083019390935260409182016000908120918c1681529252902054906111cd565b6006546008546040517f70a082310000000000000000000000000000000000000000000000000000000081526000926106f99261271092610318929173ffffffffffffffffffffffffffffffffffffffff16906370a08231906107c9903090600401611a3f565b60206040518083038186803b1580156107e157600080fd5b505afa1580156107f5573d6000803e3d6000fd5b505050506040513d601f19601f8201168201806040525081019061031291906119e8565b6007546008546040517f70a082310000000000000000000000000000000000000000000000000000000081526108e89273ffffffffffffffffffffffffffffffffffffffff9081169216906370a0823190610878903090600401611a3f565b60206040518083038186803b15801561089057600080fd5b505afa1580156108a4573d6000803e3d6000fd5b505050506040513d601f19601f820116820180604052508101906108c891906119e8565b60085473ffffffffffffffffffffffffffffffffffffffff16919061120c565b6007546008546040517f70a0823100000000000000000000000000000000000000000000000000000000815273ffffffffffffffffffffffffffffffffffffffff9283169263b02bf4b992169081906370a082319061094b903090600401611a3f565b60206040518083038186803b15801561096357600080fd5b505afa158015610977573d6000803e3d6000fd5b505050506040513d601f19601f8201168201806040525081019061099b91906119e8565b6040518363ffffffff1660e01b81526004016109b8929190611a91565b600060405180830381600087803b1580156109d257600080fd5b505af11580156109e6573d6000803e3d6000fd5b50505050565b61271081565b73ffffffffffffffffffffffffffffffffffffffff1660009081526020819052604090205490565b60048054604080516020601f60027fffffffffffffffffffffffffffffffffffffffffffffffffffffffffffffffff61010060018816150201909516949094049384018190048102820181019092528281526060939092909183018282801561061f5780601f106105f45761010080835404028352916020019161061f565b60006106f9610aa6610647565b610318670de0b6b3a7640000610312610b43565b600061063d610ac76112b2565b846106df85604051806060016040528060258152602001611fe76025913960016000610af16112b2565b73ffffffffffffffffffffffffffffffffffffffff908116825260208083019390935260409182016000908120918d1681529252902054919061154f565b600061063d610b3c6112b2565b84846113c5565b6007546008546040517f70a082310000000000000000000000000000000000000000000000000000000081526000926106f99273ffffffffffffffffffffffffffffffffffffffff918216926370a0823192610ba3921690600401611a3f565b60206040518083038186803b158015610bbb57600080fd5b505afa158015610bcf573d6000803e3d6000fd5b505050506040513d601f19601f82011682018060405250810190610bf391906119e8565b6008546040517f70a0823100000000000000000000000000000000000000000000000000000000815273ffffffffffffffffffffffffffffffffffffffff909116906370a0823190610c49903090600401611a3f565b60206040518083038186803b158015610c6157600080fd5b505afa158015610c75573d6000803e3d6000fd5b505050506040513d601f19601f82011682018060405250810190610c9991906119e8565b906111cd565b600080610caa610b43565b6008546040517f70a0823100000000000000000000000000000000000000000000000000000000815291925060009173ffffffffffffffffffffffffffffffffffffffff909116906370a0823190610d06903090600401611a3f565b60206040518083038186803b158015610d1e57600080fd5b505afa158015610d32573d6000803e3d6000fd5b505050506040513d601f19601f82011682018060405250810190610d5691906119e8565b600854909150610d7e9073ffffffffffffffffffffffffffffffffffffffff16333087611595565b6008546040517f70a0823100000000000000000000000000000000000000000000000000000000815260009173ffffffffffffffffffffffffffffffffffffffff16906370a0823190610dd5903090600401611a3f565b60206040518083038186803b158015610ded57600080fd5b505afa158015610e01573d6000803e3d6000fd5b505050506040513d601f19601f82011682018060405250810190610e2591906119e8565b9050610e31818361118b565b94506000610e3d610647565b610e48575084610e61565b610e5e84610318610e57610647565b8990610fb2565b90505b610e6b33826115b6565b50505050919050565b6000610e7e610762565b600754600854919250610eab9173ffffffffffffffffffffffffffffffffffffffff90811691168361120c565b6007546008546040517fb02bf4b900000000000000000000000000000000000000000000000000000000815273ffffffffffffffffffffffffffffffffffffffff9283169263b02bf4b992610f07929116908590600401611a91565b600060405180830381600087803b158015610f2157600080fd5b505af1158015610f35573d6000803e3d6000fd5b5050505050565b73ffffffffffffffffffffffffffffffffffffffff918216600090815260016020908152604080832093909416825291909152205490565b60075473ffffffffffffffffffffffffffffffffffffffff1681565b60065481565b60085473ffffffffffffffffffffffffffffffffffffffff1681565b600082610fc157506000610641565b82820282848281610fce57fe5b04146106e8576040517f08c379a000000000000000000000000000000000000000000000000000000000815260040161100690611ccf565b60405180910390fd5b600080821161104a576040517f08c379a000000000000000000000000000000000000000000000000000000000815260040161100690611c98565b81838161105357fe5b049392505050565b73ffffffffffffffffffffffffffffffffffffffff82166110a8576040517f08c379a000000000000000000000000000000000000000000000000000000000815260040161100690611d2c565b6110b4826000836112ad565b6110fe81604051806060016040528060228152602001611f776022913973ffffffffffffffffffffffffffffffffffffffff8516600090815260208190526040902054919061154f565b73ffffffffffffffffffffffffffffffffffffffff8316600090815260208190526040902055600254611131908261118b565b60025560405160009073ffffffffffffffffffffffffffffffffffffffff8416907fddf252ad1be2c89b69c2b068fc378daa952ba7f163c4a11628f55a4df523b3ef9061117f908590611f0e565b60405180910390a35050565b6000828211156111c7576040517f08c379a000000000000000000000000000000000000000000000000000000000815260040161100690611c04565b50900390565b6000828201838110156106e8576040517f08c379a000000000000000000000000000000000000000000000000000000000815260040161100690611bcd565b6112ad8363a9059cbb60e01b848460405160240161122b929190611a91565b604080517fffffffffffffffffffffffffffffffffffffffffffffffffffffffffffffffe08184030181529190526020810180517bffffffffffffffffffffffffffffffffffffffffffffffffffffffff167fffffffff00000000000000000000000000000000000000000000000000000000909316929092179091526116ab565b505050565b3390565b73ffffffffffffffffffffffffffffffffffffffff8316611303576040517f08c379a000000000000000000000000000000000000000000000000000000000815260040161100690611de6565b73ffffffffffffffffffffffffffffffffffffffff8216611350576040517f08c379a000000000000000000000000000000000000000000000000000000000815260040161100690611b70565b73ffffffffffffffffffffffffffffffffffffffff80841660008181526001602090815260408083209487168084529490915290819020849055517f8c5be1e5ebec7d5bd14f71427d1e84f3dd0314c0f7b2291e5b200ac8c7c3b925906113b8908590611f0e565b60405180910390a3505050565b73ffffffffffffffffffffffffffffffffffffffff8316611412576040517f08c379a000000000000000000000000000000000000000000000000000000000815260040161100690611d89565b73ffffffffffffffffffffffffffffffffffffffff821661145f576040517f08c379a000000000000000000000000000000000000000000000000000000000815260040161100690611b13565b61146a8383836112ad565b6114b481604051806060016040528060268152602001611f996026913973ffffffffffffffffffffffffffffffffffffffff8616600090815260208190526040902054919061154f565b73ffffffffffffffffffffffffffffffffffffffff80851660009081526020819052604080822093909355908416815220546114f090826111cd565b73ffffffffffffffffffffffffffffffffffffffff80841660008181526020819052604090819020939093559151908516907fddf252ad1be2c89b69c2b068fc378daa952ba7f163c4a11628f55a4df523b3ef906113b8908590611f0e565b6000818484111561158d576040517f08c379a00000000000000000000000000000000000000000000000000000000081526004016110069190611ac2565b505050900390565b6109e6846323b872dd60e01b85858560405160240161122b93929190611a60565b73ffffffffffffffffffffffffffffffffffffffff8216611603576040517f08c379a000000000000000000000000000000000000000000000000000000000815260040161100690611ed7565b61160f600083836112ad565b60025461161c90826111cd565b60025573ffffffffffffffffffffffffffffffffffffffff821660009081526020819052604090205461164f90826111cd565b73ffffffffffffffffffffffffffffffffffffffff83166000818152602081905260408082209390935591519091907fddf252ad1be2c89b69c2b068fc378daa952ba7f163c4a11628f55a4df523b3ef9061117f908590611f0e565b606061170d826040518060400160405280602081526020017f5361666545524332303a206c6f772d6c6576656c2063616c6c206661696c65648152508573ffffffffffffffffffffffffffffffffffffffff166117619092919063ffffffff16565b8051909150156112ad578080602001905181019061172b91906119b0565b6112ad576040517f08c379a000000000000000000000000000000000000000000000000000000000815260040161100690611e7a565b60606117708484600085611778565b949350505050565b6060824710156117b4576040517f08c379a000000000000000000000000000000000000000000000000000000000815260040161100690611c3b565b6117bd8561187a565b6117f3576040517f08c379a000000000000000000000000000000000000000000000000000000000815260040161100690611e43565b600060608673ffffffffffffffffffffffffffffffffffffffff16858760405161181d9190611a23565b60006040518083038185875af1925050503d806000811461185a576040519150601f19603f3d011682016040523d82523d6000602084013e61185f565b606091505b509150915061186f828286611880565b979650505050505050565b3b151590565b6060831561188f5750816106e8565b82511561189f5782518084602001fd5b816040517f08c379a00000000000000000000000000000000000000000000000000000000081526004016110069190611ac2565b803573ffffffffffffffffffffffffffffffffffffffff8116811461064157600080fd5b600060208284031215611908578081fd5b6106e883836118d3565b60008060408385031215611924578081fd5b61192e84846118d3565b915061193d84602085016118d3565b90509250929050565b60008060006060848603121561195a578081fd5b833561196581611f51565b9250602084013561197581611f51565b929592945050506040919091013590565b60008060408385031215611998578182fd5b6119a284846118d3565b946020939093013593505050565b6000602082840312156119c1578081fd5b815180151581146106e8578182fd5b6000602082840312156119e1578081fd5b5035919050565b6000602082840312156119f9578081fd5b5051919050565b60008060408385031215611a12578182fd5b8235915061193d84602085016118d3565b60008251611a35818460208701611f25565b9190910192915050565b73ffffffffffffffffffffffffffffffffffffffff91909116815260200190565b73ffffffffffffffffffffffffffffffffffffffff9384168152919092166020820152604081019190915260600190565b73ffffffffffffffffffffffffffffffffffffffff929092168252602082015260400190565b901515815260200190565b6000602082528251806020840152611ae1816040850160208701611f25565b601f017fffffffffffffffffffffffffffffffffffffffffffffffffffffffffffffffe0169190910160400192915050565b60208082526023908201527f45524332303a207472616e7366657220746f20746865207a65726f206164647260408201527f6573730000000000000000000000000000000000000000000000000000000000606082015260800190565b60208082526022908201527f45524332303a20617070726f766520746f20746865207a65726f20616464726560408201527f7373000000000000000000000000000000000000000000000000000000000000606082015260800190565b6020808252601b908201527f536166654d6174683a206164646974696f6e206f766572666c6f770000000000604082015260600190565b6020808252601e908201527f536166654d6174683a207375627472616374696f6e206f766572666c6f770000604082015260600190565b60208082526026908201527f416464726573733a20696e73756666696369656e742062616c616e636520666f60408201527f722063616c6c0000000000000000000000000000000000000000000000000000606082015260800190565b6020808252601a908201527f536166654d6174683a206469766973696f6e206279207a65726f000000000000604082015260600190565b60208082526021908201527f536166654d6174683a206d756c7469706c69636174696f6e206f766572666c6f60408201527f7700000000000000000000000000000000000000000000000000000000000000606082015260800190565b60208082526021908201527f45524332303a206275726e2066726f6d20746865207a65726f2061646472657360408201527f7300000000000000000000000000000000000000000000000000000000000000606082015260800190565b60208082526025908201527f45524332303a207472616e736665722066726f6d20746865207a65726f20616460408201527f6472657373000000000000000000000000000000000000000000000000000000606082015260800190565b60208082526024908201527f45524332303a20617070726f76652066726f6d20746865207a65726f2061646460408201527f7265737300000000000000000000000000000000000000000000000000000000606082015260800190565b6020808252601d908201527f416464726573733a2063616c6c20746f206e6f6e2d636f6e7472616374000000604082015260600190565b6020808252602a908201527f5361666545524332303a204552433230206f7065726174696f6e20646964206e60408201527f6f74207375636365656400000000000000000000000000000000000000000000606082015260800190565b6020808252601f908201527f45524332303a206d696e7420746f20746865207a65726f206164647265737300604082015260600190565b90815260200190565b60ff91909116815260200190565b60005b83811015611f40578181015183820152602001611f28565b838111156109e65750506000910152565b73ffffffffffffffffffffffffffffffffffffffff81168114611f7357600080fd5b5056fe45524332303a206275726e20616d6f756e7420657863656564732062616c616e636545524332303a207472616e7366657220616d6f756e7420657863656564732062616c616e636545524332303a207472616e7366657220616d6f756e74206578636565647320616c6c6f77616e636545524332303a2064656372656173656420616c6c6f77616e63652062656c6f77207a65726fa2646970667358221220437178c0002b225586df8995b112b4a18d6350623237d5faaad4b1e0c845bab464736f6c634300060c0033",
  "devdoc": {
    "kind": "dev",
    "methods": {
      "allowance(address,address)": {
        "details": "See {IERC20-allowance}."
      },
      "approve(address,uint256)": {
        "details": "See {IERC20-approve}. Requirements: - `spender` cannot be the zero address."
      },
      "balanceOf(address)": {
        "details": "See {IERC20-balanceOf}."
      },
      "clear()": {
        "details": "This is not part of the vault contract and is meant for quick debugging contracts to have control over completely clearing the vault buffer to test certain behaviors better."
      },
      "decimals()": {
        "details": "Returns the number of decimals used to get its user representation. For example, if `decimals` equals `2`, a balance of `505` tokens should be displayed to a user as `5,05` (`505 / 10 ** 2`). Tokens usually opt for a value of 18, imitating the relationship between Ether and Wei. This is the value {ERC20} uses, unless {_setupDecimals} is called. NOTE: This information is only used for _display_ purposes: it in no way affects any of the arithmetic of the contract, including {IERC20-balanceOf} and {IERC20-transfer}."
      },
      "decreaseAllowance(address,uint256)": {
        "details": "Atomically decreases the allowance granted to `spender` by the caller. This is an alternative to {approve} that can be used as a mitigation for problems described in {IERC20-approve}. Emits an {Approval} event indicating the updated allowance. Requirements: - `spender` cannot be the zero address. - `spender` must have allowance for the caller of at least `subtractedValue`."
      },
      "increaseAllowance(address,uint256)": {
        "details": "Atomically increases the allowance granted to `spender` by the caller. This is an alternative to {approve} that can be used as a mitigation for problems described in {IERC20-approve}. Emits an {Approval} event indicating the updated allowance. Requirements: - `spender` cannot be the zero address."
      },
      "name()": {
        "details": "Returns the name of the token."
      },
      "symbol()": {
        "details": "Returns the symbol of the token, usually a shorter version of the name."
      },
      "totalSupply()": {
        "details": "See {IERC20-totalSupply}."
      },
      "transfer(address,uint256)": {
        "details": "See {IERC20-transfer}. Requirements: - `recipient` cannot be the zero address. - the caller must have a balance of at least `amount`."
      },
      "transferFrom(address,address,uint256)": {
        "details": "See {IERC20-transferFrom}. Emits an {Approval} event indicating the updated allowance. This is not required by the EIP. See the note at the beginning of {ERC20}. Requirements: - `sender` and `recipient` cannot be the zero address. - `sender` must have a balance of at least `amount`. - the caller must have allowance for ``sender``'s tokens of at least `amount`."
      }
    },
    "version": 1
  },
  "userdoc": {
    "kind": "user",
    "methods": {},
    "version": 1
  },
  "storageLayout": {
    "storage": [
      {
        "astId": 837,
        "contract": "contracts/mocks/YearnVaultMock.sol:YearnVaultMock",
        "label": "_balances",
        "offset": 0,
        "slot": "0",
        "type": "t_mapping(t_address,t_uint256)"
      },
      {
        "astId": 843,
        "contract": "contracts/mocks/YearnVaultMock.sol:YearnVaultMock",
        "label": "_allowances",
        "offset": 0,
        "slot": "1",
        "type": "t_mapping(t_address,t_mapping(t_address,t_uint256))"
      },
      {
        "astId": 845,
        "contract": "contracts/mocks/YearnVaultMock.sol:YearnVaultMock",
        "label": "_totalSupply",
        "offset": 0,
        "slot": "2",
        "type": "t_uint256"
      },
      {
        "astId": 847,
        "contract": "contracts/mocks/YearnVaultMock.sol:YearnVaultMock",
        "label": "_name",
        "offset": 0,
        "slot": "3",
        "type": "t_string_storage"
      },
      {
        "astId": 849,
        "contract": "contracts/mocks/YearnVaultMock.sol:YearnVaultMock",
        "label": "_symbol",
        "offset": 0,
        "slot": "4",
        "type": "t_string_storage"
      },
      {
        "astId": 851,
        "contract": "contracts/mocks/YearnVaultMock.sol:YearnVaultMock",
        "label": "_decimals",
        "offset": 0,
        "slot": "5",
        "type": "t_uint8"
      },
      {
        "astId": 10153,
        "contract": "contracts/mocks/YearnVaultMock.sol:YearnVaultMock",
        "label": "min",
        "offset": 0,
        "slot": "6",
        "type": "t_uint256"
      },
      {
        "astId": 10158,
        "contract": "contracts/mocks/YearnVaultMock.sol:YearnVaultMock",
        "label": "controller",
        "offset": 0,
        "slot": "7",
        "type": "t_contract(IYearnController)8415"
      },
      {
        "astId": 10160,
        "contract": "contracts/mocks/YearnVaultMock.sol:YearnVaultMock",
        "label": "token",
        "offset": 0,
        "slot": "8",
        "type": "t_contract(IDetailedERC20)8207"
      }
    ],
    "types": {
      "t_address": {
        "encoding": "inplace",
        "label": "address",
        "numberOfBytes": "20"
      },
      "t_contract(IDetailedERC20)8207": {
        "encoding": "inplace",
        "label": "contract IDetailedERC20",
        "numberOfBytes": "20"
      },
      "t_contract(IYearnController)8415": {
        "encoding": "inplace",
        "label": "contract IYearnController",
        "numberOfBytes": "20"
      },
      "t_mapping(t_address,t_mapping(t_address,t_uint256))": {
        "encoding": "mapping",
        "key": "t_address",
        "label": "mapping(address => mapping(address => uint256))",
        "numberOfBytes": "32",
        "value": "t_mapping(t_address,t_uint256)"
      },
      "t_mapping(t_address,t_uint256)": {
        "encoding": "mapping",
        "key": "t_address",
        "label": "mapping(address => uint256)",
        "numberOfBytes": "32",
        "value": "t_uint256"
      },
      "t_string_storage": {
        "encoding": "bytes",
        "label": "string",
        "numberOfBytes": "32"
      },
      "t_uint256": {
        "encoding": "inplace",
        "label": "uint256",
        "numberOfBytes": "32"
      },
      "t_uint8": {
        "encoding": "inplace",
        "label": "uint8",
        "numberOfBytes": "1"
      }
    }
  }
}