{
  "address": "0xFb76dC89dE98eC87B4Dd24d30b8fcFfEa53729f0",
  "abi": [
    {
      "inputs": [],
      "stateMutability": "nonpayable",
      "type": "constructor"
    },
    {
      "anonymous": false,
      "inputs": [
        {
          "indexed": true,
          "internalType": "address",
          "name": "owner",
          "type": "address"
        },
        {
          "indexed": true,
          "internalType": "address",
          "name": "spender",
          "type": "address"
        },
        {
          "indexed": false,
          "internalType": "uint256",
          "name": "value",
          "type": "uint256"
        }
      ],
      "name": "Approval",
      "type": "event"
    },
    {
      "anonymous": false,
      "inputs": [
        {
          "indexed": false,
          "internalType": "address",
          "name": "alchemistAddress",
          "type": "address"
        },
        {
          "indexed": false,
          "internalType": "bool",
          "name": "isPaused",
          "type": "bool"
        }
      ],
      "name": "Paused",
      "type": "event"
    },
    {
      "anonymous": false,
      "inputs": [
        {
          "indexed": true,
          "internalType": "bytes32",
          "name": "role",
          "type": "bytes32"
        },
        {
          "indexed": true,
          "internalType": "bytes32",
          "name": "previousAdminRole",
          "type": "bytes32"
        },
        {
          "indexed": true,
          "internalType": "bytes32",
          "name": "newAdminRole",
          "type": "bytes32"
        }
      ],
      "name": "RoleAdminChanged",
      "type": "event"
    },
    {
      "anonymous": false,
      "inputs": [
        {
          "indexed": true,
          "internalType": "bytes32",
          "name": "role",
          "type": "bytes32"
        },
        {
          "indexed": true,
          "internalType": "address",
          "name": "account",
          "type": "address"
        },
        {
          "indexed": true,
          "internalType": "address",
          "name": "sender",
          "type": "address"
        }
      ],
      "name": "RoleGranted",
      "type": "event"
    },
    {
      "anonymous": false,
      "inputs": [
        {
          "indexed": true,
          "internalType": "bytes32",
          "name": "role",
          "type": "bytes32"
        },
        {
          "indexed": true,
          "internalType": "address",
          "name": "account",
          "type": "address"
        },
        {
          "indexed": true,
          "internalType": "address",
          "name": "sender",
          "type": "address"
        }
      ],
      "name": "RoleRevoked",
      "type": "event"
    },
    {
      "anonymous": false,
      "inputs": [
        {
          "indexed": true,
          "internalType": "address",
          "name": "from",
          "type": "address"
        },
        {
          "indexed": true,
          "internalType": "address",
          "name": "to",
          "type": "address"
        },
        {
          "indexed": false,
          "internalType": "uint256",
          "name": "value",
          "type": "uint256"
        }
      ],
      "name": "Transfer",
      "type": "event"
    },
    {
      "inputs": [],
      "name": "ADMIN_ROLE",
      "outputs": [
        {
          "internalType": "bytes32",
          "name": "",
          "type": "bytes32"
        }
      ],
      "stateMutability": "view",
      "type": "function"
    },
    {
      "inputs": [],
      "name": "DEFAULT_ADMIN_ROLE",
      "outputs": [
        {
          "internalType": "bytes32",
          "name": "",
          "type": "bytes32"
        }
      ],
      "stateMutability": "view",
      "type": "function"
    },
    {
      "inputs": [],
      "name": "SENTINEL_ROLE",
      "outputs": [
        {
          "internalType": "bytes32",
          "name": "",
          "type": "bytes32"
        }
      ],
      "stateMutability": "view",
      "type": "function"
    },
    {
      "inputs": [
        {
          "internalType": "address",
          "name": "owner",
          "type": "address"
        },
        {
          "internalType": "address",
          "name": "spender",
          "type": "address"
        }
      ],
      "name": "allowance",
      "outputs": [
        {
          "internalType": "uint256",
          "name": "",
          "type": "uint256"
        }
      ],
      "stateMutability": "view",
      "type": "function"
    },
    {
      "inputs": [
        {
          "internalType": "address",
          "name": "spender",
          "type": "address"
        },
        {
          "internalType": "uint256",
          "name": "amount",
          "type": "uint256"
        }
      ],
      "name": "approve",
      "outputs": [
        {
          "internalType": "bool",
          "name": "",
          "type": "bool"
        }
      ],
      "stateMutability": "nonpayable",
      "type": "function"
    },
    {
      "inputs": [
        {
          "internalType": "address",
          "name": "account",
          "type": "address"
        }
      ],
      "name": "balanceOf",
      "outputs": [
        {
          "internalType": "uint256",
          "name": "",
          "type": "uint256"
        }
      ],
      "stateMutability": "view",
      "type": "function"
    },
    {
      "inputs": [
        {
          "internalType": "address",
          "name": "",
          "type": "address"
        }
      ],
      "name": "blacklist",
      "outputs": [
        {
          "internalType": "bool",
          "name": "",
          "type": "bool"
        }
      ],
      "stateMutability": "view",
      "type": "function"
    },
    {
      "inputs": [
        {
          "internalType": "uint256",
          "name": "amount",
          "type": "uint256"
        }
      ],
      "name": "burn",
      "outputs": [],
      "stateMutability": "nonpayable",
      "type": "function"
    },
    {
      "inputs": [
        {
          "internalType": "address",
          "name": "account",
          "type": "address"
        },
        {
          "internalType": "uint256",
          "name": "amount",
          "type": "uint256"
        }
      ],
      "name": "burnFrom",
      "outputs": [],
      "stateMutability": "nonpayable",
      "type": "function"
    },
    {
      "inputs": [
        {
          "internalType": "address",
          "name": "",
          "type": "address"
        }
      ],
      "name": "ceiling",
      "outputs": [
        {
          "internalType": "uint256",
          "name": "",
          "type": "uint256"
        }
      ],
      "stateMutability": "view",
      "type": "function"
    },
    {
      "inputs": [],
      "name": "decimals",
      "outputs": [
        {
          "internalType": "uint8",
          "name": "",
          "type": "uint8"
        }
      ],
      "stateMutability": "view",
      "type": "function"
    },
    {
      "inputs": [
        {
          "internalType": "address",
          "name": "spender",
          "type": "address"
        },
        {
          "internalType": "uint256",
          "name": "subtractedValue",
          "type": "uint256"
        }
      ],
      "name": "decreaseAllowance",
      "outputs": [
        {
          "internalType": "bool",
          "name": "",
          "type": "bool"
        }
      ],
      "stateMutability": "nonpayable",
      "type": "function"
    },
    {
      "inputs": [
        {
          "internalType": "bytes32",
          "name": "role",
          "type": "bytes32"
        }
      ],
      "name": "getRoleAdmin",
      "outputs": [
        {
          "internalType": "bytes32",
          "name": "",
          "type": "bytes32"
        }
      ],
      "stateMutability": "view",
      "type": "function"
    },
    {
      "inputs": [
        {
          "internalType": "bytes32",
          "name": "role",
          "type": "bytes32"
        },
        {
          "internalType": "uint256",
          "name": "index",
          "type": "uint256"
        }
      ],
      "name": "getRoleMember",
      "outputs": [
        {
          "internalType": "address",
          "name": "",
          "type": "address"
        }
      ],
      "stateMutability": "view",
      "type": "function"
    },
    {
      "inputs": [
        {
          "internalType": "bytes32",
          "name": "role",
          "type": "bytes32"
        }
      ],
      "name": "getRoleMemberCount",
      "outputs": [
        {
          "internalType": "uint256",
          "name": "",
          "type": "uint256"
        }
      ],
      "stateMutability": "view",
      "type": "function"
    },
    {
      "inputs": [
        {
          "internalType": "bytes32",
          "name": "role",
          "type": "bytes32"
        },
        {
          "internalType": "address",
          "name": "account",
          "type": "address"
        }
      ],
      "name": "grantRole",
      "outputs": [],
      "stateMutability": "nonpayable",
      "type": "function"
    },
    {
      "inputs": [
        {
          "internalType": "address",
          "name": "",
          "type": "address"
        }
      ],
      "name": "hasMinted",
      "outputs": [
        {
          "internalType": "uint256",
          "name": "",
          "type": "uint256"
        }
      ],
      "stateMutability": "view",
      "type": "function"
    },
    {
      "inputs": [
        {
          "internalType": "bytes32",
          "name": "role",
          "type": "bytes32"
        },
        {
          "internalType": "address",
          "name": "account",
          "type": "address"
        }
      ],
      "name": "hasRole",
      "outputs": [
        {
          "internalType": "bool",
          "name": "",
          "type": "bool"
        }
      ],
      "stateMutability": "view",
      "type": "function"
    },
    {
      "inputs": [
        {
          "internalType": "address",
          "name": "spender",
          "type": "address"
        },
        {
          "internalType": "uint256",
          "name": "addedValue",
          "type": "uint256"
        }
      ],
      "name": "increaseAllowance",
      "outputs": [
        {
          "internalType": "bool",
          "name": "",
          "type": "bool"
        }
      ],
      "stateMutability": "nonpayable",
      "type": "function"
    },
    {
      "inputs": [
        {
          "internalType": "uint256",
          "name": "amount",
          "type": "uint256"
        }
      ],
      "name": "lowerHasMinted",
      "outputs": [],
      "stateMutability": "nonpayable",
      "type": "function"
    },
    {
      "inputs": [
        {
          "internalType": "address",
          "name": "_recipient",
          "type": "address"
        },
        {
          "internalType": "uint256",
          "name": "_amount",
          "type": "uint256"
        }
      ],
      "name": "mint",
      "outputs": [],
      "stateMutability": "nonpayable",
      "type": "function"
    },
    {
      "inputs": [],
      "name": "name",
      "outputs": [
        {
          "internalType": "string",
          "name": "",
          "type": "string"
        }
      ],
      "stateMutability": "view",
      "type": "function"
    },
    {
      "inputs": [
        {
          "internalType": "address",
          "name": "_toPause",
          "type": "address"
        },
        {
          "internalType": "bool",
          "name": "_state",
          "type": "bool"
        }
      ],
      "name": "pauseAlchemist",
      "outputs": [],
      "stateMutability": "nonpayable",
      "type": "function"
    },
    {
      "inputs": [
        {
          "internalType": "address",
          "name": "",
          "type": "address"
        }
      ],
      "name": "paused",
      "outputs": [
        {
          "internalType": "bool",
          "name": "",
          "type": "bool"
        }
      ],
      "stateMutability": "view",
      "type": "function"
    },
    {
      "inputs": [
        {
          "internalType": "bytes32",
          "name": "role",
          "type": "bytes32"
        },
        {
          "internalType": "address",
          "name": "account",
          "type": "address"
        }
      ],
      "name": "renounceRole",
      "outputs": [],
      "stateMutability": "nonpayable",
      "type": "function"
    },
    {
      "inputs": [
        {
          "internalType": "bytes32",
          "name": "role",
          "type": "bytes32"
        },
        {
          "internalType": "address",
          "name": "account",
          "type": "address"
        }
      ],
      "name": "revokeRole",
      "outputs": [],
      "stateMutability": "nonpayable",
      "type": "function"
    },
    {
      "inputs": [
        {
          "internalType": "address",
          "name": "_toBlacklist",
          "type": "address"
        }
      ],
      "name": "setBlacklist",
      "outputs": [],
      "stateMutability": "nonpayable",
      "type": "function"
    },
    {
      "inputs": [
        {
          "internalType": "address",
          "name": "_toSetCeiling",
          "type": "address"
        },
        {
          "internalType": "uint256",
          "name": "_ceiling",
          "type": "uint256"
        }
      ],
      "name": "setCeiling",
      "outputs": [],
      "stateMutability": "nonpayable",
      "type": "function"
    },
    {
      "inputs": [
        {
          "internalType": "address",
          "name": "_toWhitelist",
          "type": "address"
        },
        {
          "internalType": "bool",
          "name": "_state",
          "type": "bool"
        }
      ],
      "name": "setWhitelist",
      "outputs": [],
      "stateMutability": "nonpayable",
      "type": "function"
    },
    {
      "inputs": [],
      "name": "symbol",
      "outputs": [
        {
          "internalType": "string",
          "name": "",
          "type": "string"
        }
      ],
      "stateMutability": "view",
      "type": "function"
    },
    {
      "inputs": [],
      "name": "totalSupply",
      "outputs": [
        {
          "internalType": "uint256",
          "name": "",
          "type": "uint256"
        }
      ],
      "stateMutability": "view",
      "type": "function"
    },
    {
      "inputs": [
        {
          "internalType": "address",
          "name": "recipient",
          "type": "address"
        },
        {
          "internalType": "uint256",
          "name": "amount",
          "type": "uint256"
        }
      ],
      "name": "transfer",
      "outputs": [
        {
          "internalType": "bool",
          "name": "",
          "type": "bool"
        }
      ],
      "stateMutability": "nonpayable",
      "type": "function"
    },
    {
      "inputs": [
        {
          "internalType": "address",
          "name": "sender",
          "type": "address"
        },
        {
          "internalType": "address",
          "name": "recipient",
          "type": "address"
        },
        {
          "internalType": "uint256",
          "name": "amount",
          "type": "uint256"
        }
      ],
      "name": "transferFrom",
      "outputs": [
        {
          "internalType": "bool",
          "name": "",
          "type": "bool"
        }
      ],
      "stateMutability": "nonpayable",
      "type": "function"
    },
    {
      "inputs": [
        {
          "internalType": "address",
          "name": "",
          "type": "address"
        }
      ],
      "name": "whiteList",
      "outputs": [
        {
          "internalType": "bool",
          "name": "",
          "type": "bool"
        }
      ],
      "stateMutability": "view",
      "type": "function"
    }
  ],
  "transactionHash": "0xac563a4ae359635cc24f8c3513d6eea1c8d0cc7844d5a25c49ca2097eee5b1c7",
  "args": [],
  "solcInputHash": "e28779e1c6fa97393b5bc15b8c643560",
  "bytecode": "0x60806040523480156200001157600080fd5b50604080518082018252600981526816585e1a5cc81554d160ba1b6020808301918252835180850190945260068452651e585b1554d160d21b90840152815191929162000061916004916200026e565b508051620000779060059060208401906200026e565b50506006805460ff1916601217905550620000a2600080516020620024048339815191523362000108565b620000bd600080516020620024248339815191523362000108565b620000e7600080516020620024248339815191526000805160206200240483398151915262000118565b62000102600080516020620024048339815191528062000118565b6200030a565b6200011482826200016a565b5050565b600082815260208190526040808220600201549051839285917fbd79b86ffe0ab8e8776151514217cd7cacd52c909f66475c3af44e129f0b00ff9190a460009182526020829052604090912060020155565b6000828152602081815260409091206200018f91839062000f57620001e3821b17901c565b1562000114576200019f62000203565b6001600160a01b0316816001600160a01b0316837f2f8788117e7eff1d82e926ec794901d17c78024a50270940304540a733656f0d60405160405180910390a45050565b6000620001fa836001600160a01b03841662000207565b90505b92915050565b3390565b600062000215838362000256565b6200024d57508154600181810184556000848152602080822090930184905584548482528286019093526040902091909155620001fd565b506000620001fd565b60009081526001919091016020526040902054151590565b828054600181600116156101000203166002900490600052602060002090601f016020900481019282601f10620002b157805160ff1916838001178555620002e1565b82800160010185558215620002e1579182015b82811115620002e1578251825591602001919060010190620002c4565b50620002ef929150620002f3565b5090565b5b80821115620002ef5760008155600101620002f4565b6120ea806200031a6000396000f3fe608060405234801561001057600080fd5b50600436106102265760003560e01c80634e054a671161012a57806391d14854116100bd578063a9059cbb1161008c578063d547741f11610071578063d547741f14610477578063dd62ed3e1461048a578063f9f92be41461049d57610226565b8063a9059cbb14610451578063ca15c8731461046457610226565b806391d148541461041b57806395d89b411461042e578063a217fddf14610436578063a457c2d71461043e57610226565b806370a08231116100f957806370a08231146103cd57806375b238fc146103e057806379cc6790146103e85780639010d07c146103fb57610226565b80634e054a671461038157806353d6fd59146103945780635ab96f7a146103a75780636c00c7f0146103ba57610226565b80632e48152c116101bd578063372c12b11161018c5780633950935111610171578063395093511461034857806340c10f191461035b57806342966c681461036e57610226565b8063372c12b11461032257806338e21cce1461033557610226565b80632e48152c146102d45780632f2ff15d146102e7578063313ce567146102fa57806336568abe1461030f57610226565b80631ac997e0116101f95780631ac997e01461028657806323b872dd14610299578063248a9ca3146102ac578063288aafcb146102bf57610226565b806306fdde031461022b578063095ea7b31461024957806313430d921461026957806318160ddd1461027e575b600080fd5b6102336104b0565b60405161024091906119de565b60405180910390f35b61025c6102573660046118fa565b610564565b60405161024091906119ca565b610271610582565b60405161024091906119d5565b6102716105a6565b610271610294366004611830565b6105ac565b61025c6102a736600461187f565b6105be565b6102716102ba366004611924565b61065f565b6102d26102cd366004611924565b610674565b005b61025c6102e2366004611830565b6106f3565b6102d26102f536600461193c565b610708565b61030261076a565b6040516102409190611fcb565b6102d261031d36600461193c565b610773565b61025c610330366004611830565b6107e9565b610271610343366004611830565b6107fe565b61025c6103563660046118fa565b610810565b6102d26103693660046118fa565b61086b565b6102d261037c366004611924565b6109d0565b6102d261038f366004611830565b6109e4565b6102d26103a23660046118bf565b610a93565b6102d26103b53660046118bf565b610b49565b6102d26103c83660046118fa565b610c36565b6102716103db366004611830565b610cbf565b610271610ce7565b6102d26103f63660046118fa565b610d0b565b61040e610409366004611960565b610d5b565b6040516102409190611981565b61025c61042936600461193c565b610d7a565b610233610d92565b610271610e11565b61025c61044c3660046118fa565b610e16565b61025c61045f3660046118fa565b610e8b565b610271610472366004611924565b610e9f565b6102d261048536600461193c565b610eb6565b61027161049836600461184b565b610f0a565b61025c6104ab366004611830565b610f42565b60048054604080516020601f60027fffffffffffffffffffffffffffffffffffffffffffffffffffffffffffffffff61010060018816150201909516949094049384018190048102820181019092528281526060939092909183018282801561055a5780601f1061052f5761010080835404028352916020019161055a565b820191906000526020600020905b81548152906001019060200180831161053d57829003601f168201915b5050505050905090565b6000610578610571610f79565b8484610f7d565b5060015b92915050565b7fd3eedd6d69d410e954f4c622838ecc3acae9fdcd83cad412075c85b09277065681565b60035490565b600a6020526000908152604090205481565b60006105cb84848461108c565b610655846105d7610f79565b610650856040518060600160405280602881526020016120446028913973ffffffffffffffffffffffffffffffffffffffff8a16600090815260026020526040812090610622610f79565b73ffffffffffffffffffffffffffffffffffffffff1681526020810191909152604001600020549190611216565b610f7d565b5060019392505050565b60009081526020819052604090206002015490565b3360009081526007602052604090205460ff166106c6576040517f08c379a00000000000000000000000000000000000000000000000000000000081526004016106bd90611e39565b60405180910390fd5b336000908152600b60205260409020546106e0908261125c565b336000908152600b602052604090205550565b60096020526000908152604090205460ff1681565b60008281526020819052604090206002015461072690610429610f79565b61075c576040517f08c379a00000000000000000000000000000000000000000000000000000000081526004016106bd90611b09565b610766828261129e565b5050565b60065460ff1690565b61077b610f79565b73ffffffffffffffffffffffffffffffffffffffff168173ffffffffffffffffffffffffffffffffffffffff16146107df576040517f08c379a00000000000000000000000000000000000000000000000000000000081526004016106bd90611f00565b6107668282611321565b60076020526000908152604090205460ff1681565b600b6020526000908152604090205481565b600061057861081d610f79565b84610650856002600061082e610f79565b73ffffffffffffffffffffffffffffffffffffffff908116825260208083019390935260409182016000908120918c1681529252902054906113a4565b3360009081526007602052604090205460ff166108b4576040517f08c379a00000000000000000000000000000000000000000000000000000000081526004016106bd90611e39565b3360009081526008602052604090205460ff16156108fe576040517f08c379a00000000000000000000000000000000000000000000000000000000081526004016106bd90611ecb565b3360009081526009602052604090205460ff1615610948576040517f08c379a00000000000000000000000000000000000000000000000000000000081526004016106bd90611e96565b336000908152600b60205260408120546109639083906113a4565b336000908152600a60205260409020549091508111156109af576040517f08c379a00000000000000000000000000000000000000000000000000000000081526004016106bd90611d7f565b336000908152600b602052604090208190556109cb83836113e3565b505050565b6109e16109db610f79565b826114e4565b50565b610a0e7fd3eedd6d69d410e954f4c622838ecc3acae9fdcd83cad412075c85b09277065633610d7a565b610a44576040517f08c379a00000000000000000000000000000000000000000000000000000000081526004016106bd90611f94565b73ffffffffffffffffffffffffffffffffffffffff16600090815260086020526040902080547fffffffffffffffffffffffffffffffffffffffffffffffffffffffffffffff00166001179055565b610abd7fdf8b4c520ffe197c5343c6f5aec59570151ef9a492f2c624fd45ddde6135ec4233610d7a565b610af3576040517f08c379a00000000000000000000000000000000000000000000000000000000081526004016106bd90611bfa565b73ffffffffffffffffffffffffffffffffffffffff91909116600090815260076020526040902080547fffffffffffffffffffffffffffffffffffffffffffffffffffffffffffffff0016911515919091179055565b610b737fd3eedd6d69d410e954f4c622838ecc3acae9fdcd83cad412075c85b09277065633610d7a565b610ba9576040517f08c379a00000000000000000000000000000000000000000000000000000000081526004016106bd90611f94565b73ffffffffffffffffffffffffffffffffffffffff82166000908152600960205260409081902080547fffffffffffffffffffffffffffffffffffffffffffffffffffffffffffffff0016831515179055517fe8699cf681560fd07de85543bd994263f4557bdc5179dd702f256d15fd083e1d90610c2a90849084906119a2565b60405180910390a15050565b610c607fdf8b4c520ffe197c5343c6f5aec59570151ef9a492f2c624fd45ddde6135ec4233610d7a565b610c96576040517f08c379a00000000000000000000000000000000000000000000000000000000081526004016106bd90611bfa565b73ffffffffffffffffffffffffffffffffffffffff9091166000908152600a6020526040902055565b73ffffffffffffffffffffffffffffffffffffffff1660009081526001602052604090205490565b7fdf8b4c520ffe197c5343c6f5aec59570151ef9a492f2c624fd45ddde6135ec4281565b6000610d3d8260405180606001604052806024815260200161206c60249139610d3686610498610f79565b9190611216565b9050610d5183610d4b610f79565b83610f7d565b6109cb83836114e4565b6000828152602081905260408120610d739083611608565b9392505050565b6000828152602081905260408120610d739083611614565b60058054604080516020601f60027fffffffffffffffffffffffffffffffffffffffffffffffffffffffffffffffff61010060018816150201909516949094049384018190048102820181019092528281526060939092909183018282801561055a5780601f1061052f5761010080835404028352916020019161055a565b600081565b6000610578610e23610f79565b84610650856040518060600160405280602581526020016120906025913960026000610e4d610f79565b73ffffffffffffffffffffffffffffffffffffffff908116825260208083019390935260409182016000908120918d16815292529020549190611216565b6000610578610e98610f79565b848461108c565b600081815260208190526040812061057c90611636565b600082815260208190526040902060020154610ed490610429610f79565b6107df576040517f08c379a00000000000000000000000000000000000000000000000000000000081526004016106bd90611c68565b73ffffffffffffffffffffffffffffffffffffffff918216600090815260026020908152604080832093909416825291909152205490565b60086020526000908152604090205460ff1681565b6000610d738373ffffffffffffffffffffffffffffffffffffffff8416611641565b3390565b73ffffffffffffffffffffffffffffffffffffffff8316610fca576040517f08c379a00000000000000000000000000000000000000000000000000000000081526004016106bd90611ddc565b73ffffffffffffffffffffffffffffffffffffffff8216611017576040517f08c379a00000000000000000000000000000000000000000000000000000000081526004016106bd90611b66565b73ffffffffffffffffffffffffffffffffffffffff80841660008181526002602090815260408083209487168084529490915290819020849055517f8c5be1e5ebec7d5bd14f71427d1e84f3dd0314c0f7b2291e5b200ac8c7c3b9259061107f9085906119d5565b60405180910390a3505050565b73ffffffffffffffffffffffffffffffffffffffff83166110d9576040517f08c379a00000000000000000000000000000000000000000000000000000000081526004016106bd90611d22565b73ffffffffffffffffffffffffffffffffffffffff8216611126576040517f08c379a00000000000000000000000000000000000000000000000000000000081526004016106bd90611aac565b6111318383836109cb565b61117b8160405180606001604052806026815260200161201e6026913973ffffffffffffffffffffffffffffffffffffffff86166000908152600160205260409020549190611216565b73ffffffffffffffffffffffffffffffffffffffff80851660009081526001602052604080822093909355908416815220546111b790826113a4565b73ffffffffffffffffffffffffffffffffffffffff80841660008181526001602052604090819020939093559151908516907fddf252ad1be2c89b69c2b068fc378daa952ba7f163c4a11628f55a4df523b3ef9061107f9085906119d5565b60008184841115611254576040517f08c379a00000000000000000000000000000000000000000000000000000000081526004016106bd91906119de565b505050900390565b600082821115611298576040517f08c379a00000000000000000000000000000000000000000000000000000000081526004016106bd90611c31565b50900390565b60008281526020819052604090206112b69082610f57565b15610766576112c3610f79565b73ffffffffffffffffffffffffffffffffffffffff168173ffffffffffffffffffffffffffffffffffffffff16837f2f8788117e7eff1d82e926ec794901d17c78024a50270940304540a733656f0d60405160405180910390a45050565b6000828152602081905260409020611339908261168b565b1561076657611346610f79565b73ffffffffffffffffffffffffffffffffffffffff168173ffffffffffffffffffffffffffffffffffffffff16837ff6391f5c32d9c69d2a47ea670b442974b53935d1edc7fd64eb21e047a839171b60405160405180910390a45050565b600082820183811015610d73576040517f08c379a00000000000000000000000000000000000000000000000000000000081526004016106bd90611bc3565b73ffffffffffffffffffffffffffffffffffffffff8216611430576040517f08c379a00000000000000000000000000000000000000000000000000000000081526004016106bd90611f5d565b61143c600083836109cb565b60035461144990826113a4565b60035573ffffffffffffffffffffffffffffffffffffffff821660009081526001602052604090205461147c90826113a4565b73ffffffffffffffffffffffffffffffffffffffff83166000818152600160205260408082209390935591519091907fddf252ad1be2c89b69c2b068fc378daa952ba7f163c4a11628f55a4df523b3ef906114d89085906119d5565b60405180910390a35050565b73ffffffffffffffffffffffffffffffffffffffff8216611531576040517f08c379a00000000000000000000000000000000000000000000000000000000081526004016106bd90611cc5565b61153d826000836109cb565b61158781604051806060016040528060228152602001611ffc6022913973ffffffffffffffffffffffffffffffffffffffff85166000908152600160205260409020549190611216565b73ffffffffffffffffffffffffffffffffffffffff83166000908152600160205260409020556003546115ba908261125c565b60035560405160009073ffffffffffffffffffffffffffffffffffffffff8416907fddf252ad1be2c89b69c2b068fc378daa952ba7f163c4a11628f55a4df523b3ef906114d89085906119d5565b6000610d7383836116ad565b6000610d738373ffffffffffffffffffffffffffffffffffffffff841661170c565b600061057c82611724565b600061164d838361170c565b6116835750815460018181018455600084815260208082209093018490558454848252828601909352604090209190915561057c565b50600061057c565b6000610d738373ffffffffffffffffffffffffffffffffffffffff8416611728565b815460009082106116ea576040517f08c379a00000000000000000000000000000000000000000000000000000000081526004016106bd90611a4f565b8260000182815481106116f957fe5b9060005260206000200154905092915050565b60009081526001919091016020526040902054151590565b5490565b600081815260018301602052604081205480156118025783547fffffffffffffffffffffffffffffffffffffffffffffffffffffffffffffffff808301919081019060009087908390811061177957fe5b906000526020600020015490508087600001848154811061179657fe5b6000918252602080832090910192909255828152600189810190925260409020908401905586548790806117c657fe5b6001900381819060005260206000200160009055905586600101600087815260200190815260200160002060009055600194505050505061057c565b600091505061057c565b803573ffffffffffffffffffffffffffffffffffffffff8116811461057c57600080fd5b600060208284031215611841578081fd5b610d73838361180c565b6000806040838503121561185d578081fd5b611867848461180c565b9150611876846020850161180c565b90509250929050565b600080600060608486031215611893578081fd5b833561189e81611fd9565b925060208401356118ae81611fd9565b929592945050506040919091013590565b600080604083850312156118d1578182fd5b6118db848461180c565b9150602083013580151581146118ef578182fd5b809150509250929050565b6000806040838503121561190c578182fd5b611916848461180c565b946020939093013593505050565b600060208284031215611935578081fd5b5035919050565b6000806040838503121561194e578182fd5b8235915060208301356118ef81611fd9565b60008060408385031215611972578182fd5b50508035926020909101359150565b73ffffffffffffffffffffffffffffffffffffffff91909116815260200190565b73ffffffffffffffffffffffffffffffffffffffff9290921682521515602082015260400190565b901515815260200190565b90815260200190565b6000602080835283518082850152825b81811015611a0a578581018301518582016040015282016119ee565b81811115611a1b5783604083870101525b50601f017fffffffffffffffffffffffffffffffffffffffffffffffffffffffffffffffe016929092016040019392505050565b60208082526022908201527f456e756d657261626c655365743a20696e646578206f7574206f6620626f756e60408201527f6473000000000000000000000000000000000000000000000000000000000000606082015260800190565b60208082526023908201527f45524332303a207472616e7366657220746f20746865207a65726f206164647260408201527f6573730000000000000000000000000000000000000000000000000000000000606082015260800190565b6020808252602f908201527f416363657373436f6e74726f6c3a2073656e646572206d75737420626520616e60408201527f2061646d696e20746f206772616e740000000000000000000000000000000000606082015260800190565b60208082526022908201527f45524332303a20617070726f766520746f20746865207a65726f20616464726560408201527f7373000000000000000000000000000000000000000000000000000000000000606082015260800190565b6020808252601b908201527f536166654d6174683a206164646974696f6e206f766572666c6f770000000000604082015260600190565b6020808252600a908201527f6f6e6c792061646d696e00000000000000000000000000000000000000000000604082015260600190565b6020808252601e908201527f536166654d6174683a207375627472616374696f6e206f766572666c6f770000604082015260600190565b60208082526030908201527f416363657373436f6e74726f6c3a2073656e646572206d75737420626520616e60408201527f2061646d696e20746f207265766f6b6500000000000000000000000000000000606082015260800190565b60208082526021908201527f45524332303a206275726e2066726f6d20746865207a65726f2061646472657360408201527f7300000000000000000000000000000000000000000000000000000000000000606082015260800190565b60208082526025908201527f45524332303a207472616e736665722066726f6d20746865207a65726f20616460408201527f6472657373000000000000000000000000000000000000000000000000000000606082015260800190565b60208082526028908201527f416c5553443a20416c6368656d6973742773206365696c696e6720776173206260408201527f726561636865642e000000000000000000000000000000000000000000000000606082015260800190565b60208082526024908201527f45524332303a20617070726f76652066726f6d20746865207a65726f2061646460408201527f7265737300000000000000000000000000000000000000000000000000000000606082015260800190565b60208082526023908201527f416c5553443a20416c6368656d697374206973206e6f742077686974656c697360408201527f7465640000000000000000000000000000000000000000000000000000000000606082015260800190565b6020808252818101527f416c5553443a20757365722069732063757272656e746c79207061757365642e604082015260600190565b6020808252818101527f416c5553443a20416c6368656d69737420697320626c61636b6c69737465642e604082015260600190565b6020808252602f908201527f416363657373436f6e74726f6c3a2063616e206f6e6c792072656e6f756e636560408201527f20726f6c657320666f722073656c660000000000000000000000000000000000606082015260800190565b6020808252601f908201527f45524332303a206d696e7420746f20746865207a65726f206164647265737300604082015260600190565b6020808252600d908201527f6f6e6c792073656e74696e656c00000000000000000000000000000000000000604082015260600190565b60ff91909116815260200190565b73ffffffffffffffffffffffffffffffffffffffff811681146109e157600080fdfe45524332303a206275726e20616d6f756e7420657863656564732062616c616e636545524332303a207472616e7366657220616d6f756e7420657863656564732062616c616e636545524332303a207472616e7366657220616d6f756e74206578636565647320616c6c6f77616e636545524332303a206275726e20616d6f756e74206578636565647320616c6c6f77616e636545524332303a2064656372656173656420616c6c6f77616e63652062656c6f77207a65726fa26469706673582212208f691aedf3043868866fba717565abb208449b2b9fbce09a7f2828af71dbdf2264736f6c634300060c0033df8b4c520ffe197c5343c6f5aec59570151ef9a492f2c624fd45ddde6135ec42d3eedd6d69d410e954f4c622838ecc3acae9fdcd83cad412075c85b092770656",
  "devdoc": {
    "details": "This is the contract for the Yaxis utillity token usd. Initially, the contract deployer is given both the admin and minter role. This allows them to pre-mine tokens, transfer admin to a timelock contract, and lastly, grant the staking pools the minter role. After this is done, the deployer must revoke their admin role and minter role.",
    "kind": "dev",
    "methods": {
      "allowance(address,address)": {
        "details": "See {IERC20-allowance}."
      },
      "approve(address,uint256)": {
        "details": "See {IERC20-approve}. Requirements: - `spender` cannot be the zero address."
      },
      "balanceOf(address)": {
        "details": "See {IERC20-balanceOf}."
      },
      "burn(uint256)": {
        "details": "Destroys `amount` tokens from the caller. See {ERC20-_burn}."
      },
      "burnFrom(address,uint256)": {
        "details": "Destroys `amount` tokens from `account`, deducting from the caller's allowance. See {ERC20-_burn} and {ERC20-allowance}. Requirements: - the caller must have allowance for ``accounts``'s tokens of at least `amount`."
      },
      "decimals()": {
        "details": "Returns the number of decimals used to get its user representation. For example, if `decimals` equals `2`, a balance of `505` tokens should be displayed to a user as `5,05` (`505 / 10 ** 2`). Tokens usually opt for a value of 18, imitating the relationship between Ether and Wei. This is the value {ERC20} uses, unless {_setupDecimals} is called. NOTE: This information is only used for _display_ purposes: it in no way affects any of the arithmetic of the contract, including {IERC20-balanceOf} and {IERC20-transfer}."
      },
      "decreaseAllowance(address,uint256)": {
        "details": "Atomically decreases the allowance granted to `spender` by the caller. This is an alternative to {approve} that can be used as a mitigation for problems described in {IERC20-approve}. Emits an {Approval} event indicating the updated allowance. Requirements: - `spender` cannot be the zero address. - `spender` must have allowance for the caller of at least `subtractedValue`."
      },
      "getRoleAdmin(bytes32)": {
        "details": "Returns the admin role that controls `role`. See {grantRole} and {revokeRole}. To change a role's admin, use {_setRoleAdmin}."
      },
      "getRoleMember(bytes32,uint256)": {
        "details": "Returns one of the accounts that have `role`. `index` must be a value between 0 and {getRoleMemberCount}, non-inclusive. Role bearers are not sorted in any particular way, and their ordering may change at any point. WARNING: When using {getRoleMember} and {getRoleMemberCount}, make sure you perform all queries on the same block. See the following https://forum.openzeppelin.com/t/iterating-over-elements-on-enumerableset-in-openzeppelin-contracts/2296[forum post] for more information."
      },
      "getRoleMemberCount(bytes32)": {
        "details": "Returns the number of accounts that have `role`. Can be used together with {getRoleMember} to enumerate all bearers of a role."
      },
      "grantRole(bytes32,address)": {
        "details": "Grants `role` to `account`. If `account` had not been already granted `role`, emits a {RoleGranted} event. Requirements: - the caller must have ``role``'s admin role."
      },
      "hasRole(bytes32,address)": {
        "details": "Returns `true` if `account` has been granted `role`."
      },
      "increaseAllowance(address,uint256)": {
        "details": "Atomically increases the allowance granted to `spender` by the caller. This is an alternative to {approve} that can be used as a mitigation for problems described in {IERC20-approve}. Emits an {Approval} event indicating the updated allowance. Requirements: - `spender` cannot be the zero address."
      },
      "lowerHasMinted(uint256)": {
        "details": "lowers hasminted from the caller's allocation"
      },
      "mint(address,uint256)": {
        "details": "Mints tokens to a recipient. This function reverts if the caller does not have the minter role.",
        "params": {
          "_amount": "the amount of tokens to mint.",
          "_recipient": "the account to mint tokens to."
        }
      },
      "name()": {
        "details": "Returns the name of the token."
      },
      "renounceRole(bytes32,address)": {
        "details": "Revokes `role` from the calling account. Roles are often managed via {grantRole} and {revokeRole}: this function's purpose is to provide a mechanism for accounts to lose their privileges if they are compromised (such as when a trusted device is misplaced). If the calling account had been granted `role`, emits a {RoleRevoked} event. Requirements: - the caller must be `account`."
      },
      "revokeRole(bytes32,address)": {
        "details": "Revokes `role` from `account`. If `account` had been granted `role`, emits a {RoleRevoked} event. Requirements: - the caller must have ``role``'s admin role."
      },
      "setBlacklist(address)": {
        "params": {
          "_toBlacklist": "the account to mint tokens to."
        }
      },
      "setCeiling(address,uint256)": {
        "params": {
          "_ceiling": "the max amount of tokens the account is allowed to mint.",
          "_toSetCeiling": "the account set the ceiling off."
        }
      },
      "setWhitelist(address,bool)": {
        "params": {
          "_state": "the whitelist state.",
          "_toWhitelist": "the account to mint tokens to."
        }
      },
      "symbol()": {
        "details": "Returns the symbol of the token, usually a shorter version of the name."
      },
      "totalSupply()": {
        "details": "See {IERC20-totalSupply}."
      },
      "transfer(address,uint256)": {
        "details": "See {IERC20-transfer}. Requirements: - `recipient` cannot be the zero address. - the caller must have a balance of at least `amount`."
      },
      "transferFrom(address,address,uint256)": {
        "details": "See {IERC20-transferFrom}. Emits an {Approval} event indicating the updated allowance. This is not required by the EIP. See the note at the beginning of {ERC20}. Requirements: - `sender` and `recipient` cannot be the zero address. - `sender` must have a balance of at least `amount`. - the caller must have allowance for ``sender``'s tokens of at least `amount`."
      }
    },
    "stateVariables": {
      "ADMIN_ROLE": {
        "details": "The identifier of the role which maintains other roles."
      },
      "SENTINEL_ROLE": {
        "details": "The identifier of the role which allows accounts to mint tokens."
      },
      "blacklist": {
        "details": "addresses blacklisted for minting new tokens"
      },
      "ceiling": {
        "details": "ceiling per address for minting new tokens"
      },
      "hasMinted": {
        "details": "already minted amount per address to track the ceiling"
      },
      "paused": {
        "details": "addresses paused for minting new tokens"
      },
      "whiteList": {
        "details": "addresses whitelisted for minting new tokens"
      }
    },
    "title": "AlToken",
    "version": 1
  },
  "userdoc": {
    "kind": "user",
    "methods": {
      "pauseAlchemist(address,bool)": {
        "notice": "This function reverts if the caller does not have the sentinel role."
      },
      "setBlacklist(address)": {
        "notice": "This function reverts if the caller does not have the sentinel role."
      },
      "setCeiling(address,uint256)": {
        "notice": "This function reverts if the caller does not have the admin role."
      },
      "setWhitelist(address,bool)": {
        "notice": "This function reverts if the caller does not have the admin role."
      }
    },
    "version": 1
  },
  "storageLayout": {
    "storage": [
      {
        "astId": 22,
        "contract": "contracts/AlToken.sol:AlToken",
        "label": "_roles",
        "offset": 0,
        "slot": "0",
        "type": "t_mapping(t_bytes32,t_struct(RoleData)18_storage)"
      },
      {
        "astId": 727,
        "contract": "contracts/AlToken.sol:AlToken",
        "label": "_balances",
        "offset": 0,
        "slot": "1",
        "type": "t_mapping(t_address,t_uint256)"
      },
      {
        "astId": 733,
        "contract": "contracts/AlToken.sol:AlToken",
        "label": "_allowances",
        "offset": 0,
        "slot": "2",
        "type": "t_mapping(t_address,t_mapping(t_address,t_uint256))"
      },
      {
        "astId": 735,
        "contract": "contracts/AlToken.sol:AlToken",
        "label": "_totalSupply",
        "offset": 0,
        "slot": "3",
        "type": "t_uint256"
      },
      {
        "astId": 737,
        "contract": "contracts/AlToken.sol:AlToken",
        "label": "_name",
        "offset": 0,
        "slot": "4",
        "type": "t_string_storage"
      },
      {
        "astId": 739,
        "contract": "contracts/AlToken.sol:AlToken",
        "label": "_symbol",
        "offset": 0,
        "slot": "5",
        "type": "t_string_storage"
      },
      {
        "astId": 741,
        "contract": "contracts/AlToken.sol:AlToken",
        "label": "_decimals",
        "offset": 0,
        "slot": "6",
        "type": "t_uint8"
      },
      {
        "astId": 2393,
        "contract": "contracts/AlToken.sol:AlToken",
        "label": "whiteList",
        "offset": 0,
        "slot": "7",
        "type": "t_mapping(t_address,t_bool)"
      },
      {
        "astId": 2398,
        "contract": "contracts/AlToken.sol:AlToken",
        "label": "blacklist",
        "offset": 0,
        "slot": "8",
        "type": "t_mapping(t_address,t_bool)"
      },
      {
        "astId": 2403,
        "contract": "contracts/AlToken.sol:AlToken",
        "label": "paused",
        "offset": 0,
        "slot": "9",
        "type": "t_mapping(t_address,t_bool)"
      },
      {
        "astId": 2408,
        "contract": "contracts/AlToken.sol:AlToken",
        "label": "ceiling",
        "offset": 0,
        "slot": "10",
        "type": "t_mapping(t_address,t_uint256)"
      },
      {
        "astId": 2413,
        "contract": "contracts/AlToken.sol:AlToken",
        "label": "hasMinted",
        "offset": 0,
        "slot": "11",
        "type": "t_mapping(t_address,t_uint256)"
      }
    ],
    "types": {
      "t_address": {
        "encoding": "inplace",
        "label": "address",
        "numberOfBytes": "20"
      },
      "t_array(t_bytes32)dyn_storage": {
        "base": "t_bytes32",
        "encoding": "dynamic_array",
        "label": "bytes32[]",
        "numberOfBytes": "32"
      },
      "t_bool": {
        "encoding": "inplace",
        "label": "bool",
        "numberOfBytes": "1"
      },
      "t_bytes32": {
        "encoding": "inplace",
        "label": "bytes32",
        "numberOfBytes": "32"
      },
      "t_mapping(t_address,t_bool)": {
        "encoding": "mapping",
        "key": "t_address",
        "label": "mapping(address => bool)",
        "numberOfBytes": "32",
        "value": "t_bool"
      },
      "t_mapping(t_address,t_mapping(t_address,t_uint256))": {
        "encoding": "mapping",
        "key": "t_address",
        "label": "mapping(address => mapping(address => uint256))",
        "numberOfBytes": "32",
        "value": "t_mapping(t_address,t_uint256)"
      },
      "t_mapping(t_address,t_uint256)": {
        "encoding": "mapping",
        "key": "t_address",
        "label": "mapping(address => uint256)",
        "numberOfBytes": "32",
        "value": "t_uint256"
      },
      "t_mapping(t_bytes32,t_struct(RoleData)18_storage)": {
        "encoding": "mapping",
        "key": "t_bytes32",
        "label": "mapping(bytes32 => struct AccessControl.RoleData)",
        "numberOfBytes": "32",
        "value": "t_struct(RoleData)18_storage"
      },
      "t_mapping(t_bytes32,t_uint256)": {
        "encoding": "mapping",
        "key": "t_bytes32",
        "label": "mapping(bytes32 => uint256)",
        "numberOfBytes": "32",
        "value": "t_uint256"
      },
      "t_string_storage": {
        "encoding": "bytes",
        "label": "string",
        "numberOfBytes": "32"
      },
      "t_struct(AddressSet)2099_storage": {
        "encoding": "inplace",
        "label": "struct EnumerableSet.AddressSet",
        "members": [
          {
            "astId": 2098,
            "contract": "contracts/AlToken.sol:AlToken",
            "label": "_inner",
            "offset": 0,
            "slot": "0",
            "type": "t_struct(Set)1834_storage"
          }
        ],
        "numberOfBytes": "64"
      },
      "t_struct(RoleData)18_storage": {
        "encoding": "inplace",
        "label": "struct AccessControl.RoleData",
        "members": [
          {
            "astId": 15,
            "contract": "contracts/AlToken.sol:AlToken",
            "label": "members",
            "offset": 0,
            "slot": "0",
            "type": "t_struct(AddressSet)2099_storage"
          },
          {
            "astId": 17,
            "contract": "contracts/AlToken.sol:AlToken",
            "label": "adminRole",
            "offset": 0,
            "slot": "2",
            "type": "t_bytes32"
          }
        ],
        "numberOfBytes": "96"
      },
      "t_struct(Set)1834_storage": {
        "encoding": "inplace",
        "label": "struct EnumerableSet.Set",
        "members": [
          {
            "astId": 1829,
            "contract": "contracts/AlToken.sol:AlToken",
            "label": "_values",
            "offset": 0,
            "slot": "0",
            "type": "t_array(t_bytes32)dyn_storage"
          },
          {
            "astId": 1833,
            "contract": "contracts/AlToken.sol:AlToken",
            "label": "_indexes",
            "offset": 0,
            "slot": "1",
            "type": "t_mapping(t_bytes32,t_uint256)"
          }
        ],
        "numberOfBytes": "64"
      },
      "t_uint256": {
        "encoding": "inplace",
        "label": "uint256",
        "numberOfBytes": "32"
      },
      "t_uint8": {
        "encoding": "inplace",
        "label": "uint8",
        "numberOfBytes": "1"
      }
    }
  }
}