{
  "address": "0x101Df32d4ec12069B7487940E1E1696d8918b8CE",
  "abi": [
    {
      "inputs": [
        {
          "internalType": "contract IMintableERC20",
          "name": "_sourceToken",
          "type": "address"
        },
        {
          "internalType": "int128",
          "name": "_sourceIndex",
          "type": "int128"
        },
        {
          "internalType": "contract IMintableERC20",
          "name": "_token",
          "type": "address"
        },
        {
          "internalType": "contract IMintableERC20",
          "name": "_xtoken",
          "type": "address"
        },
        {
          "internalType": "address",
          "name": "_governance",
          "type": "address"
        },
        {
          "internalType": "address",
          "name": "_sentinel",
          "type": "address"
        }
      ],
      "stateMutability": "nonpayable",
      "type": "constructor"
    },
    {
      "anonymous": false,
      "inputs": [
        {
          "indexed": true,
          "internalType": "contract IVaultAdapter",
          "name": "adapter",
          "type": "address"
        }
      ],
      "name": "ActiveVaultUpdated",
      "type": "event"
    },
    {
      "anonymous": false,
      "inputs": [
        {
          "indexed": false,
          "internalType": "uint256",
          "name": "fee",
          "type": "uint256"
        }
      ],
      "name": "BorrowFeeUpdated",
      "type": "event"
    },
    {
      "anonymous": false,
      "inputs": [
        {
          "indexed": false,
          "internalType": "uint256",
          "name": "limit",
          "type": "uint256"
        }
      ],
      "name": "CollateralizationLimitUpdated",
      "type": "event"
    },
    {
      "anonymous": false,
      "inputs": [
        {
          "indexed": false,
          "internalType": "bool",
          "name": "status",
          "type": "bool"
        }
      ],
      "name": "EmergencyExitUpdated",
      "type": "event"
    },
    {
      "anonymous": false,
      "inputs": [
        {
          "indexed": false,
          "internalType": "uint256",
          "name": "amount",
          "type": "uint256"
        }
      ],
      "name": "FundsFlushed",
      "type": "event"
    },
    {
      "anonymous": false,
      "inputs": [
        {
          "indexed": false,
          "internalType": "uint256",
          "name": "withdrawnAmount",
          "type": "uint256"
        },
        {
          "indexed": false,
          "internalType": "uint256",
          "name": "decreasedValue",
          "type": "uint256"
        }
      ],
      "name": "FundsHarvested",
      "type": "event"
    },
    {
      "anonymous": false,
      "inputs": [
        {
          "indexed": true,
          "internalType": "uint256",
          "name": "vaultId",
          "type": "uint256"
        },
        {
          "indexed": false,
          "internalType": "uint256",
          "name": "withdrawnAmount",
          "type": "uint256"
        },
        {
          "indexed": false,
          "internalType": "uint256",
          "name": "decreasedValue",
          "type": "uint256"
        }
      ],
      "name": "FundsRecalled",
      "type": "event"
    },
    {
      "anonymous": false,
      "inputs": [
        {
          "indexed": false,
          "internalType": "address",
          "name": "governance",
          "type": "address"
        }
      ],
      "name": "GovernanceUpdated",
      "type": "event"
    },
    {
      "anonymous": false,
      "inputs": [
        {
          "indexed": false,
          "internalType": "uint256",
          "name": "fee",
          "type": "uint256"
        }
      ],
      "name": "HarvestFeeUpdated",
      "type": "event"
    },
    {
      "anonymous": false,
      "inputs": [
        {
          "indexed": false,
          "internalType": "uint256",
          "name": "pegMinimum",
          "type": "uint256"
        }
      ],
      "name": "PegMinimumUpdated",
      "type": "event"
    },
    {
      "anonymous": false,
      "inputs": [
        {
          "indexed": false,
          "internalType": "address",
          "name": "pendingGovernance",
          "type": "address"
        }
      ],
      "name": "PendingGovernanceUpdated",
      "type": "event"
    },
    {
      "anonymous": false,
      "inputs": [
        {
          "indexed": false,
          "internalType": "address",
          "name": "treasury",
          "type": "address"
        }
      ],
      "name": "RewardsUpdated",
      "type": "event"
    },
    {
      "anonymous": false,
      "inputs": [
        {
          "indexed": false,
          "internalType": "address",
          "name": "sentinel",
          "type": "address"
        }
      ],
      "name": "SentinelUpdated",
      "type": "event"
    },
    {
      "anonymous": false,
      "inputs": [
        {
          "indexed": true,
          "internalType": "address",
          "name": "account",
          "type": "address"
        },
        {
          "indexed": false,
          "internalType": "uint256",
          "name": "amount",
          "type": "uint256"
        }
      ],
      "name": "TokensDeposited",
      "type": "event"
    },
    {
      "anonymous": false,
      "inputs": [
        {
          "indexed": true,
          "internalType": "address",
          "name": "account",
          "type": "address"
        },
        {
          "indexed": false,
          "internalType": "uint256",
          "name": "requestedAmount",
          "type": "uint256"
        },
        {
          "indexed": false,
          "internalType": "uint256",
          "name": "withdrawnAmount",
          "type": "uint256"
        },
        {
          "indexed": false,
          "internalType": "uint256",
          "name": "decreasedValue",
          "type": "uint256"
        }
      ],
      "name": "TokensLiquidated",
      "type": "event"
    },
    {
      "anonymous": false,
      "inputs": [
        {
          "indexed": true,
          "internalType": "address",
          "name": "account",
          "type": "address"
        },
        {
          "indexed": false,
          "internalType": "uint256",
          "name": "parentAmount",
          "type": "uint256"
        },
        {
          "indexed": false,
          "internalType": "uint256",
          "name": "childAmount",
          "type": "uint256"
        }
      ],
      "name": "TokensRepaid",
      "type": "event"
    },
    {
      "anonymous": false,
      "inputs": [
        {
          "indexed": true,
          "internalType": "address",
          "name": "account",
          "type": "address"
        },
        {
          "indexed": false,
          "internalType": "uint256",
          "name": "requestedAmount",
          "type": "uint256"
        },
        {
          "indexed": false,
          "internalType": "uint256",
          "name": "withdrawnAmount",
          "type": "uint256"
        },
        {
          "indexed": false,
          "internalType": "uint256",
          "name": "decreasedValue",
          "type": "uint256"
        }
      ],
      "name": "TokensWithdrawn",
      "type": "event"
    },
    {
      "anonymous": false,
      "inputs": [
        {
          "indexed": false,
          "internalType": "address",
          "name": "transmuter",
          "type": "address"
        }
      ],
      "name": "TransmuterUpdated",
      "type": "event"
    },
    {
      "inputs": [],
      "name": "MAXIMUM_COLLATERALIZATION_LIMIT",
      "outputs": [
        {
          "internalType": "uint256",
          "name": "",
          "type": "uint256"
        }
      ],
      "stateMutability": "view",
      "type": "function"
    },
    {
      "inputs": [],
      "name": "MINIMUM_COLLATERALIZATION_LIMIT",
      "outputs": [
        {
          "internalType": "uint256",
          "name": "",
          "type": "uint256"
        }
      ],
      "stateMutability": "view",
      "type": "function"
    },
    {
      "inputs": [],
      "name": "PERCENT_RESOLUTION",
      "outputs": [
        {
          "internalType": "uint256",
          "name": "",
          "type": "uint256"
        }
      ],
      "stateMutability": "view",
      "type": "function"
    },
    {
      "inputs": [],
      "name": "ZERO_ADDRESS",
      "outputs": [
        {
          "internalType": "address",
          "name": "",
          "type": "address"
        }
      ],
      "stateMutability": "view",
      "type": "function"
    },
    {
      "inputs": [],
      "name": "acceptGovernance",
      "outputs": [],
      "stateMutability": "nonpayable",
      "type": "function"
    },
    {
      "inputs": [],
      "name": "borrowFee",
      "outputs": [
        {
          "internalType": "uint256",
          "name": "",
          "type": "uint256"
        }
      ],
      "stateMutability": "view",
      "type": "function"
    },
    {
      "inputs": [],
      "name": "collateralizationLimit",
      "outputs": [
        {
          "components": [
            {
              "internalType": "uint256",
              "name": "x",
              "type": "uint256"
            }
          ],
          "internalType": "struct FixedPointMath.FixedDecimal",
          "name": "",
          "type": "tuple"
        }
      ],
      "stateMutability": "view",
      "type": "function"
    },
    {
      "inputs": [
        {
          "internalType": "uint256",
          "name": "_amount",
          "type": "uint256"
        }
      ],
      "name": "deposit",
      "outputs": [],
      "stateMutability": "nonpayable",
      "type": "function"
    },
    {
      "inputs": [],
      "name": "emergencyExit",
      "outputs": [
        {
          "internalType": "bool",
          "name": "",
          "type": "bool"
        }
      ],
      "stateMutability": "view",
      "type": "function"
    },
    {
      "inputs": [],
      "name": "flush",
      "outputs": [
        {
          "internalType": "uint256",
          "name": "",
          "type": "uint256"
        }
      ],
      "stateMutability": "nonpayable",
      "type": "function"
    },
    {
      "inputs": [],
      "name": "flushActivator",
      "outputs": [
        {
          "internalType": "uint256",
          "name": "",
          "type": "uint256"
        }
      ],
      "stateMutability": "view",
      "type": "function"
    },
    {
      "inputs": [
        {
          "internalType": "address",
          "name": "_account",
          "type": "address"
        }
      ],
      "name": "getCdpLastDeposit",
      "outputs": [
        {
          "internalType": "uint256",
          "name": "",
          "type": "uint256"
        }
      ],
      "stateMutability": "view",
      "type": "function"
    },
    {
      "inputs": [
        {
          "internalType": "address",
          "name": "_account",
          "type": "address"
        }
      ],
      "name": "getCdpTotalCredit",
      "outputs": [
        {
          "internalType": "uint256",
          "name": "",
          "type": "uint256"
        }
      ],
      "stateMutability": "view",
      "type": "function"
    },
    {
      "inputs": [
        {
          "internalType": "address",
          "name": "_account",
          "type": "address"
        }
      ],
      "name": "getCdpTotalDebt",
      "outputs": [
        {
          "internalType": "uint256",
          "name": "",
          "type": "uint256"
        }
      ],
      "stateMutability": "view",
      "type": "function"
    },
    {
      "inputs": [
        {
          "internalType": "address",
          "name": "_account",
          "type": "address"
        }
      ],
      "name": "getCdpTotalDeposited",
      "outputs": [
        {
          "internalType": "uint256",
          "name": "",
          "type": "uint256"
        }
      ],
      "stateMutability": "view",
      "type": "function"
    },
    {
      "inputs": [
        {
          "internalType": "uint256",
          "name": "_vaultId",
          "type": "uint256"
        }
      ],
      "name": "getVaultAdapter",
      "outputs": [
        {
          "internalType": "contract IVaultAdapter",
          "name": "",
          "type": "address"
        }
      ],
      "stateMutability": "view",
      "type": "function"
    },
    {
      "inputs": [
        {
          "internalType": "uint256",
          "name": "_vaultId",
          "type": "uint256"
        }
      ],
      "name": "getVaultTotalDeposited",
      "outputs": [
        {
          "internalType": "uint256",
          "name": "",
          "type": "uint256"
        }
      ],
      "stateMutability": "view",
      "type": "function"
    },
    {
      "inputs": [],
      "name": "governance",
      "outputs": [
        {
          "internalType": "address",
          "name": "",
          "type": "address"
        }
      ],
      "stateMutability": "view",
      "type": "function"
    },
    {
      "inputs": [
        {
          "internalType": "uint256",
          "name": "_vaultId",
          "type": "uint256"
        }
      ],
      "name": "harvest",
      "outputs": [
        {
          "internalType": "uint256",
          "name": "",
          "type": "uint256"
        },
        {
          "internalType": "uint256",
          "name": "",
          "type": "uint256"
        }
      ],
      "stateMutability": "nonpayable",
      "type": "function"
    },
    {
      "inputs": [],
      "name": "harvestFee",
      "outputs": [
        {
          "internalType": "uint256",
          "name": "",
          "type": "uint256"
        }
      ],
      "stateMutability": "view",
      "type": "function"
    },
    {
      "inputs": [
        {
          "internalType": "contract IVaultAdapter",
          "name": "_adapter",
          "type": "address"
        }
      ],
      "name": "initialize",
      "outputs": [],
      "stateMutability": "nonpayable",
      "type": "function"
    },
    {
      "inputs": [],
      "name": "initialized",
      "outputs": [
        {
          "internalType": "bool",
          "name": "",
          "type": "bool"
        }
      ],
      "stateMutability": "view",
      "type": "function"
    },
    {
      "inputs": [
        {
          "internalType": "uint256",
          "name": "_amount",
          "type": "uint256"
        }
      ],
      "name": "liquidate",
      "outputs": [
        {
          "internalType": "uint256",
          "name": "",
          "type": "uint256"
        },
        {
          "internalType": "uint256",
          "name": "",
          "type": "uint256"
        }
      ],
      "stateMutability": "nonpayable",
      "type": "function"
    },
    {
      "inputs": [
        {
          "internalType": "contract IVaultAdapter",
          "name": "_adapter",
          "type": "address"
        }
      ],
      "name": "migrate",
      "outputs": [],
      "stateMutability": "nonpayable",
      "type": "function"
    },
    {
      "inputs": [
        {
          "internalType": "uint256",
          "name": "_amount",
          "type": "uint256"
        }
      ],
      "name": "mint",
      "outputs": [],
      "stateMutability": "nonpayable",
      "type": "function"
    },
    {
      "inputs": [],
      "name": "pegMinimum",
      "outputs": [
        {
          "internalType": "uint256",
          "name": "",
          "type": "uint256"
        }
      ],
      "stateMutability": "view",
      "type": "function"
    },
    {
      "inputs": [],
      "name": "pendingGovernance",
      "outputs": [
        {
          "internalType": "address",
          "name": "",
          "type": "address"
        }
      ],
      "stateMutability": "view",
      "type": "function"
    },
    {
      "inputs": [
        {
          "internalType": "uint256",
          "name": "_vaultId",
          "type": "uint256"
        },
        {
          "internalType": "uint256",
          "name": "_amount",
          "type": "uint256"
        }
      ],
      "name": "recall",
      "outputs": [
        {
          "internalType": "uint256",
          "name": "",
          "type": "uint256"
        },
        {
          "internalType": "uint256",
          "name": "",
          "type": "uint256"
        }
      ],
      "stateMutability": "nonpayable",
      "type": "function"
    },
    {
      "inputs": [
        {
          "internalType": "uint256",
          "name": "_vaultId",
          "type": "uint256"
        }
      ],
      "name": "recallAll",
      "outputs": [
        {
          "internalType": "uint256",
          "name": "",
          "type": "uint256"
        },
        {
          "internalType": "uint256",
          "name": "",
          "type": "uint256"
        }
      ],
      "stateMutability": "nonpayable",
      "type": "function"
    },
    {
      "inputs": [
        {
          "internalType": "uint256",
          "name": "_parentAmount",
          "type": "uint256"
        },
        {
          "internalType": "uint256",
          "name": "_childAmount",
          "type": "uint256"
        }
      ],
      "name": "repay",
      "outputs": [],
      "stateMutability": "nonpayable",
      "type": "function"
    },
    {
      "inputs": [],
      "name": "rewards",
      "outputs": [
        {
          "internalType": "address",
          "name": "",
          "type": "address"
        }
      ],
      "stateMutability": "view",
      "type": "function"
    },
    {
      "inputs": [],
      "name": "sentinel",
      "outputs": [
        {
          "internalType": "address",
          "name": "",
          "type": "address"
        }
      ],
      "stateMutability": "view",
      "type": "function"
    },
    {
      "inputs": [
        {
          "internalType": "uint256",
          "name": "_borrowFee",
          "type": "uint256"
        }
      ],
      "name": "setBorrowFee",
      "outputs": [],
      "stateMutability": "nonpayable",
      "type": "function"
    },
    {
      "inputs": [
        {
          "internalType": "uint256",
          "name": "_limit",
          "type": "uint256"
        }
      ],
      "name": "setCollateralizationLimit",
      "outputs": [],
      "stateMutability": "nonpayable",
      "type": "function"
    },
    {
      "inputs": [
        {
          "internalType": "bool",
          "name": "_emergencyExit",
          "type": "bool"
        }
      ],
      "name": "setEmergencyExit",
      "outputs": [],
      "stateMutability": "nonpayable",
      "type": "function"
    },
    {
      "inputs": [
        {
          "internalType": "uint256",
          "name": "_flushActivator",
          "type": "uint256"
        }
      ],
      "name": "setFlushActivator",
      "outputs": [],
      "stateMutability": "nonpayable",
      "type": "function"
    },
    {
      "inputs": [
        {
          "internalType": "uint256",
          "name": "_harvestFee",
          "type": "uint256"
        }
      ],
      "name": "setHarvestFee",
      "outputs": [],
      "stateMutability": "nonpayable",
      "type": "function"
    },
    {
      "inputs": [
        {
          "internalType": "uint256",
          "name": "peg",
          "type": "uint256"
        }
      ],
      "name": "setPegMinimum",
      "outputs": [],
      "stateMutability": "nonpayable",
      "type": "function"
    },
    {
      "inputs": [
        {
          "internalType": "address",
          "name": "_pendingGovernance",
          "type": "address"
        }
      ],
      "name": "setPendingGovernance",
      "outputs": [],
      "stateMutability": "nonpayable",
      "type": "function"
    },
    {
      "inputs": [
        {
          "internalType": "address",
          "name": "_rewards",
          "type": "address"
        }
      ],
      "name": "setRewards",
      "outputs": [],
      "stateMutability": "nonpayable",
      "type": "function"
    },
    {
      "inputs": [
        {
          "internalType": "address",
          "name": "_sentinel",
          "type": "address"
        }
      ],
      "name": "setSentinel",
      "outputs": [],
      "stateMutability": "nonpayable",
      "type": "function"
    },
    {
      "inputs": [
        {
          "internalType": "address",
          "name": "_transmuter",
          "type": "address"
        }
      ],
      "name": "setTransmuter",
      "outputs": [],
      "stateMutability": "nonpayable",
      "type": "function"
    },
    {
      "inputs": [],
      "name": "sourceIndex",
      "outputs": [
        {
          "internalType": "int128",
          "name": "",
          "type": "int128"
        }
      ],
      "stateMutability": "view",
      "type": "function"
    },
    {
      "inputs": [],
      "name": "sourceToken",
      "outputs": [
        {
          "internalType": "contract IMintableERC20",
          "name": "",
          "type": "address"
        }
      ],
      "stateMutability": "view",
      "type": "function"
    },
    {
      "inputs": [],
      "name": "token",
      "outputs": [
        {
          "internalType": "contract IMintableERC20",
          "name": "",
          "type": "address"
        }
      ],
      "stateMutability": "view",
      "type": "function"
    },
    {
      "inputs": [],
      "name": "totalDeposited",
      "outputs": [
        {
          "internalType": "uint256",
          "name": "",
          "type": "uint256"
        }
      ],
      "stateMutability": "view",
      "type": "function"
    },
    {
      "inputs": [],
      "name": "transmuter",
      "outputs": [
        {
          "internalType": "address",
          "name": "",
          "type": "address"
        }
      ],
      "stateMutability": "view",
      "type": "function"
    },
    {
      "inputs": [],
      "name": "vaultCount",
      "outputs": [
        {
          "internalType": "uint256",
          "name": "",
          "type": "uint256"
        }
      ],
      "stateMutability": "view",
      "type": "function"
    },
    {
      "inputs": [
        {
          "internalType": "uint256",
          "name": "_amount",
          "type": "uint256"
        }
      ],
      "name": "withdraw",
      "outputs": [
        {
          "internalType": "uint256",
          "name": "",
          "type": "uint256"
        },
        {
          "internalType": "uint256",
          "name": "",
          "type": "uint256"
        }
      ],
      "stateMutability": "nonpayable",
      "type": "function"
    },
    {
      "inputs": [],
      "name": "xtoken",
      "outputs": [
        {
          "internalType": "contract IMintableERC20",
          "name": "",
          "type": "address"
        }
      ],
      "stateMutability": "view",
      "type": "function"
    }
  ],
  "transactionHash": "0x3199c78ee30e0a8ad4c472d4cd68c5994a6c1eb4ab931cc997a0d2495257000e",
  "args": [
    "0xa770697cecA9Af6584aA59DD9F226eaF6Cd0c2dc",
    0,
    "0xA24A13f1DeD8e8DDd30472Fc8Ebb3b6Fee5987b9",
    "0x684307A89d59C55e873642038Ac4467Ac969FaC1",
    "0x69Dc1267198e2D21B56Ef0f1C6BcC57d96A7ED4B",
    "0x69Dc1267198e2D21B56Ef0f1C6BcC57d96A7ED4B"
  ],
  "solcInputHash": "ad5962d48d3484563b6cbe9716683aff",
  "bytecode": "0x60806040523480156200001157600080fd5b5060405162004bc538038062004bc58339810160408190526200003491620001b7565b60016000556001600160a01b0382166200006b5760405162461bcd60e51b815260040162000062906200024f565b60405180910390fd5b6001600160a01b038116620000945760405162461bcd60e51b81526004016200006290620002dc565b600180546001600160a01b03199081166001600160a01b0389811691909117909255600280546001600160801b0319166001600160801b03600f8a900b161781556003805483168885161790556004805483168785161790556005805483168685161790556007805490921692841692909217905569152d02c7e14af6800000600d556000906200013b90670de0b6b3a7640000906200016e602090811b6200269317901c565b604080516020808201835290839052600f9290925580519182019052600090819052601055506200033f95505050505050565b6000826200017f57506000620001b1565b828202828482816200018d57fe5b0414620001ae5760405162461bcd60e51b815260040162000062906200029b565b90505b92915050565b60008060008060008060c08789031215620001d0578182fd5b8651620001dd8162000326565b80965050602087015180600f0b8114620001f5578283fd5b6040880151909550620002088162000326565b60608801519094506200021b8162000326565b60808801519093506200022e8162000326565b60a0880151909250620002418162000326565b809150509295509295509295565b6020808252602c908201527f416c6368656d6973743a20676f7665726e616e6365206164647265737320636160408201526b373737ba10313290183c181760a11b606082015260800190565b60208082526021908201527f536166654d6174683a206d756c7469706c69636174696f6e206f766572666c6f6040820152607760f81b606082015260800190565b6020808252602a908201527f416c6368656d6973743a2073656e74696e656c20616464726573732063616e6e60408201526937ba10313290183c181760b11b606082015260800190565b6001600160a01b03811681146200033c57600080fd5b50565b614876806200034f6000396000f3fe608060405234801561001057600080fd5b50600436106103365760003560e01c8063792b55b6116101b2578063c869adb4116100f9578063f0d787a3116100a2578063fc00e8a01161007c578063fc00e8a01461060d578063fc0c546a14610620578063fefdc5d114610628578063ff50abdc1461063b57610336565b8063f0d787a3146105f5578063f39c38a0146105fd578063f58c251c1461060557610336565b8063ddc63262116100d3578063ddc63262146105c7578063e626648a146105da578063ec38a862146105e257610336565b8063c869adb41461058e578063ce5494bb146105a1578063d8aed145146105b457610336565b8063aa6e04341161015b578063b596291711610135578063b596291714610560578063b6b55f2514610568578063c4d66de81461057b57610336565b8063aa6e043414610527578063aaf166601461053a578063adb4a9ad1461054d57610336565b8063a0712d681161018c578063a0712d68146104f9578063a1e401a91461050c578063a7c6a1001461051f57610336565b8063792b55b6146104cb5780639a9af221146104de5780639ec5a894146104f157610336565b80633847f03811610281578063538ba4f91161022a5780635aa6e675116102045780635aa6e675146104ab5780635f8aaa69146104b35780636b9f96ea146104bb5780637239d2b9146104c357610336565b8063538ba4f91461048857806353ffa18b146104905780635641ec03146104a357610336565b806345f867b31161025b57806345f867b3146104585780634aaf7c65146104605780634c3a8e021461047557610336565b80633847f0381461042a578063415f12401461043257806345ee07551461044557610336565b806322c37b75116102e35780632e1a7d4d116102bd5780632e1a7d4d146103ee57806330d4d1901461040f57806334024e021461041757610336565b806322c37b75146103c0578063238efcbc146103d35780632670fdd8146103db57610336565b8063158ef93e11610314578063158ef93e146103815780631718a68f146103965780631c2066be146103ab57610336565b80630510111e1461033b57806309dac061146103595780630abb60351461036e575b600080fd5b610343610643565b604051610350919061472b565b60405180910390f35b61036c610367366004613c91565b61064f565b005b61036c61037c366004613c91565b610771565b61038961087f565b6040516103509190613e1e565b61039e610888565b6040516103509190613d6e565b6103b36108a4565b6040516103509190613e29565b61036c6103ce366004613d01565b6108ad565b61036c610903565b61039e6103e9366004613d01565b6109c5565b6104016103fc366004613d01565b6109f1565b604051610350929190614768565b610343610c07565b61036c610425366004613d01565b610c13565b610343610c99565b610401610440366004613d01565b610c9f565b61036c610453366004613cad565b610f0d565b610343610fe0565b610468610fe6565b6040516103509190614721565b610401610483366004613d01565b611002565b61039e6110b0565b61036c61049e366004613d01565b6110b5565b6103896111ca565b61039e6111d8565b61039e6111f4565b610343611210565b61039e6112e4565b61036c6104d9366004613d01565b611300565b6103436104ec366004613c91565b6113c2565b61039e6113ed565b61036c610507366004613d01565b611409565b61034361051a366004613c91565b6117e9565b610343611811565b610343610535366004613c91565b611822565b610343610548366004613d01565b611859565b61036c61055b366004613c91565b611872565b610343611980565b61036c610576366004613d01565b611986565b61036c610589366004613c91565b611ccd565b61036c61059c366004613d01565b611e30565b61036c6105af366004613c91565b611ef2565b61036c6105c2366004613d31565b611f8b565b6104016105d5366004613d01565b61230a565b610343612464565b61036c6105f0366004613c91565b61246a565b610343612578565b61039e61257e565b61039e61259a565b61034361061b366004613c91565b6125b6565b61039e6125e6565b610401610636366004613d31565b612602565b61034361268d565b673782dace9d90000081565b60055473ffffffffffffffffffffffffffffffffffffffff1633146106a9576040517f08c379a00000000000000000000000000000000000000000000000000000000081526004016106a090614224565b60405180910390fd5b73ffffffffffffffffffffffffffffffffffffffff81166106f6576040517f08c379a00000000000000000000000000000000000000000000000000000000081526004016106a090614508565b600780547fffffffffffffffffffffffff00000000000000000000000000000000000000001673ffffffffffffffffffffffffffffffffffffffff83161790556040517fdc117600f93282860144d2cd2745f8e2e15c3ca2a32b4290c30f7cd1ae7ffcb990610766908390613d6e565b60405180910390a150565b60055473ffffffffffffffffffffffffffffffffffffffff1633146107c2576040517f08c379a00000000000000000000000000000000000000000000000000000000081526004016106a090614224565b73ffffffffffffffffffffffffffffffffffffffff811661080f576040517f08c379a00000000000000000000000000000000000000000000000000000000081526004016106a090613ee5565b600680547fffffffffffffffffffffffff00000000000000000000000000000000000000001673ffffffffffffffffffffffffffffffffffffffff83161790556040517fc9e2377236eab4280090ce8f2317332649736d92f00dcf20a8dd6684ec5e783990610766908390613d6e565b600e5460ff1681565b60045473ffffffffffffffffffffffffffffffffffffffff1681565b600254600f0b81565b60055473ffffffffffffffffffffffffffffffffffffffff1633146108fe576040517f08c379a00000000000000000000000000000000000000000000000000000000081526004016106a090614224565b600d55565b60065473ffffffffffffffffffffffffffffffffffffffff16338114610955576040517f08c379a00000000000000000000000000000000000000000000000000000000081526004016106a090614315565b600580547fffffffffffffffffffffffff00000000000000000000000000000000000000001673ffffffffffffffffffffffffffffffffffffffff83161790556040517f9d3e522e1e47a2f6009739342b9cc7b252a1888154e843ab55ee1c81745795ab90610766908390613d6e565b6000806109d36012846126f0565b5473ffffffffffffffffffffffffffffffffffffffff169392505050565b60008060026000541415610a31576040517f08c379a00000000000000000000000000000000000000000000000000000000081526004016106a090614565565b6002600055610a3f33612717565b158015610a4b57503332145b610a81576040517f08c379a00000000000000000000000000000000000000000000000000000000081526004016106a090614033565b600e5460ff16610abd576040517f08c379a00000000000000000000000000000000000000000000000000000000081526004016106a090614474565b33600090815260116020526040902060038101544311610b09576040517f08c379a00000000000000000000000000000000000000000000000000000000081526004016106a09061434c565b610b1481600f61271d565b600080610b21338761278f565b60408051808201909152601b81527f4578636565647320776974686472617761626c6520616d6f756e74000000000060208201528554929450909250610b6991908390612a4b565b835560408051606081019091526031808252610b9291600f916147e96020830139859190612a91565b600d548610610ba557610ba3612ada565b505b3373ffffffffffffffffffffffffffffffffffffffff167fb3ad69dc1d2c6b1f5f5b0927ffd8ee8f1437a156253c8f6dccc75e6f8e4fd38b878484604051610bef93929190614776565b60405180910390a26001600055909590945092505050565b670de0b6b3a764000081565b60055473ffffffffffffffffffffffffffffffffffffffff163314610c64576040517f08c379a00000000000000000000000000000000000000000000000000000000081526004016106a090614224565b60138190556040517f5ed2ed42a3f6f395decb1c6e41b55d52532f9a0bd40293262be91d7b881264039061076690839061472b565b60135481565b60008060026000541415610cdf576040517f08c379a00000000000000000000000000000000000000000000000000000000081526004016106a090614565565b6002600055610ced33612717565b158015610cf957503332145b610d2f576040517f08c379a00000000000000000000000000000000000000000000000000000000081526004016106a090614033565b60135415610e1157601354600360009054906101000a900473ffffffffffffffffffffffffffffffffffffffff1673ffffffffffffffffffffffffffffffffffffffff1663bb7b8b806040518163ffffffff1660e01b815260040160206040518083038186803b158015610da257600080fd5b505afa158015610db6573d6000803e3d6000fd5b505050506040513d601f19601f82011682018060405250810190610dda9190613d19565b11610e11576040517f08c379a00000000000000000000000000000000000000000000000000000000081526004016106a090614630565b600e5460ff16610e4d576040517f08c379a00000000000000000000000000000000000000000000000000000000081526004016106a090614474565b336000908152601160205260409020610e6781600f61271d565b8060010154841115610e7b57806001015493505b600080610e88308761278f565b91509150610e9582612b33565b6040805160208101909152600081528354610eb1918390612a4b565b83556040805160208101909152600081526001840154610ed2918490612a4b565b600184015560405133907f3ea051727656be6fd11c2260f244f29ff3c70d1fb077bfa73e89d554e9bb95c790610bef90899086908690614776565b60055473ffffffffffffffffffffffffffffffffffffffff16331480610f4a575060075473ffffffffffffffffffffffffffffffffffffffff1633145b610f80576040517f08c379a00000000000000000000000000000000000000000000000000000000081526004016106a09061434c565b600e80547fffffffffffffffffffffffffffffffffffffffffffffffffffffffffffff00ff16610100831515021790556040517ff0064f2efd0da4bc63eecf2e75590fe8a308eaa526a51c334e50eec09a71104990610766908390613e1e565b61271081565b610fee613c60565b506040805160208101909152600f54815290565b60008060026000541415611042576040517f08c379a00000000000000000000000000000000000000000000000000000000081526004016106a090614565565b6002600055600e5460ff16611083576040517f08c379a00000000000000000000000000000000000000000000000000000000081526004016106a090614474565b60006110906012856126f0565b90506110a0848260010154612cf6565b6001600055909590945092505050565b600081565b60055473ffffffffffffffffffffffffffffffffffffffff163314611106576040517f08c379a00000000000000000000000000000000000000000000000000000000081526004016106a090614224565b670de0b6b3a7640000811015611148576040517f08c379a00000000000000000000000000000000000000000000000000000000081526004016106a09061416a565b673782dace9d90000081111561118a576040517f08c379a00000000000000000000000000000000000000000000000000000000081526004016106a0906141c7565b60408051602081018252829052600f829055517ff78180bc708b1292177c888900951cd66a39faf48dc7b6d111e93285dbbe55a09061076690839061472b565b600e54610100900460ff1681565b60055473ffffffffffffffffffffffffffffffffffffffff1681565b60015473ffffffffffffffffffffffffffffffffffffffff1681565b60006002600054141561124f576040517f08c379a00000000000000000000000000000000000000000000000000000000081526004016106a090614565565b6002600055600e54610100900460ff1615611296576040517f08c379a00000000000000000000000000000000000000000000000000000000081526004016106a09061435d565b600e5460ff166112d2576040517f08c379a00000000000000000000000000000000000000000000000000000000081526004016106a090614474565b6112da612ada565b9050600160005590565b60085473ffffffffffffffffffffffffffffffffffffffff1681565b60055473ffffffffffffffffffffffffffffffffffffffff163314611351576040517f08c379a00000000000000000000000000000000000000000000000000000000081526004016106a090614224565b61271081111561138d576040517f08c379a00000000000000000000000000000000000000000000000000000000081526004016106a0906142b8565b600a8190556040517fc36862a253ff42cc71f4f200d3c62e8e5eaaece01041fc6900aeace64ade72a89061076690839061472b565b73ffffffffffffffffffffffffffffffffffffffff1660009081526011602052604090206003015490565b60095473ffffffffffffffffffffffffffffffffffffffff1681565b60026000541415611446576040517f08c379a00000000000000000000000000000000000000000000000000000000081526004016106a090614565565b6002600055600e54610100900460ff161561148d576040517f08c379a00000000000000000000000000000000000000000000000000000000081526004016106a09061435d565b61149633612717565b1580156114a257503332145b6114d8576040517f08c379a00000000000000000000000000000000000000000000000000000000081526004016106a090614033565b601354156115ba57601354600360009054906101000a900473ffffffffffffffffffffffffffffffffffffffff1673ffffffffffffffffffffffffffffffffffffffff1663bb7b8b806040518163ffffffff1660e01b815260040160206040518083038186803b15801561154b57600080fd5b505afa15801561155f573d6000803e3d6000fd5b505050506040513d601f19601f820116820180604052508101906115839190613d19565b116115ba576040517f08c379a00000000000000000000000000000000000000000000000000000000081526004016106a090614630565b600e5460ff166115f6576040517f08c379a00000000000000000000000000000000000000000000000000000000081526004016106a090614474565b33600090815260116020526040902061161081600f61271d565b60028101548281101561173357600b5481840390156116eb57600061164c612710611646600b548561269390919063ffffffff16565b90612dd9565b90506116588282612e25565b600480546009546040517f40c10f1900000000000000000000000000000000000000000000000000000000815293955073ffffffffffffffffffffffffffffffffffffffff918216936340c10f19936116b79390921691869101613d8f565b600060405180830381600087803b1580156116d157600080fd5b505af11580156116e5573d6000803e3d6000fd5b50505050505b60018301546116fa9082612e25565b6001840155600060028401556040805160608101909152602780825261172d91600f9161481a6020830139859190612a91565b50611743565b61173d8184612e64565b60028301555b600480546040517f40c10f1900000000000000000000000000000000000000000000000000000000815273ffffffffffffffffffffffffffffffffffffffff909116916340c10f199161179a913391889101613d8f565b600060405180830381600087803b1580156117b457600080fd5b505af11580156117c8573d6000803e3d6000fd5b50505050600d5483106117df576117dd612ada565b505b5050600160005550565b73ffffffffffffffffffffffffffffffffffffffff1660009081526011602052604090205490565b600061181d6012612ea6565b905090565b73ffffffffffffffffffffffffffffffffffffffff8116600090815260116020526040812061185281600f612eaa565b9392505050565b6000806118676012846126f0565b600101549392505050565b60055473ffffffffffffffffffffffffffffffffffffffff1633146118c3576040517f08c379a00000000000000000000000000000000000000000000000000000000081526004016106a090614224565b73ffffffffffffffffffffffffffffffffffffffff8116611910576040517f08c379a00000000000000000000000000000000000000000000000000000000081526004016106a090613e88565b600880547fffffffffffffffffffffffff00000000000000000000000000000000000000001673ffffffffffffffffffffffffffffffffffffffff83161790556040517fe42bb1780117f5788c6e0042e955291223819875891ddf465b8e4fbb85a933e990610766908390613d6e565b600a5481565b600260005414156119c3576040517f08c379a00000000000000000000000000000000000000000000000000000000081526004016106a090614565565b6002600055600e54610100900460ff1615611a0a576040517f08c379a00000000000000000000000000000000000000000000000000000000081526004016106a09061435d565b611a1333612717565b158015611a1f57503332145b611a55576040517f08c379a00000000000000000000000000000000000000000000000000000000081526004016106a090614033565b600e5460ff16611a91576040517f08c379a00000000000000000000000000000000000000000000000000000000081526004016106a090614474565b336000908152601160205260409020611aab81600f61271d565b600154611ad09073ffffffffffffffffffffffffffffffffffffffff16333085612eda565b6001546003546040517f095ea7b300000000000000000000000000000000000000000000000000000000815273ffffffffffffffffffffffffffffffffffffffff9283169263095ea7b392611b2c929116908690600401613d8f565b602060405180830381600087803b158015611b4657600080fd5b505af1158015611b5a573d6000803e3d6000fd5b505050506040513d601f19601f82011682018060405250810190611b7e9190613cc9565b50611b87613c73565b6002805484918391600f90810b900b908110611b9f57fe5b60200201526003546040517f0b4c7e4d00000000000000000000000000000000000000000000000000000000815260009173ffffffffffffffffffffffffffffffffffffffff1690630b4c7e4d90611bfd9085908590600401613de6565b602060405180830381600087803b158015611c1757600080fd5b505af1158015611c2b573d6000803e3d6000fd5b505050506040513d601f19601f82011682018060405250810190611c4f9190613d19565b9050600d548110611c6457611c62612ada565b505b600c54611c719082612e25565b600c558254611c809082612e25565b835543600384015560405133907f59062170a285eb80e8c6b8ced60428442a51910635005233fc4ce084a475845e90611cba90849061472b565b60405180910390a2505060016000555050565b60055473ffffffffffffffffffffffffffffffffffffffff163314611d1e576040517f08c379a00000000000000000000000000000000000000000000000000000000081526004016106a090614224565b600e5460ff1615611d5b576040517f08c379a00000000000000000000000000000000000000000000000000000000081526004016106a090614068565b60085473ffffffffffffffffffffffffffffffffffffffff16611daa576040517f08c379a00000000000000000000000000000000000000000000000000000000081526004016106a090613f42565b60095473ffffffffffffffffffffffffffffffffffffffff16611df9576040517f08c379a00000000000000000000000000000000000000000000000000000000081526004016106a090613fd6565b611e0281612f7d565b50600e80547fffffffffffffffffffffffffffffffffffffffffffffffffffffffffffffff00166001179055565b60055473ffffffffffffffffffffffffffffffffffffffff163314611e81576040517f08c379a00000000000000000000000000000000000000000000000000000000081526004016106a090614224565b612710811115611ebd576040517f08c379a00000000000000000000000000000000000000000000000000000000081526004016106a090614667565b600b8190556040517fe06319d5f3489148c5b3d388187bd61bb8e051b6f054d72e4eec0e07118a19039061076690839061472b565b600e5460ff16611f2e576040517f08c379a00000000000000000000000000000000000000000000000000000000081526004016106a090614474565b60055473ffffffffffffffffffffffffffffffffffffffff163314611f7f576040517f08c379a00000000000000000000000000000000000000000000000000000000081526004016106a090614224565b611f8881612f7d565b50565b60026000541415611fc8576040517f08c379a00000000000000000000000000000000000000000000000000000000081526004016106a090614565565b6002600055611fd633612717565b158015611fe257503332145b612018576040517f08c379a00000000000000000000000000000000000000000000000000000000081526004016106a090614033565b601354156120fa57601354600360009054906101000a900473ffffffffffffffffffffffffffffffffffffffff1673ffffffffffffffffffffffffffffffffffffffff1663bb7b8b806040518163ffffffff1660e01b815260040160206040518083038186803b15801561208b57600080fd5b505afa15801561209f573d6000803e3d6000fd5b505050506040513d601f19601f820116820180604052508101906120c39190613d19565b116120fa576040517f08c379a00000000000000000000000000000000000000000000000000000000081526004016106a090614630565b600e5460ff16612136576040517f08c379a00000000000000000000000000000000000000000000000000000000081526004016106a090614474565b33600090815260116020526040902061215081600f61271d565b82156121845760035461217b9073ffffffffffffffffffffffffffffffffffffffff16333086612eda565b61218483612b33565b811561229b57600480546040517f79cc679000000000000000000000000000000000000000000000000000000000815273ffffffffffffffffffffffffffffffffffffffff909116916379cc6790916121e1913391879101613d8f565b600060405180830381600087803b1580156121fb57600080fd5b505af115801561220f573d6000803e3d6000fd5b5050600480546040517f288aafcb00000000000000000000000000000000000000000000000000000000815273ffffffffffffffffffffffffffffffffffffffff909116935063288aafcb92506122689186910161472b565b600060405180830381600087803b15801561228257600080fd5b505af1158015612296573d6000803e3d6000fd5b505050505b60006122a78484612e25565b90506122d181604051806020016040528060008152508460010154612a4b9092919063ffffffff16565b600183015560405133907fbade234341a40ca3c71df59b3ca02b8bb65b491a098af970953228b4f4a5d38f90611cba9087908790614768565b600e54600090819060ff1661234b576040517f08c379a00000000000000000000000000000000000000000000000000000000081526004016106a090614474565b60006123586012856126f0565b90506000806123678330613136565b9092509050811561242057600061238f612710611646600a548661269390919063ffffffff16565b9050600061239d8483612e64565b90506123a7613c60565b6123bc600c546123b684613189565b906131cb565b604080516020810190915260105481529091506123d990826131ff565b51601055821561240d5760095460035461240d9173ffffffffffffffffffffffffffffffffffffffff91821691168561322f565b811561241c5761241c82612b33565b5050505b7f11d2034f4471d11a13f0f1798ceaf0c9db2812d450a0681958ce7d4f2fb97f098282604051612451929190614768565b60405180910390a1909350915050915091565b600b5481565b60055473ffffffffffffffffffffffffffffffffffffffff1633146124bb576040517f08c379a00000000000000000000000000000000000000000000000000000000081526004016106a090614224565b73ffffffffffffffffffffffffffffffffffffffff8116612508576040517f08c379a00000000000000000000000000000000000000000000000000000000081526004016106a0906146c4565b600980547fffffffffffffffffffffffff00000000000000000000000000000000000000001673ffffffffffffffffffffffffffffffffffffffff83161790556040517f05f3326e0527f309d4015dee3bc3f36e650b53fc823bab69c99847814acfafdf90610766908390613d6e565b600d5481565b60065473ffffffffffffffffffffffffffffffffffffffff1681565b60075473ffffffffffffffffffffffffffffffffffffffff1681565b73ffffffffffffffffffffffffffffffffffffffff8116600090815260116020526040812061185281600f613253565b60035473ffffffffffffffffffffffffffffffffffffffff1681565b60008060026000541415612642576040517f08c379a00000000000000000000000000000000000000000000000000000000081526004016106a090614565565b6002600055600e5460ff16612683576040517f08c379a00000000000000000000000000000000000000000000000000000000081526004016106a090614474565b6110a08484612cf6565b600c5481565b6000826126a2575060006126ea565b828202828482816126af57fe5b04146126e7576040517f08c379a00000000000000000000000000000000000000000000000000000000081526004016106a09061425b565b90505b92915050565b600082600001828154811061270157fe5b9060005260206000209060020201905092915050565b3b151590565b6000612729838361329a565b9050826001015481111561276d5761275c612751846001015483612e6490919063ffffffff16565b600285015490612e25565b600284015560006001840155612782565b600183015461277c9082612e64565b60018401555b5060010154600490910155565b6003546040517f70a082310000000000000000000000000000000000000000000000000000000081526000918291829161284591869173ffffffffffffffffffffffffffffffffffffffff16906370a08231906127f0903090600401613d6e565b60206040518083038186803b15801561280857600080fd5b505afa15801561281c573d6000803e3d6000fd5b505050506040513d601f19601f820116820180604052508101906128409190613d19565b613313565b905073ffffffffffffffffffffffffffffffffffffffff8516301461291a576003546002546040517f081579a500000000000000000000000000000000000000000000000000000000815273ffffffffffffffffffffffffffffffffffffffff9092169163081579a5916128c6918591600f0b906000908b90600401614734565b602060405180830381600087803b1580156128e057600080fd5b505af11580156128f4573d6000803e3d6000fd5b505050506040513d601f19601f820116820180604052508101906129189190613d19565b505b808060006129288783612e64565b90508015612a2c5760008061294930846129426012613329565b9190613354565b91509150600360009054906101000a900473ffffffffffffffffffffffffffffffffffffffff1673ffffffffffffffffffffffffffffffffffffffff1663081579a583600260009054906101000a9004600f0b60008e6040518563ffffffff1660e01b81526004016129be9493929190614734565b602060405180830381600087803b1580156129d857600080fd5b505af11580156129ec573d6000803e3d6000fd5b505050506040513d601f19601f82011682018060405250810190612a109190613d19565b50612a1b8583612e25565b9450612a278482612e25565b935050505b600c54612a399083612e64565b600c55509093509150505b9250929050565b60008184841115612a89576040517f08c379a00000000000000000000000000000000000000000000000000000000081526004016106a09190613e37565b505050900390565b612a9b838361338a565b8190612ad4576040517f08c379a00000000000000000000000000000000000000000000000000000000081526004016106a09190613e37565b50505050565b600080612ae76012613329565b90506000612af4826133b8565b90507f860f4701faa0ecdeecd9e9eaae11a8612bbd01c663081f7c0c4e4873df653d6981604051612b25919061472b565b60405180910390a191505090565b6003546008546040517f095ea7b300000000000000000000000000000000000000000000000000000000815273ffffffffffffffffffffffffffffffffffffffff9283169263095ea7b392612b8f929116908590600401613d8f565b602060405180830381600087803b158015612ba957600080fd5b505af1158015612bbd573d6000803e3d6000fd5b505050506040513d601f19601f82011682018060405250810190612be19190613cc9565b506008546040517ffb93210800000000000000000000000000000000000000000000000000000000815273ffffffffffffffffffffffffffffffffffffffff9091169063fb93210890612c3a9030908590600401613d8f565b600060405180830381600087803b158015612c5457600080fd5b505af1158015612c68573d6000803e3d6000fd5b5050600480546040517f288aafcb00000000000000000000000000000000000000000000000000000000815273ffffffffffffffffffffffffffffffffffffffff909116935063288aafcb9250612cc19185910161472b565b600060405180830381600087803b158015612cdb57600080fd5b505af1158015612cef573d6000803e3d6000fd5b5050505050565b600e546000908190610100900460ff1680612d28575060055473ffffffffffffffffffffffffffffffffffffffff1633145b80612d3c5750612d386012613459565b8414155b612d72576040517f08c379a00000000000000000000000000000000000000000000000000000000081526004016106a0906143cb565b6000612d7f6012866126f0565b9050600080612d8f833088613354565b91509150867fccbd929f935422b28ee209a0db0556280b0a3d9bc4da58f1d3f0ab4f8a4996478383604051612dc5929190614768565b60405180910390a290969095509350505050565b6000808211612e14576040517f08c379a00000000000000000000000000000000000000000000000000000000081526004016106a090614133565b818381612e1d57fe5b049392505050565b6000828201838110156126e7576040517f08c379a00000000000000000000000000000000000000000000000000000000081526004016106a090613f9f565b600082821115612ea0576040517f08c379a00000000000000000000000000000000000000000000000000000000081526004016106a09061409f565b50900390565b5490565b600080612eb7848461329a565b600185015490915080821015612ecf570390506126ea565b506000949350505050565b612ad4846323b872dd60e01b858585604051602401612efb93929190613db5565b604080517fffffffffffffffffffffffffffffffffffffffffffffffffffffffffffffffe08184030181529190526020810180517bffffffffffffffffffffffffffffffffffffffffffffffffffffffff167fffffffff00000000000000000000000000000000000000000000000000000000909316929092179091526134b2565b73ffffffffffffffffffffffffffffffffffffffff8116612fca576040517f08c379a00000000000000000000000000000000000000000000000000000000081526004016106a0906145d3565b600354604080517ffc0c546a000000000000000000000000000000000000000000000000000000008152905173ffffffffffffffffffffffffffffffffffffffff9283169284169163fc0c546a916004808301926020929190829003018186803b15801561303757600080fd5b505afa15801561304b573d6000803e3d6000fd5b505050506040513d601f19601f8201168201806040525081019061306f9190613ce5565b73ffffffffffffffffffffffffffffffffffffffff16146130bc576040517f08c379a00000000000000000000000000000000000000000000000000000000081526004016106a09061459c565b6040805180820190915273ffffffffffffffffffffffffffffffffffffffff82168152600060208201526130f290601290613568565b60405173ffffffffffffffffffffffffffffffffffffffff8216907f0821015de34e20b0878a40f6f165801417f53b2017016d7321cacee989c8cfa790600090a250565b6000808360010154613147856135d0565b1161315757506000905080612a44565b6000613170856001015461316a876135d0565b90612e64565b905061317d858583613672565b92509250509250929050565b613191613c60565b60008215806131ae575050670de0b6b3a764000082810290810483145b6131b757600080fd5b604080516020810190915290815292915050565b6131d3613c60565b816131dd57600080fd5b6040518060200160405280838560000151816131f557fe5b0490529392505050565b613207613c60565b8251825181019081101561321a57600080fd5b60408051602081019091529081529392505050565b61324e8363a9059cbb60e01b8484604051602401612efb929190613d8f565b505050565b600080613260848461329a565b90508061327357505060028201546126ea565b600184015480821161328a576000925050506126ea565b6002850154910301905092915050565b60006132a4613c60565b506040805160208101909152600183015481526132bf613c60565b506040805160208101909152600485015481526132dc828261385b565b6132eb576000925050506126ea565b845461330a90613305906132ff85856138aa565b906138c5565b6138f3565b95945050505050565b600081831061332257816126e7565b5090919050565b60008161333581613459565b8154811061333f57fe5b90600052602060002090600202019050919050565b6000808080613364878787613672565b600189015491935091506133789082612e64565b60018801559092509050935093915050565b6000806133af61339a8585613902565b6040805160208101909152855481529061385b565b13159392505050565b6000806133c483613946565b90506118528173ffffffffffffffffffffffffffffffffffffffff166370a08231306040518263ffffffff1660e01b81526004016134029190613d6e565b60206040518083038186803b15801561341a57600080fd5b505afa15801561342e573d6000803e3d6000fd5b505050506040513d601f19601f820116820180604052508101906134529190613d19565b84906139e8565b60008061346583612ea6565b905061185260016040518060400160405280601a81526020017f416c6368656d6973745661756c742e4c6973743a20656d70747900000000000081525083612a4b9092919063ffffffff16565b6060613514826040518060400160405280602081526020017f5361666545524332303a206c6f772d6c6576656c2063616c6c206661696c65648152508573ffffffffffffffffffffffffffffffffffffffff16613ac29092919063ffffffff16565b80519091501561324e57808060200190518101906135329190613cc9565b61324e576040517f08c379a00000000000000000000000000000000000000000000000000000000081526004016106a0906144ab565b8154600180820184556000938452602093849020835160029093020180547fffffffffffffffffffffffff00000000000000000000000000000000000000001673ffffffffffffffffffffffffffffffffffffffff9093169290921782559190920151910155565b8054604080517fd4c3eea0000000000000000000000000000000000000000000000000000000008152905160009273ffffffffffffffffffffffffffffffffffffffff169163d4c3eea0916004808301926020929190829003018186803b15801561363a57600080fd5b505afa15801561364e573d6000803e3d6000fd5b505050506040513d601f19601f820116820180604052508101906126ea9190613d19565b600080600061368086613946565b905060008173ffffffffffffffffffffffffffffffffffffffff166370a08231876040518263ffffffff1660e01b81526004016136bd9190613d6e565b60206040518083038186803b1580156136d557600080fd5b505afa1580156136e9573d6000803e3d6000fd5b505050506040513d601f19601f8201168201806040525081019061370d9190613d19565b9050600061371a886135d0565b88546040517ff3fef3a300000000000000000000000000000000000000000000000000000000815291925073ffffffffffffffffffffffffffffffffffffffff169063f3fef3a390613772908a908a90600401613d8f565b600060405180830381600087803b15801561378c57600080fd5b505af11580156137a0573d6000803e3d6000fd5b505050506000613833838573ffffffffffffffffffffffffffffffffffffffff166370a082318b6040518263ffffffff1660e01b81526004016137e39190613d6e565b60206040518083038186803b1580156137fb57600080fd5b505afa15801561380f573d6000803e3d6000fd5b505050506040513d601f19601f8201168201806040525081019061316a9190613d19565b9050600061384a6138438b6135d0565b8490612e64565b919a91995090975050505050505050565b80518251600091111561388f57507fffffffffffffffffffffffffffffffffffffffffffffffffffffffffffffffff6126ea565b8151835111156138a1575060016126ea565b50600092915050565b6138b2613c60565b8251825181039081111561321a57600080fd5b6138cd613c60565b60008215806138ea5750508251828102908382816138e757fe5b04145b61321a57600080fd5b51670de0b6b3a7640000900490565b61390a613c60565b60006139168484612eaa565b90508061392d57613925613ad1565b9150506126ea565b61393e816123b68660000154613189565b949350505050565b8054604080517ffc0c546a000000000000000000000000000000000000000000000000000000008152905160009273ffffffffffffffffffffffffffffffffffffffff169163fc0c546a916004808301926020929190829003018186803b1580156139b057600080fd5b505afa1580156139c4573d6000803e3d6000fd5b505050506040513d601f19601f820116820180604052508101906126ea9190613ce5565b6000806139f484613946565b8454909150613a1d9073ffffffffffffffffffffffffffffffffffffffff80841691168561322f565b83546040517fb6b55f2500000000000000000000000000000000000000000000000000000000815273ffffffffffffffffffffffffffffffffffffffff9091169063b6b55f2590613a7290869060040161472b565b600060405180830381600087803b158015613a8c57600080fd5b505af1158015613aa0573d6000803e3d6000fd5b5050506001850154613ab3915084612e25565b60018501555081905092915050565b606061393e8484600085613b0b565b613ad9613c60565b5060408051602081019091527fffffffffffffffffffffffffffffffffffffffffffffffffffffffffffffffff815290565b606082471015613b47576040517f08c379a00000000000000000000000000000000000000000000000000000000081526004016106a0906140d6565b613b5085612717565b613b86576040517f08c379a00000000000000000000000000000000000000000000000000000000081526004016106a090614394565b600060608673ffffffffffffffffffffffffffffffffffffffff168587604051613bb09190613d52565b60006040518083038185875af1925050503d8060008114613bed576040519150601f19603f3d011682016040523d82523d6000602084013e613bf2565b606091505b5091509150613c02828286613c0d565b979650505050505050565b60608315613c1c575081611852565b825115613c2c5782518084602001fd5b816040517f08c379a00000000000000000000000000000000000000000000000000000000081526004016106a09190613e37565b6040518060200160405280600081525090565b60405180604001604052806002906020820280368337509192915050565b600060208284031215613ca2578081fd5b81356126e7816147b8565b600060208284031215613cbe578081fd5b81356126e7816147da565b600060208284031215613cda578081fd5b81516126e7816147da565b600060208284031215613cf6578081fd5b81516126e7816147b8565b600060208284031215613d12578081fd5b5035919050565b600060208284031215613d2a578081fd5b5051919050565b60008060408385031215613d43578081fd5b50508035926020909101359150565b60008251613d6481846020870161478c565b9190910192915050565b73ffffffffffffffffffffffffffffffffffffffff91909116815260200190565b73ffffffffffffffffffffffffffffffffffffffff929092168252602082015260400190565b73ffffffffffffffffffffffffffffffffffffffff9384168152919092166020820152604081019190915260600190565b60608101818460005b6002811015613e0e578151835260209283019290910190600101613def565b5050508260408301529392505050565b901515815260200190565b600f9190910b815260200190565b6000602082528251806020840152613e5681604085016020870161478c565b601f017fffffffffffffffffffffffffffffffffffffffffffffffffffffffffffffffe0169190910160400192915050565b6020808252602c908201527f416c6368656d6973743a207472616e736d75746572206164647265737320636160408201527f6e6e6f74206265203078302e0000000000000000000000000000000000000000606082015260800190565b6020808252602c908201527f416c6368656d6973743a20676f7665726e616e6365206164647265737320636160408201527f6e6e6f74206265203078302e0000000000000000000000000000000000000000606082015260800190565b60208082526036908201527f416c6368656d6973743a2063616e6e6f7420696e697469616c697a652074726160408201527f6e736d75746572206164647265737320746f2030783000000000000000000000606082015260800190565b6020808252601b908201527f536166654d6174683a206164646974696f6e206f766572666c6f770000000000604082015260600190565b60208082526033908201527f416c6368656d6973743a2063616e6e6f7420696e697469616c697a652072657760408201527f61726473206164647265737320746f2030783000000000000000000000000000606082015260800190565b6020808252818101527f536f72727920776520646f206e6f742061636365707420636f6e747261637421604082015260600190565b6020808252601e908201527f416c6368656d6973743a20616c726561647920696e697469616c697a65640000604082015260600190565b6020808252601e908201527f536166654d6174683a207375627472616374696f6e206f766572666c6f770000604082015260600190565b60208082526026908201527f416464726573733a20696e73756666696369656e742062616c616e636520666f60408201527f722063616c6c0000000000000000000000000000000000000000000000000000606082015260800190565b6020808252601a908201527f536166654d6174683a206469766973696f6e206279207a65726f000000000000604082015260600190565b60208082526031908201527f416c6368656d6973743a20636f6c6c61746572616c697a6174696f6e206c696d60408201527f69742062656c6f77206d696e696d756d2e000000000000000000000000000000606082015260800190565b60208082526031908201527f416c6368656d6973743a20636f6c6c61746572616c697a6174696f6e206c696d60408201527f69742061626f7665206d6178696d756d2e000000000000000000000000000000606082015260800190565b6020808252601b908201527f416c6368656d6973743a206f6e6c7920676f7665726e616e63652e0000000000604082015260600190565b60208082526021908201527f536166654d6174683a206d756c7469706c69636174696f6e206f766572666c6f60408201527f7700000000000000000000000000000000000000000000000000000000000000606082015260800190565b60208082526025908201527f416c6368656d6973743a2068617276657374206665652061626f7665206d617860408201527f696d756d2e000000000000000000000000000000000000000000000000000000606082015260800190565b6020808252601f908201527f73656e646572206973206e6f742070656e64696e67476f7665726e616e636500604082015260600190565b602080825260009082015260400190565b60208082526017908201527f656d657267656e637920706175736520656e61626c6564000000000000000000604082015260600190565b6020808252601d908201527f416464726573733a2063616c6c20746f206e6f6e2d636f6e7472616374000000604082015260600190565b60208082526070908201527f416c6368656d6973743a206e6f7420616e20656d657267656e63792c206e6f7460408201527f20676f7665726e616e63652c20616e64207573657220646f6573206e6f74206860608201527f617665207065726d697373696f6e20746f20726563616c6c2066756e6473206660808201527f726f6d20616374697665207661756c740000000000000000000000000000000060a082015260c00190565b6020808252601b908201527f416c6368656d6973743a206e6f7420696e697469616c697a65642e0000000000604082015260600190565b6020808252602a908201527f5361666545524332303a204552433230206f7065726174696f6e20646964206e60408201527f6f74207375636365656400000000000000000000000000000000000000000000606082015260800190565b6020808252602a908201527f416c6368656d6973743a2073656e74696e656c20616464726573732063616e6e60408201527f6f74206265203078302e00000000000000000000000000000000000000000000606082015260800190565b6020808252601f908201527f5265656e7472616e637947756172643a207265656e7472616e742063616c6c00604082015260600190565b6020808252601a908201527f416c6368656d6973743a20746f6b656e206d69736d617463682e000000000000604082015260600190565b6020808252602e908201527f416c6368656d6973743a20616374697665207661756c7420616464726573732060408201527f63616e6e6f74206265203078302e000000000000000000000000000000000000606082015260800190565b60208082526012908201527f6f666620706567206c696d69746174696f6e0000000000000000000000000000604082015260600190565b60208082526024908201527f416c6368656d6973743a20626f72726f77206665652061626f7665206d61786960408201527f6d756d2e00000000000000000000000000000000000000000000000000000000606082015260800190565b60208082526029908201527f416c6368656d6973743a207265776172647320616464726573732063616e6e6f60408201527f74206265203078302e0000000000000000000000000000000000000000000000606082015260800190565b9051815260200190565b90815260200190565b938452600f9290920b6020840152604083015273ffffffffffffffffffffffffffffffffffffffff16606082015260800190565b918252602082015260400190565b9283526020830191909152604082015260600190565b60005b838110156147a757818101518382015260200161478f565b83811115612ad45750506000910152565b73ffffffffffffffffffffffffffffffffffffffff81168114611f8857600080fd5b8015158114611f8857600080fdfe416374696f6e20626c6f636b65643a20756e6865616c74687920636f6c6c61746572616c697a6174696f6e20726174696f416c6368656d6973743a204c6f616e2d746f2d76616c756520726174696f206272656163686564a26469706673582212200b34eff7cc46e13d33530e9fa88b93f62d7c8e7d046d19598fb936f10380cd0d64736f6c634300060c0033",
  "devdoc": {
    "kind": "dev",
    "methods": {
      "acceptGovernance()": {
        "details": "Accepts the role as governance. This function reverts if the caller is not the new pending governance."
      },
      "collateralizationLimit()": {
        "details": "Gets the collateralization limit. The collateralization limit is the minimum ratio of collateral to debt that is allowed by the system.",
        "returns": {
          "_0": "the collateralization limit."
        }
      },
      "deposit(uint256)": {
        "details": "Deposits collateral into a CDP. This function reverts if an emergency exit is active. This is in place to prevent the potential loss of additional funds.",
        "params": {
          "_amount": "the amount of collateral to deposit."
        }
      },
      "flush()": {
        "details": "Flushes buffered tokens to the active vault. This function reverts if an emergency exit is active. This is in place to prevent the potential loss of additional funds.",
        "returns": {
          "_0": "the amount of tokens flushed to the active vault."
        }
      },
      "getCdpLastDeposit(address)": {
        "details": "Gets the last recorded block of when a user made a deposit into their CDP.",
        "params": {
          "_account": "the user account of the CDP to query."
        },
        "returns": {
          "_0": "the block number of the last deposit."
        }
      },
      "getCdpTotalCredit(address)": {
        "details": "Get the total amount of credit that a CDP has.",
        "params": {
          "_account": "the user account of the CDP to query."
        },
        "returns": {
          "_0": "the amount of credit."
        }
      },
      "getCdpTotalDebt(address)": {
        "details": "Get the total amount of alchemic tokens borrowed from a CDP.",
        "params": {
          "_account": "the user account of the CDP to query."
        },
        "returns": {
          "_0": "the borrowed amount of tokens."
        }
      },
      "getCdpTotalDeposited(address)": {
        "details": "Get the total amount of collateral deposited into a CDP.",
        "params": {
          "_account": "the user account of the CDP to query."
        },
        "returns": {
          "_0": "the deposited amount of tokens."
        }
      },
      "getVaultAdapter(uint256)": {
        "details": "Get the adapter of a vault.",
        "params": {
          "_vaultId": "the identifier of the vault."
        },
        "returns": {
          "_0": "the vault adapter."
        }
      },
      "getVaultTotalDeposited(uint256)": {
        "details": "Get the total amount of the parent asset that has been deposited into a vault.",
        "params": {
          "_vaultId": "the identifier of the vault."
        },
        "returns": {
          "_0": "the total amount of deposited tokens."
        }
      },
      "harvest(uint256)": {
        "details": "Harvests yield from a vault.",
        "params": {
          "_vaultId": "the identifier of the vault to harvest from."
        },
        "returns": {
          "_0": "the amount of funds that were harvested from the vault."
        }
      },
      "initialize(address)": {
        "details": "Initializes the contract. This function checks that the transmuter and rewards have been set and sets up the active vault.",
        "params": {
          "_adapter": "the vault adapter of the active vault."
        }
      },
      "liquidate(uint256)": {
        "details": "Attempts to liquidate part of a CDP's collateral to pay back its debt.",
        "params": {
          "_amount": "the amount of collateral to attempt to liquidate."
        }
      },
      "migrate(address)": {
        "details": "Migrates the system to a new vault. This function reverts if the vault adapter is the zero address, if the token that the vault adapter accepts is not the token that this contract defines as the parent asset, or if the contract has not yet been initialized.",
        "params": {
          "_adapter": "the adapter for the vault the system will migrate to."
        }
      },
      "mint(uint256)": {
        "details": "Mints synthetic tokens by either claiming credit or increasing the debt. Claiming credit will take priority over increasing the debt. This function reverts if the debt is increased and the CDP health check fails.",
        "params": {
          "_amount": "the amount of alchemic tokens to borrow."
        }
      },
      "recall(uint256,uint256)": {
        "details": "Recalls an amount of deposited funds from a vault to this contract.",
        "params": {
          "_vaultId": "the identifier of the recall funds from."
        },
        "returns": {
          "_0": "the amount of funds that were recalled from the vault to this contract and the decreased vault value."
        }
      },
      "recallAll(uint256)": {
        "details": "Recalls all the deposited funds from a vault to this contract.",
        "params": {
          "_vaultId": "the identifier of the recall funds from."
        },
        "returns": {
          "_0": "the amount of funds that were recalled from the vault to this contract and the decreased vault value."
        }
      },
      "repay(uint256,uint256)": {
        "details": "Repays debt with the native and or synthetic token. An approval is required to transfer native tokens to the transmuter."
      },
      "setBorrowFee(uint256)": {
        "details": "Sets the borrow fee. This function reverts if the caller is not the current governance.",
        "params": {
          "_borrowFee": "the new borrow fee."
        }
      },
      "setCollateralizationLimit(uint256)": {
        "details": "Sets the collateralization limit. This function reverts if the caller is not the current governance or if the collateralization limit is outside of the accepted bounds.",
        "params": {
          "_limit": "the new collateralization limit."
        }
      },
      "setEmergencyExit(bool)": {
        "details": "Sets if the contract should enter emergency exit mode.",
        "params": {
          "_emergencyExit": "if the contract should enter emergency exit mode."
        }
      },
      "setFlushActivator(uint256)": {
        "details": "Sets the flushActivator.",
        "params": {
          "_flushActivator": "the new flushActivator."
        }
      },
      "setHarvestFee(uint256)": {
        "details": "Sets the harvest fee. This function reverts if the caller is not the current governance.",
        "params": {
          "_harvestFee": "the new harvest fee."
        }
      },
      "setPegMinimum(uint256)": {
        "details": "Set pegMinimum."
      },
      "setPendingGovernance(address)": {
        "details": "Sets the pending governance. This function reverts if the new pending governance is the zero address or the caller is not the current governance. This is to prevent the contract governance being set to the zero address which would deadlock privileged contract functionality.",
        "params": {
          "_pendingGovernance": "the new pending governance."
        }
      },
      "setRewards(address)": {
        "details": "Sets the rewards contract. This function reverts if the new rewards contract is the zero address or the caller is not the current governance.",
        "params": {
          "_rewards": "the new rewards contract."
        }
      },
      "setTransmuter(address)": {
        "details": "Sets the transmuter. This function reverts if the new transmuter is the zero address or the caller is not the current governance.",
        "params": {
          "_transmuter": "the new transmuter."
        }
      },
      "vaultCount()": {
        "details": "Gets the number of vaults in the vault list.",
        "returns": {
          "_0": "the vault count."
        }
      },
      "withdraw(uint256)": {
        "details": "Attempts to withdraw part of a CDP's collateral. This function reverts if a deposit into the CDP was made in the same block. This is to prevent flash loan attacks on other internal or external systems.",
        "params": {
          "_amount": "the amount of collateral to withdraw."
        }
      }
    },
    "stateVariables": {
      "MAXIMUM_COLLATERALIZATION_LIMIT": {
        "details": "The maximum value that the collateralization limit can be set to by the governance. This is a safety rail to prevent the collateralization from being set to a value which breaks the system. This value is equal to 400%. IMPORTANT: This constant is a raw FixedPointMath.FixedDecimal value and assumes a resolution of 64 bits. If the            resolution for the FixedPointMath library changes this constant must change as well."
      },
      "MINIMUM_COLLATERALIZATION_LIMIT": {
        "details": "The minimum value that the collateralization limit can be set to by the governance. This is a safety rail to prevent the collateralization from being set to a value which breaks the system. This value is equal to 100%. IMPORTANT: This constant is a raw FixedPointMath.FixedDecimal value and assumes a resolution of 64 bits. If the            resolution for the FixedPointMath library changes this constant must change as well."
      },
      "PERCENT_RESOLUTION": {
        "details": "Resolution for all fixed point numeric parameters which represent percents. The resolution allows for a granularity of 0.01% increments."
      },
      "_cdps": {
        "details": "A mapping of all of the user CDPs. If a user wishes to have multiple CDPs they will have to either create a new address."
      },
      "_ctx": {
        "details": "The context shared between the CDPs."
      },
      "_vaults": {
        "details": "A list of all of the vaults. The last element of the list is the vault that is currently being used for deposits and withdraws. Vaults before the last element are considered inactive and are expected to be cleared."
      },
      "borrowFee": {
        "details": "The percent of minted debt that will go to the rewards contract."
      },
      "emergencyExit": {
        "details": "A flag indicating if deposits and flushes should be halted and if all parties should be able to recall from the active vault."
      },
      "flushActivator": {
        "details": "when movemetns are bigger than this number flush is activated."
      },
      "governance": {
        "details": "The address of the account which currently has administrative capabilities over this contract."
      },
      "harvestFee": {
        "details": "The percent of each profitable harvest that will go to the rewards contract."
      },
      "initialized": {
        "details": "A flag indicating if the contract has been initialized yet."
      },
      "pegMinimum": {
        "details": "The minimum returned amount needed to be on peg according to the oracle."
      },
      "pendingGovernance": {
        "details": "The address of the pending governance."
      },
      "rewards": {
        "details": "The address of the contract which will receive fees."
      },
      "sentinel": {
        "details": "The address of the account which can initiate an emergency withdraw of funds in a vault."
      },
      "sourceToken": {
        "details": "The token that this contract is using as the source of parent asset."
      },
      "token": {
        "details": "The token that this contract is using as the parent asset."
      },
      "totalDeposited": {
        "details": "The total amount the native token deposited into the system that is owned by external users."
      },
      "transmuter": {
        "details": "The address of the contract which will transmute synthetic tokens back into native tokens."
      },
      "xtoken": {
        "details": "The token that this contract is using as the child asset."
      }
    },
    "version": 1
  },
  "userdoc": {
    "kind": "user",
    "methods": {},
    "version": 1
  },
  "storageLayout": {
    "storage": [
      {
        "astId": 2436,
        "contract": "contracts/ConvertAlchemist.sol:ConvertAlchemist",
        "label": "_status",
        "offset": 0,
        "slot": "0",
        "type": "t_uint256"
      },
      {
        "astId": 4715,
        "contract": "contracts/ConvertAlchemist.sol:ConvertAlchemist",
        "label": "sourceToken",
        "offset": 0,
        "slot": "1",
        "type": "t_contract(IMintableERC20)8239"
      },
      {
        "astId": 4717,
        "contract": "contracts/ConvertAlchemist.sol:ConvertAlchemist",
        "label": "sourceIndex",
        "offset": 0,
        "slot": "2",
        "type": "t_int128"
      },
      {
        "astId": 4720,
        "contract": "contracts/ConvertAlchemist.sol:ConvertAlchemist",
        "label": "token",
        "offset": 0,
        "slot": "3",
        "type": "t_contract(IMintableERC20)8239"
      },
      {
        "astId": 4723,
        "contract": "contracts/ConvertAlchemist.sol:ConvertAlchemist",
        "label": "xtoken",
        "offset": 0,
        "slot": "4",
        "type": "t_contract(IMintableERC20)8239"
      },
      {
        "astId": 4726,
        "contract": "contracts/ConvertAlchemist.sol:ConvertAlchemist",
        "label": "governance",
        "offset": 0,
        "slot": "5",
        "type": "t_address"
      },
      {
        "astId": 4729,
        "contract": "contracts/ConvertAlchemist.sol:ConvertAlchemist",
        "label": "pendingGovernance",
        "offset": 0,
        "slot": "6",
        "type": "t_address"
      },
      {
        "astId": 4732,
        "contract": "contracts/ConvertAlchemist.sol:ConvertAlchemist",
        "label": "sentinel",
        "offset": 0,
        "slot": "7",
        "type": "t_address"
      },
      {
        "astId": 4735,
        "contract": "contracts/ConvertAlchemist.sol:ConvertAlchemist",
        "label": "transmuter",
        "offset": 0,
        "slot": "8",
        "type": "t_address"
      },
      {
        "astId": 4738,
        "contract": "contracts/ConvertAlchemist.sol:ConvertAlchemist",
        "label": "rewards",
        "offset": 0,
        "slot": "9",
        "type": "t_address"
      },
      {
        "astId": 4741,
        "contract": "contracts/ConvertAlchemist.sol:ConvertAlchemist",
        "label": "harvestFee",
        "offset": 0,
        "slot": "10",
        "type": "t_uint256"
      },
      {
        "astId": 4744,
        "contract": "contracts/ConvertAlchemist.sol:ConvertAlchemist",
        "label": "borrowFee",
        "offset": 0,
        "slot": "11",
        "type": "t_uint256"
      },
      {
        "astId": 4747,
        "contract": "contracts/ConvertAlchemist.sol:ConvertAlchemist",
        "label": "totalDeposited",
        "offset": 0,
        "slot": "12",
        "type": "t_uint256"
      },
      {
        "astId": 4750,
        "contract": "contracts/ConvertAlchemist.sol:ConvertAlchemist",
        "label": "flushActivator",
        "offset": 0,
        "slot": "13",
        "type": "t_uint256"
      },
      {
        "astId": 4753,
        "contract": "contracts/ConvertAlchemist.sol:ConvertAlchemist",
        "label": "initialized",
        "offset": 0,
        "slot": "14",
        "type": "t_bool"
      },
      {
        "astId": 4756,
        "contract": "contracts/ConvertAlchemist.sol:ConvertAlchemist",
        "label": "emergencyExit",
        "offset": 1,
        "slot": "14",
        "type": "t_bool"
      },
      {
        "astId": 4759,
        "contract": "contracts/ConvertAlchemist.sol:ConvertAlchemist",
        "label": "_ctx",
        "offset": 0,
        "slot": "15",
        "type": "t_struct(Context)9363_storage"
      },
      {
        "astId": 4764,
        "contract": "contracts/ConvertAlchemist.sol:ConvertAlchemist",
        "label": "_cdps",
        "offset": 0,
        "slot": "17",
        "type": "t_mapping(t_address,t_struct(Data)9374_storage)"
      },
      {
        "astId": 4767,
        "contract": "contracts/ConvertAlchemist.sol:ConvertAlchemist",
        "label": "_vaults",
        "offset": 0,
        "slot": "18",
        "type": "t_struct(List)8979_storage"
      },
      {
        "astId": 4770,
        "contract": "contracts/ConvertAlchemist.sol:ConvertAlchemist",
        "label": "pegMinimum",
        "offset": 0,
        "slot": "19",
        "type": "t_uint256"
      }
    ],
    "types": {
      "t_address": {
        "encoding": "inplace",
        "label": "address",
        "numberOfBytes": "20"
      },
      "t_array(t_struct(Data)8975_storage)dyn_storage": {
        "base": "t_struct(Data)8975_storage",
        "encoding": "dynamic_array",
        "label": "struct AlchemistVault.Data[]",
        "numberOfBytes": "32"
      },
      "t_bool": {
        "encoding": "inplace",
        "label": "bool",
        "numberOfBytes": "1"
      },
      "t_contract(IMintableERC20)8239": {
        "encoding": "inplace",
        "label": "contract IMintableERC20",
        "numberOfBytes": "20"
      },
      "t_contract(IVaultAdapter)8349": {
        "encoding": "inplace",
        "label": "contract IVaultAdapter",
        "numberOfBytes": "20"
      },
      "t_int128": {
        "encoding": "inplace",
        "label": "int128",
        "numberOfBytes": "16"
      },
      "t_mapping(t_address,t_struct(Data)9374_storage)": {
        "encoding": "mapping",
        "key": "t_address",
        "label": "mapping(address => struct CDP.Data)",
        "numberOfBytes": "32",
        "value": "t_struct(Data)9374_storage"
      },
      "t_struct(Context)9363_storage": {
        "encoding": "inplace",
        "label": "struct CDP.Context",
        "members": [
          {
            "astId": 9360,
            "contract": "contracts/ConvertAlchemist.sol:ConvertAlchemist",
            "label": "collateralizationLimit",
            "offset": 0,
            "slot": "0",
            "type": "t_struct(FixedDecimal)8699_storage"
          },
          {
            "astId": 9362,
            "contract": "contracts/ConvertAlchemist.sol:ConvertAlchemist",
            "label": "accumulatedYieldWeight",
            "offset": 0,
            "slot": "1",
            "type": "t_struct(FixedDecimal)8699_storage"
          }
        ],
        "numberOfBytes": "64"
      },
      "t_struct(Data)8975_storage": {
        "encoding": "inplace",
        "label": "struct AlchemistVault.Data",
        "members": [
          {
            "astId": 8972,
            "contract": "contracts/ConvertAlchemist.sol:ConvertAlchemist",
            "label": "adapter",
            "offset": 0,
            "slot": "0",
            "type": "t_contract(IVaultAdapter)8349"
          },
          {
            "astId": 8974,
            "contract": "contracts/ConvertAlchemist.sol:ConvertAlchemist",
            "label": "totalDeposited",
            "offset": 0,
            "slot": "1",
            "type": "t_uint256"
          }
        ],
        "numberOfBytes": "64"
      },
      "t_struct(Data)9374_storage": {
        "encoding": "inplace",
        "label": "struct CDP.Data",
        "members": [
          {
            "astId": 9365,
            "contract": "contracts/ConvertAlchemist.sol:ConvertAlchemist",
            "label": "totalDeposited",
            "offset": 0,
            "slot": "0",
            "type": "t_uint256"
          },
          {
            "astId": 9367,
            "contract": "contracts/ConvertAlchemist.sol:ConvertAlchemist",
            "label": "totalDebt",
            "offset": 0,
            "slot": "1",
            "type": "t_uint256"
          },
          {
            "astId": 9369,
            "contract": "contracts/ConvertAlchemist.sol:ConvertAlchemist",
            "label": "totalCredit",
            "offset": 0,
            "slot": "2",
            "type": "t_uint256"
          },
          {
            "astId": 9371,
            "contract": "contracts/ConvertAlchemist.sol:ConvertAlchemist",
            "label": "lastDeposit",
            "offset": 0,
            "slot": "3",
            "type": "t_uint256"
          },
          {
            "astId": 9373,
            "contract": "contracts/ConvertAlchemist.sol:ConvertAlchemist",
            "label": "lastAccumulatedYieldWeight",
            "offset": 0,
            "slot": "4",
            "type": "t_struct(FixedDecimal)8699_storage"
          }
        ],
        "numberOfBytes": "160"
      },
      "t_struct(FixedDecimal)8699_storage": {
        "encoding": "inplace",
        "label": "struct FixedPointMath.FixedDecimal",
        "members": [
          {
            "astId": 8698,
            "contract": "contracts/ConvertAlchemist.sol:ConvertAlchemist",
            "label": "x",
            "offset": 0,
            "slot": "0",
            "type": "t_uint256"
          }
        ],
        "numberOfBytes": "32"
      },
      "t_struct(List)8979_storage": {
        "encoding": "inplace",
        "label": "struct AlchemistVault.List",
        "members": [
          {
            "astId": 8978,
            "contract": "contracts/ConvertAlchemist.sol:ConvertAlchemist",
            "label": "elements",
            "offset": 0,
            "slot": "0",
            "type": "t_array(t_struct(Data)8975_storage)dyn_storage"
          }
        ],
        "numberOfBytes": "32"
      },
      "t_uint256": {
        "encoding": "inplace",
        "label": "uint256",
        "numberOfBytes": "32"
      }
    }
  }
}