{
  "address": "0x25E853D3C1e46233766ea77c437c8127D55FcF13",
  "abi": [
    {
      "inputs": [
        {
          "internalType": "string",
          "name": "_name",
          "type": "string"
        },
        {
          "internalType": "string",
          "name": "_symbol",
          "type": "string"
        },
        {
          "internalType": "uint8",
          "name": "_decimals",
          "type": "uint8"
        }
      ],
      "stateMutability": "nonpayable",
      "type": "constructor"
    },
    {
      "anonymous": false,
      "inputs": [
        {
          "indexed": true,
          "internalType": "address",
          "name": "owner",
          "type": "address"
        },
        {
          "indexed": true,
          "internalType": "address",
          "name": "spender",
          "type": "address"
        },
        {
          "indexed": false,
          "internalType": "uint256",
          "name": "value",
          "type": "uint256"
        }
      ],
      "name": "Approval",
      "type": "event"
    },
    {
      "anonymous": false,
      "inputs": [
        {
          "indexed": true,
          "internalType": "address",
          "name": "from",
          "type": "address"
        },
        {
          "indexed": true,
          "internalType": "address",
          "name": "to",
          "type": "address"
        },
        {
          "indexed": false,
          "internalType": "uint256",
          "name": "value",
          "type": "uint256"
        }
      ],
      "name": "Transfer",
      "type": "event"
    },
    {
      "inputs": [
        {
          "internalType": "address",
          "name": "owner",
          "type": "address"
        },
        {
          "internalType": "address",
          "name": "spender",
          "type": "address"
        }
      ],
      "name": "allowance",
      "outputs": [
        {
          "internalType": "uint256",
          "name": "",
          "type": "uint256"
        }
      ],
      "stateMutability": "view",
      "type": "function"
    },
    {
      "inputs": [
        {
          "internalType": "address",
          "name": "spender",
          "type": "address"
        },
        {
          "internalType": "uint256",
          "name": "amount",
          "type": "uint256"
        }
      ],
      "name": "approve",
      "outputs": [
        {
          "internalType": "bool",
          "name": "",
          "type": "bool"
        }
      ],
      "stateMutability": "nonpayable",
      "type": "function"
    },
    {
      "inputs": [
        {
          "internalType": "address",
          "name": "account",
          "type": "address"
        }
      ],
      "name": "balanceOf",
      "outputs": [
        {
          "internalType": "uint256",
          "name": "",
          "type": "uint256"
        }
      ],
      "stateMutability": "view",
      "type": "function"
    },
    {
      "inputs": [
        {
          "internalType": "address",
          "name": "_account",
          "type": "address"
        },
        {
          "internalType": "uint256",
          "name": "_amount",
          "type": "uint256"
        }
      ],
      "name": "burn",
      "outputs": [],
      "stateMutability": "nonpayable",
      "type": "function"
    },
    {
      "inputs": [],
      "name": "decimals",
      "outputs": [
        {
          "internalType": "uint8",
          "name": "",
          "type": "uint8"
        }
      ],
      "stateMutability": "view",
      "type": "function"
    },
    {
      "inputs": [
        {
          "internalType": "address",
          "name": "spender",
          "type": "address"
        },
        {
          "internalType": "uint256",
          "name": "subtractedValue",
          "type": "uint256"
        }
      ],
      "name": "decreaseAllowance",
      "outputs": [
        {
          "internalType": "bool",
          "name": "",
          "type": "bool"
        }
      ],
      "stateMutability": "nonpayable",
      "type": "function"
    },
    {
      "inputs": [
        {
          "internalType": "address",
          "name": "spender",
          "type": "address"
        },
        {
          "internalType": "uint256",
          "name": "addedValue",
          "type": "uint256"
        }
      ],
      "name": "increaseAllowance",
      "outputs": [
        {
          "internalType": "bool",
          "name": "",
          "type": "bool"
        }
      ],
      "stateMutability": "nonpayable",
      "type": "function"
    },
    {
      "inputs": [
        {
          "internalType": "address",
          "name": "_recipient",
          "type": "address"
        },
        {
          "internalType": "uint256",
          "name": "_amount",
          "type": "uint256"
        }
      ],
      "name": "mint",
      "outputs": [],
      "stateMutability": "nonpayable",
      "type": "function"
    },
    {
      "inputs": [],
      "name": "name",
      "outputs": [
        {
          "internalType": "string",
          "name": "",
          "type": "string"
        }
      ],
      "stateMutability": "view",
      "type": "function"
    },
    {
      "inputs": [],
      "name": "symbol",
      "outputs": [
        {
          "internalType": "string",
          "name": "",
          "type": "string"
        }
      ],
      "stateMutability": "view",
      "type": "function"
    },
    {
      "inputs": [],
      "name": "totalSupply",
      "outputs": [
        {
          "internalType": "uint256",
          "name": "",
          "type": "uint256"
        }
      ],
      "stateMutability": "view",
      "type": "function"
    },
    {
      "inputs": [
        {
          "internalType": "address",
          "name": "recipient",
          "type": "address"
        },
        {
          "internalType": "uint256",
          "name": "amount",
          "type": "uint256"
        }
      ],
      "name": "transfer",
      "outputs": [
        {
          "internalType": "bool",
          "name": "",
          "type": "bool"
        }
      ],
      "stateMutability": "nonpayable",
      "type": "function"
    },
    {
      "inputs": [
        {
          "internalType": "address",
          "name": "sender",
          "type": "address"
        },
        {
          "internalType": "address",
          "name": "recipient",
          "type": "address"
        },
        {
          "internalType": "uint256",
          "name": "amount",
          "type": "uint256"
        }
      ],
      "name": "transferFrom",
      "outputs": [
        {
          "internalType": "bool",
          "name": "",
          "type": "bool"
        }
      ],
      "stateMutability": "nonpayable",
      "type": "function"
    }
  ],
  "transactionHash": "0x08b5a7cf6354a03552055d6cf414b35bca53206a85a138278dcce71591014d8d",
  "args": [
    "MIM",
    "MIM",
    18
  ],
  "solcInputHash": "38e5df16817a53515de6fb4ad4dcf0e1",
  "bytecode": "0x60806040523480156200001157600080fd5b5060405162001230380380620012308339810160408190526200003491620001e0565b8251839083906200004d9060039060208501906200009d565b508051620000639060049060208401906200009d565b50506005805460ff19166012179055506200007e8162000087565b50505062000261565b6005805460ff191660ff92909216919091179055565b828054600181600116156101000203166002900490600052602060002090601f016020900481019282601f10620000e057805160ff191683800117855562000110565b8280016001018555821562000110579182015b8281111562000110578251825591602001919060010190620000f3565b506200011e92915062000122565b5090565b5b808211156200011e576000815560010162000123565b600082601f8301126200014a578081fd5b81516001600160401b038082111562000161578283fd5b6040516020601f8401601f191682018101838111838210171562000183578586fd5b80604052508194508382528681858801011115620001a057600080fd5b600092505b83831015620001c45785830181015182840182015291820191620001a5565b83831115620001d65760008185840101525b5050505092915050565b600080600060608486031215620001f5578283fd5b83516001600160401b03808211156200020c578485fd5b6200021a8783880162000139565b9450602086015191508082111562000230578384fd5b506200023f8682870162000139565b925050604084015160ff8116811462000256578182fd5b809150509250925092565b610fbf80620002716000396000f3fe608060405234801561001057600080fd5b50600436106100df5760003560e01c806340c10f191161008c5780639dc29fac116100665780639dc29fac146101a2578063a457c2d7146101b5578063a9059cbb146101c8578063dd62ed3e146101db576100df565b806340c10f191461017257806370a082311461018757806395d89b411461019a576100df565b806323b872dd116100bd57806323b872dd14610137578063313ce5671461014a578063395093511461015f576100df565b806306fdde03146100e4578063095ea7b31461010257806318160ddd14610122575b600080fd5b6100ec6101ee565b6040516100f99190610bd1565b60405180910390f35b610115610110366004610b9c565b6102a2565b6040516100f99190610bc6565b61012a6102c0565b6040516100f99190610eb8565b610115610145366004610b5c565b6102c6565b610152610367565b6040516100f99190610ec1565b61011561016d366004610b9c565b610370565b610185610180366004610b9c565b6103cb565b005b61012a610195366004610b0d565b6103d9565b6100ec610401565b6101856101b0366004610b9c565b610480565b6101156101c3366004610b9c565b61048a565b6101156101d6366004610b9c565b6104ff565b61012a6101e9366004610b28565b610513565b60038054604080516020601f60027fffffffffffffffffffffffffffffffffffffffffffffffffffffffffffffffff6101006001881615020190951694909404938401819004810282018101909252828152606093909290918301828280156102985780601f1061026d57610100808354040283529160200191610298565b820191906000526020600020905b81548152906001019060200180831161027b57829003601f168201915b5050505050905090565b60006102b66102af61054b565b848461054f565b5060015b92915050565b60025490565b60006102d3848484610667565b61035d846102df61054b565b61035885604051806060016040528060288152602001610f3d6028913973ffffffffffffffffffffffffffffffffffffffff8a1660009081526001602052604081209061032a61054b565b73ffffffffffffffffffffffffffffffffffffffff16815260208101919091526040016000205491906107f1565b61054f565b5060019392505050565b60055460ff1690565b60006102b661037d61054b565b84610358856001600061038e61054b565b73ffffffffffffffffffffffffffffffffffffffff908116825260208083019390935260409182016000908120918c168152925290205490610837565b6103d5828261087d565b5050565b73ffffffffffffffffffffffffffffffffffffffff1660009081526020819052604090205490565b60048054604080516020601f60027fffffffffffffffffffffffffffffffffffffffffffffffffffffffffffffffff6101006001881615020190951694909404938401819004810282018101909252828152606093909290918301828280156102985780601f1061026d57610100808354040283529160200191610298565b6103d5828261097e565b60006102b661049761054b565b8461035885604051806060016040528060258152602001610f6560259139600160006104c161054b565b73ffffffffffffffffffffffffffffffffffffffff908116825260208083019390935260409182016000908120918d168152925290205491906107f1565b60006102b661050c61054b565b8484610667565b73ffffffffffffffffffffffffffffffffffffffff918216600090815260016020908152604080832093909416825291909152205490565b3390565b73ffffffffffffffffffffffffffffffffffffffff83166105a5576040517f08c379a000000000000000000000000000000000000000000000000000000000815260040161059c90610e24565b60405180910390fd5b73ffffffffffffffffffffffffffffffffffffffff82166105f2576040517f08c379a000000000000000000000000000000000000000000000000000000000815260040161059c90610c9f565b73ffffffffffffffffffffffffffffffffffffffff80841660008181526001602090815260408083209487168084529490915290819020849055517f8c5be1e5ebec7d5bd14f71427d1e84f3dd0314c0f7b2291e5b200ac8c7c3b9259061065a908590610eb8565b60405180910390a3505050565b73ffffffffffffffffffffffffffffffffffffffff83166106b4576040517f08c379a000000000000000000000000000000000000000000000000000000000815260040161059c90610dc7565b73ffffffffffffffffffffffffffffffffffffffff8216610701576040517f08c379a000000000000000000000000000000000000000000000000000000000815260040161059c90610c42565b61070c838383610aa2565b61075681604051806060016040528060268152602001610f176026913973ffffffffffffffffffffffffffffffffffffffff861660009081526020819052604090205491906107f1565b73ffffffffffffffffffffffffffffffffffffffff80851660009081526020819052604080822093909355908416815220546107929082610837565b73ffffffffffffffffffffffffffffffffffffffff80841660008181526020819052604090819020939093559151908516907fddf252ad1be2c89b69c2b068fc378daa952ba7f163c4a11628f55a4df523b3ef9061065a908590610eb8565b6000818484111561082f576040517f08c379a000000000000000000000000000000000000000000000000000000000815260040161059c9190610bd1565b505050900390565b600082820183811015610876576040517f08c379a000000000000000000000000000000000000000000000000000000000815260040161059c90610cfc565b9392505050565b73ffffffffffffffffffffffffffffffffffffffff82166108ca576040517f08c379a000000000000000000000000000000000000000000000000000000000815260040161059c90610e81565b6108d660008383610aa2565b6002546108e39082610837565b60025573ffffffffffffffffffffffffffffffffffffffff82166000908152602081905260409020546109169082610837565b73ffffffffffffffffffffffffffffffffffffffff83166000818152602081905260408082209390935591519091907fddf252ad1be2c89b69c2b068fc378daa952ba7f163c4a11628f55a4df523b3ef90610972908590610eb8565b60405180910390a35050565b73ffffffffffffffffffffffffffffffffffffffff82166109cb576040517f08c379a000000000000000000000000000000000000000000000000000000000815260040161059c90610d6a565b6109d782600083610aa2565b610a2181604051806060016040528060228152602001610ef56022913973ffffffffffffffffffffffffffffffffffffffff851660009081526020819052604090205491906107f1565b73ffffffffffffffffffffffffffffffffffffffff8316600090815260208190526040902055600254610a549082610aa7565b60025560405160009073ffffffffffffffffffffffffffffffffffffffff8416907fddf252ad1be2c89b69c2b068fc378daa952ba7f163c4a11628f55a4df523b3ef90610972908590610eb8565b505050565b600082821115610ae3576040517f08c379a000000000000000000000000000000000000000000000000000000000815260040161059c90610d33565b50900390565b803573ffffffffffffffffffffffffffffffffffffffff811681146102ba57600080fd5b600060208284031215610b1e578081fd5b6108768383610ae9565b60008060408385031215610b3a578081fd5b610b448484610ae9565b9150610b538460208501610ae9565b90509250929050565b600080600060608486031215610b70578081fd5b8335610b7b81610ecf565b92506020840135610b8b81610ecf565b929592945050506040919091013590565b60008060408385031215610bae578182fd5b610bb88484610ae9565b946020939093013593505050565b901515815260200190565b6000602080835283518082850152825b81811015610bfd57858101830151858201604001528201610be1565b81811115610c0e5783604083870101525b50601f017fffffffffffffffffffffffffffffffffffffffffffffffffffffffffffffffe016929092016040019392505050565b60208082526023908201527f45524332303a207472616e7366657220746f20746865207a65726f206164647260408201527f6573730000000000000000000000000000000000000000000000000000000000606082015260800190565b60208082526022908201527f45524332303a20617070726f766520746f20746865207a65726f20616464726560408201527f7373000000000000000000000000000000000000000000000000000000000000606082015260800190565b6020808252601b908201527f536166654d6174683a206164646974696f6e206f766572666c6f770000000000604082015260600190565b6020808252601e908201527f536166654d6174683a207375627472616374696f6e206f766572666c6f770000604082015260600190565b60208082526021908201527f45524332303a206275726e2066726f6d20746865207a65726f2061646472657360408201527f7300000000000000000000000000000000000000000000000000000000000000606082015260800190565b60208082526025908201527f45524332303a207472616e736665722066726f6d20746865207a65726f20616460408201527f6472657373000000000000000000000000000000000000000000000000000000606082015260800190565b60208082526024908201527f45524332303a20617070726f76652066726f6d20746865207a65726f2061646460408201527f7265737300000000000000000000000000000000000000000000000000000000606082015260800190565b6020808252601f908201527f45524332303a206d696e7420746f20746865207a65726f206164647265737300604082015260600190565b90815260200190565b60ff91909116815260200190565b73ffffffffffffffffffffffffffffffffffffffff81168114610ef157600080fd5b5056fe45524332303a206275726e20616d6f756e7420657863656564732062616c616e636545524332303a207472616e7366657220616d6f756e7420657863656564732062616c616e636545524332303a207472616e7366657220616d6f756e74206578636565647320616c6c6f77616e636545524332303a2064656372656173656420616c6c6f77616e63652062656c6f77207a65726fa26469706673582212202fa3e8857b9746140fc1a36c7ae4de1c47f097b07a00d26df2407a1ead05ae9464736f6c634300060c0033",
  "devdoc": {
    "details": "A mock of an ERC20 token which lets anyone burn and mint tokens.",
    "kind": "dev",
    "methods": {
      "allowance(address,address)": {
        "details": "See {IERC20-allowance}."
      },
      "approve(address,uint256)": {
        "details": "See {IERC20-approve}. Requirements: - `spender` cannot be the zero address."
      },
      "balanceOf(address)": {
        "details": "See {IERC20-balanceOf}."
      },
      "decimals()": {
        "details": "Returns the number of decimals used to get its user representation. For example, if `decimals` equals `2`, a balance of `505` tokens should be displayed to a user as `5,05` (`505 / 10 ** 2`). Tokens usually opt for a value of 18, imitating the relationship between Ether and Wei. This is the value {ERC20} uses, unless {_setupDecimals} is called. NOTE: This information is only used for _display_ purposes: it in no way affects any of the arithmetic of the contract, including {IERC20-balanceOf} and {IERC20-transfer}."
      },
      "decreaseAllowance(address,uint256)": {
        "details": "Atomically decreases the allowance granted to `spender` by the caller. This is an alternative to {approve} that can be used as a mitigation for problems described in {IERC20-approve}. Emits an {Approval} event indicating the updated allowance. Requirements: - `spender` cannot be the zero address. - `spender` must have allowance for the caller of at least `subtractedValue`."
      },
      "increaseAllowance(address,uint256)": {
        "details": "Atomically increases the allowance granted to `spender` by the caller. This is an alternative to {approve} that can be used as a mitigation for problems described in {IERC20-approve}. Emits an {Approval} event indicating the updated allowance. Requirements: - `spender` cannot be the zero address."
      },
      "name()": {
        "details": "Returns the name of the token."
      },
      "symbol()": {
        "details": "Returns the symbol of the token, usually a shorter version of the name."
      },
      "totalSupply()": {
        "details": "See {IERC20-totalSupply}."
      },
      "transfer(address,uint256)": {
        "details": "See {IERC20-transfer}. Requirements: - `recipient` cannot be the zero address. - the caller must have a balance of at least `amount`."
      },
      "transferFrom(address,address,uint256)": {
        "details": "See {IERC20-transferFrom}. Emits an {Approval} event indicating the updated allowance. This is not required by the EIP. See the note at the beginning of {ERC20}. Requirements: - `sender` and `recipient` cannot be the zero address. - `sender` must have a balance of at least `amount`. - the caller must have allowance for ``sender``'s tokens of at least `amount`."
      }
    },
    "title": "ERC20Mock",
    "version": 1
  },
  "userdoc": {
    "kind": "user",
    "methods": {},
    "version": 1
  },
  "storageLayout": {
    "storage": [
      {
        "astId": 727,
        "contract": "contracts/mocks/ERC20Mock.sol:ERC20Mock",
        "label": "_balances",
        "offset": 0,
        "slot": "0",
        "type": "t_mapping(t_address,t_uint256)"
      },
      {
        "astId": 733,
        "contract": "contracts/mocks/ERC20Mock.sol:ERC20Mock",
        "label": "_allowances",
        "offset": 0,
        "slot": "1",
        "type": "t_mapping(t_address,t_mapping(t_address,t_uint256))"
      },
      {
        "astId": 735,
        "contract": "contracts/mocks/ERC20Mock.sol:ERC20Mock",
        "label": "_totalSupply",
        "offset": 0,
        "slot": "2",
        "type": "t_uint256"
      },
      {
        "astId": 737,
        "contract": "contracts/mocks/ERC20Mock.sol:ERC20Mock",
        "label": "_name",
        "offset": 0,
        "slot": "3",
        "type": "t_string_storage"
      },
      {
        "astId": 739,
        "contract": "contracts/mocks/ERC20Mock.sol:ERC20Mock",
        "label": "_symbol",
        "offset": 0,
        "slot": "4",
        "type": "t_string_storage"
      },
      {
        "astId": 741,
        "contract": "contracts/mocks/ERC20Mock.sol:ERC20Mock",
        "label": "_decimals",
        "offset": 0,
        "slot": "5",
        "type": "t_uint8"
      }
    ],
    "types": {
      "t_address": {
        "encoding": "inplace",
        "label": "address",
        "numberOfBytes": "20"
      },
      "t_mapping(t_address,t_mapping(t_address,t_uint256))": {
        "encoding": "mapping",
        "key": "t_address",
        "label": "mapping(address => mapping(address => uint256))",
        "numberOfBytes": "32",
        "value": "t_mapping(t_address,t_uint256)"
      },
      "t_mapping(t_address,t_uint256)": {
        "encoding": "mapping",
        "key": "t_address",
        "label": "mapping(address => uint256)",
        "numberOfBytes": "32",
        "value": "t_uint256"
      },
      "t_string_storage": {
        "encoding": "bytes",
        "label": "string",
        "numberOfBytes": "32"
      },
      "t_uint256": {
        "encoding": "inplace",
        "label": "uint256",
        "numberOfBytes": "32"
      },
      "t_uint8": {
        "encoding": "inplace",
        "label": "uint8",
        "numberOfBytes": "1"
      }
    }
  }
}