{
  "address": "0x1607e2bA17616400c1a48834B7b69ae527Cc4893",
  "abi": [
    {
      "inputs": [
        {
          "internalType": "address",
          "name": "_rewardToken",
          "type": "address"
        },
        {
          "internalType": "address",
          "name": "_stakingToken",
          "type": "address"
        },
        {
          "internalType": "uint256",
          "name": "_duration",
          "type": "uint256"
        }
      ],
      "stateMutability": "nonpayable",
      "type": "constructor"
    },
    {
      "anonymous": false,
      "inputs": [
        {
          "indexed": true,
          "internalType": "address",
          "name": "previousOwner",
          "type": "address"
        },
        {
          "indexed": true,
          "internalType": "address",
          "name": "newOwner",
          "type": "address"
        }
      ],
      "name": "OwnershipTransferred",
      "type": "event"
    },
    {
      "anonymous": false,
      "inputs": [
        {
          "indexed": false,
          "internalType": "uint256",
          "name": "reward",
          "type": "uint256"
        }
      ],
      "name": "RewardAdded",
      "type": "event"
    },
    {
      "anonymous": false,
      "inputs": [
        {
          "indexed": true,
          "internalType": "address",
          "name": "user",
          "type": "address"
        },
        {
          "indexed": false,
          "internalType": "uint256",
          "name": "reward",
          "type": "uint256"
        }
      ],
      "name": "RewardPaid",
      "type": "event"
    },
    {
      "anonymous": false,
      "inputs": [
        {
          "indexed": true,
          "internalType": "address",
          "name": "user",
          "type": "address"
        },
        {
          "indexed": false,
          "internalType": "uint256",
          "name": "amount",
          "type": "uint256"
        }
      ],
      "name": "Staked",
      "type": "event"
    },
    {
      "anonymous": false,
      "inputs": [
        {
          "indexed": true,
          "internalType": "address",
          "name": "user",
          "type": "address"
        },
        {
          "indexed": false,
          "internalType": "uint256",
          "name": "amount",
          "type": "uint256"
        }
      ],
      "name": "Withdrawn",
      "type": "event"
    },
    {
      "inputs": [
        {
          "internalType": "address",
          "name": "account",
          "type": "address"
        }
      ],
      "name": "balanceOf",
      "outputs": [
        {
          "internalType": "uint256",
          "name": "",
          "type": "uint256"
        }
      ],
      "stateMutability": "view",
      "type": "function"
    },
    {
      "inputs": [],
      "name": "duration",
      "outputs": [
        {
          "internalType": "uint256",
          "name": "",
          "type": "uint256"
        }
      ],
      "stateMutability": "view",
      "type": "function"
    },
    {
      "inputs": [
        {
          "internalType": "address",
          "name": "account",
          "type": "address"
        }
      ],
      "name": "earned",
      "outputs": [
        {
          "internalType": "uint256",
          "name": "",
          "type": "uint256"
        }
      ],
      "stateMutability": "view",
      "type": "function"
    },
    {
      "inputs": [],
      "name": "exit",
      "outputs": [],
      "stateMutability": "nonpayable",
      "type": "function"
    },
    {
      "inputs": [],
      "name": "getReward",
      "outputs": [],
      "stateMutability": "nonpayable",
      "type": "function"
    },
    {
      "inputs": [],
      "name": "lastTimeRewardApplicable",
      "outputs": [
        {
          "internalType": "uint256",
          "name": "",
          "type": "uint256"
        }
      ],
      "stateMutability": "view",
      "type": "function"
    },
    {
      "inputs": [],
      "name": "lastUpdateTime",
      "outputs": [
        {
          "internalType": "uint256",
          "name": "",
          "type": "uint256"
        }
      ],
      "stateMutability": "view",
      "type": "function"
    },
    {
      "inputs": [
        {
          "internalType": "uint256",
          "name": "reward",
          "type": "uint256"
        }
      ],
      "name": "notifyRewardAmount",
      "outputs": [],
      "stateMutability": "nonpayable",
      "type": "function"
    },
    {
      "inputs": [
        {
          "internalType": "address",
          "name": "sender",
          "type": "address"
        },
        {
          "internalType": "uint256",
          "name": "amount",
          "type": "uint256"
        },
        {
          "internalType": "bytes",
          "name": "",
          "type": "bytes"
        }
      ],
      "name": "onTokenTransfer",
      "outputs": [],
      "stateMutability": "nonpayable",
      "type": "function"
    },
    {
      "inputs": [],
      "name": "owner",
      "outputs": [
        {
          "internalType": "address",
          "name": "",
          "type": "address"
        }
      ],
      "stateMutability": "view",
      "type": "function"
    },
    {
      "inputs": [],
      "name": "periodFinish",
      "outputs": [
        {
          "internalType": "uint256",
          "name": "",
          "type": "uint256"
        }
      ],
      "stateMutability": "view",
      "type": "function"
    },
    {
      "inputs": [],
      "name": "renounceOwnership",
      "outputs": [],
      "stateMutability": "nonpayable",
      "type": "function"
    },
    {
      "inputs": [],
      "name": "rewardDistribution",
      "outputs": [
        {
          "internalType": "address",
          "name": "",
          "type": "address"
        }
      ],
      "stateMutability": "view",
      "type": "function"
    },
    {
      "inputs": [],
      "name": "rewardPerToken",
      "outputs": [
        {
          "internalType": "uint256",
          "name": "",
          "type": "uint256"
        }
      ],
      "stateMutability": "view",
      "type": "function"
    },
    {
      "inputs": [],
      "name": "rewardPerTokenStored",
      "outputs": [
        {
          "internalType": "uint256",
          "name": "",
          "type": "uint256"
        }
      ],
      "stateMutability": "view",
      "type": "function"
    },
    {
      "inputs": [],
      "name": "rewardRate",
      "outputs": [
        {
          "internalType": "uint256",
          "name": "",
          "type": "uint256"
        }
      ],
      "stateMutability": "view",
      "type": "function"
    },
    {
      "inputs": [],
      "name": "rewardToken",
      "outputs": [
        {
          "internalType": "contract IERC20",
          "name": "",
          "type": "address"
        }
      ],
      "stateMutability": "view",
      "type": "function"
    },
    {
      "inputs": [
        {
          "internalType": "address",
          "name": "",
          "type": "address"
        }
      ],
      "name": "rewards",
      "outputs": [
        {
          "internalType": "uint256",
          "name": "",
          "type": "uint256"
        }
      ],
      "stateMutability": "view",
      "type": "function"
    },
    {
      "inputs": [
        {
          "internalType": "address",
          "name": "_rewardDistribution",
          "type": "address"
        }
      ],
      "name": "setRewardDistribution",
      "outputs": [],
      "stateMutability": "nonpayable",
      "type": "function"
    },
    {
      "inputs": [
        {
          "internalType": "uint256",
          "name": "amount",
          "type": "uint256"
        }
      ],
      "name": "stake",
      "outputs": [],
      "stateMutability": "nonpayable",
      "type": "function"
    },
    {
      "inputs": [],
      "name": "stakingToken",
      "outputs": [
        {
          "internalType": "contract IERC20",
          "name": "",
          "type": "address"
        }
      ],
      "stateMutability": "view",
      "type": "function"
    },
    {
      "inputs": [],
      "name": "totalSupply",
      "outputs": [
        {
          "internalType": "uint256",
          "name": "",
          "type": "uint256"
        }
      ],
      "stateMutability": "view",
      "type": "function"
    },
    {
      "inputs": [
        {
          "internalType": "address",
          "name": "newOwner",
          "type": "address"
        }
      ],
      "name": "transferOwnership",
      "outputs": [],
      "stateMutability": "nonpayable",
      "type": "function"
    },
    {
      "inputs": [
        {
          "internalType": "address",
          "name": "",
          "type": "address"
        }
      ],
      "name": "userRewardPerTokenPaid",
      "outputs": [
        {
          "internalType": "uint256",
          "name": "",
          "type": "uint256"
        }
      ],
      "stateMutability": "view",
      "type": "function"
    },
    {
      "inputs": [
        {
          "internalType": "uint256",
          "name": "amount",
          "type": "uint256"
        }
      ],
      "name": "withdraw",
      "outputs": [],
      "stateMutability": "nonpayable",
      "type": "function"
    }
  ],
  "transactionHash": "0x623b05f08b8c6b8764b8bae70c50f9ce21348c1af55ca06c69148725389a07e3",
  "args": [
    "0x9DfC42A9232A1d694C3F0394E8ED7C9678916e74",
    "0x7D91365bC65CF9caDC6aE1d86d35f5add750Fe37",
    31536000
  ],
  "solcInputHash": "60131693b1a1ba983aad465fcb455374",
  "bytecode": "0x60e06040526000600455600060055534801561001a57600080fd5b50604051611b5c380380611b5c8339818101604052606081101561003d57600080fd5b50805160208201516040909201516001600160601b0319606084901b16608052909190600061006a6100d4565b600280546001600160a01b0319166001600160a01b038316908117909155604051919250906000907f8be0079c531659141344cd1fd0a4f28419497f9722a3daafe3b4186f6b6457e0908290a35060609290921b6001600160601b03191660a0525060c0526100d8565b3390565b60805160601c60a05160601c60c051611a2f61012d6000398061062b52806108a952806109055280610940525080610a3c5280611118525080610bf45280610cea528061136652806114fb5250611a2f6000f3fe608060405234801561001057600080fd5b50600436106101a25760003560e01c80637b0a47ee116100ee578063c8f33c9111610097578063e9fad8ee11610071578063e9fad8ee14610462578063ebe2b12b1461046a578063f2fde38b14610472578063f7c618c1146104a5576101a2565b8063c8f33c911461044a578063cd3daf9d14610452578063df136d651461045a576101a2565b80638da5cb5b116100c85780638da5cb5b1461035d578063a4c0ed3614610365578063a694fc3a1461042d576101a2565b80637b0a47ee1461031a57806380faa57d146103225780638b8763471461032a576101a2565b80632e1a7d4d1161015057806370a082311161012a57806370a08231146102d7578063715018a61461030a57806372f702f314610312576101a2565b80632e1a7d4d146102955780633c6b16ab146102b25780633d18b912146102cf576101a2565b80630fb5a6b4116101815780630fb5a6b414610254578063101114cf1461025c57806318160ddd1461028d576101a2565b80628cc262146101a75780630700037d146101ec5780630d68b7611461021f575b600080fd5b6101da600480360360208110156101bd57600080fd5b503573ffffffffffffffffffffffffffffffffffffffff166104ad565b60408051918252519081900360200190f35b6101da6004803603602081101561020257600080fd5b503573ffffffffffffffffffffffffffffffffffffffff16610528565b6102526004803603602081101561023557600080fd5b503573ffffffffffffffffffffffffffffffffffffffff1661053a565b005b6101da610629565b61026461064d565b6040805173ffffffffffffffffffffffffffffffffffffffff9092168252519081900360200190f35b6101da610669565b610252600480360360208110156102ab57600080fd5b5035610670565b610252600480360360208110156102c857600080fd5b5035610797565b61025261099e565b6101da600480360360208110156102ed57600080fd5b503573ffffffffffffffffffffffffffffffffffffffff16610ab3565b610252610adb565b610264610bf2565b6101da610c16565b6101da610c1c565b6101da6004803603602081101561034057600080fd5b503573ffffffffffffffffffffffffffffffffffffffff16610c2f565b610264610c41565b6102526004803603606081101561037b57600080fd5b73ffffffffffffffffffffffffffffffffffffffff823516916020810135918101906060810160408201356401000000008111156103b857600080fd5b8201836020820111156103ca57600080fd5b803590602001918460018302840111640100000000831117156103ec57600080fd5b91908080601f016020809104026020016040519081016040528093929190818152602001838380828437600092019190915250929550610c5d945050505050565b6102526004803603602081101561044357600080fd5b5035610dd2565b6101da610ef9565b6101da610eff565b6101da610f4d565b610252610f53565b6101da610f6e565b6102526004803603602081101561048857600080fd5b503573ffffffffffffffffffffffffffffffffffffffff16610f74565b610264611116565b73ffffffffffffffffffffffffffffffffffffffff81166000908152600960209081526040808320546008909252822054610522919061051c90670de0b6b3a7640000906105169061050790610501610eff565b9061113a565b61051088610ab3565b906111b1565b9061122b565b906112ac565b92915050565b60096020526000908152604090205481565b610542611320565b73ffffffffffffffffffffffffffffffffffffffff16610560610c41565b73ffffffffffffffffffffffffffffffffffffffff16146105e257604080517f08c379a000000000000000000000000000000000000000000000000000000000815260206004820181905260248201527f4f776e61626c653a2063616c6c6572206973206e6f7420746865206f776e6572604482015290519081900360640190fd5b600380547fffffffffffffffffffffffff00000000000000000000000000000000000000001673ffffffffffffffffffffffffffffffffffffffff92909216919091179055565b7f000000000000000000000000000000000000000000000000000000000000000081565b60035473ffffffffffffffffffffffffffffffffffffffff1681565b6000545b90565b33610679610eff565b600755610684610c1c565b60065573ffffffffffffffffffffffffffffffffffffffff8116156106e5576106ac816104ad565b73ffffffffffffffffffffffffffffffffffffffff82166000908152600960209081526040808320939093556007546008909152919020555b6000821161075457604080517f08c379a000000000000000000000000000000000000000000000000000000000815260206004820152601160248201527f43616e6e6f742077697468647261772030000000000000000000000000000000604482015290519081900360640190fd5b61075d82611324565b60408051838152905133917f7084f5476618d8e60b11ef0d7d3f06914655adb8793e28ff7f018d4c76d505d5919081900360200190a25050565b60035473ffffffffffffffffffffffffffffffffffffffff166107b8611320565b73ffffffffffffffffffffffffffffffffffffffff1614610824576040517f08c379a00000000000000000000000000000000000000000000000000000000081526004018080602001828103825260218152602001806119af6021913960400191505060405180910390fd5b600061082e610eff565b600755610839610c1c565b60065573ffffffffffffffffffffffffffffffffffffffff81161561089a57610861816104ad565b73ffffffffffffffffffffffffffffffffffffffff82166000908152600960209081526040808320939093556007546008909152919020555b60045442106108d5576108cd827f000000000000000000000000000000000000000000000000000000000000000061122b565b600555610934565b6004546000906108e5904261113a565b905060006108fe600554836111b190919063ffffffff16565b905061092e7f000000000000000000000000000000000000000000000000000000000000000061051686846112ac565b60055550505b426006819055610964907f00000000000000000000000000000000000000000000000000000000000000006112ac565b6004556040805183815290517fde88a922e0d3b88b24e9623efeb464919c6bf9f66857a65e2bfcf2ce87a9433d9181900360200190a15050565b336109a7610eff565b6007556109b2610c1c565b60065573ffffffffffffffffffffffffffffffffffffffff811615610a13576109da816104ad565b73ffffffffffffffffffffffffffffffffffffffff82166000908152600960209081526040808320939093556007546008909152919020555b6000610a1e336104ad565b90508015610aaf5733600081815260096020526040812055610a78907f000000000000000000000000000000000000000000000000000000000000000073ffffffffffffffffffffffffffffffffffffffff1690836113a5565b60408051828152905133917fe2403640ba68fed3a2f88b7557551d1993f84b99bb10ff833f0cf8db0c5e0486919081900360200190a25b5050565b73ffffffffffffffffffffffffffffffffffffffff1660009081526001602052604090205490565b610ae3611320565b73ffffffffffffffffffffffffffffffffffffffff16610b01610c41565b73ffffffffffffffffffffffffffffffffffffffff1614610b8357604080517f08c379a000000000000000000000000000000000000000000000000000000000815260206004820181905260248201527f4f776e61626c653a2063616c6c6572206973206e6f7420746865206f776e6572604482015290519081900360640190fd5b60025460405160009173ffffffffffffffffffffffffffffffffffffffff16907f8be0079c531659141344cd1fd0a4f28419497f9722a3daafe3b4186f6b6457e0908390a3600280547fffffffffffffffffffffffff0000000000000000000000000000000000000000169055565b7f000000000000000000000000000000000000000000000000000000000000000081565b60055481565b6000610c2a42600454611437565b905090565b60086020526000908152604090205481565b60025473ffffffffffffffffffffffffffffffffffffffff1690565b82610c66610eff565b600755610c71610c1c565b60065573ffffffffffffffffffffffffffffffffffffffff811615610cd257610c99816104ad565b73ffffffffffffffffffffffffffffffffffffffff82166000908152600960209081526040808320939093556007546008909152919020555b3373ffffffffffffffffffffffffffffffffffffffff7f00000000000000000000000000000000000000000000000000000000000000001614610d7657604080517f08c379a000000000000000000000000000000000000000000000000000000000815260206004820152600d60248201527f217374616b696e67546f6b656e00000000000000000000000000000000000000604482015290519081900360640190fd5b610d80848461144d565b60408051848152905173ffffffffffffffffffffffffffffffffffffffff8616917f9e71bc8eea02a63969f509818f2dafb9254532904319f9dbda79b67bd34a5f3d919081900360200190a250505050565b33610ddb610eff565b600755610de6610c1c565b60065573ffffffffffffffffffffffffffffffffffffffff811615610e4757610e0e816104ad565b73ffffffffffffffffffffffffffffffffffffffff82166000908152600960209081526040808320939093556007546008909152919020555b60008211610eb657604080517f08c379a000000000000000000000000000000000000000000000000000000000815260206004820152600e60248201527f43616e6e6f74207374616b652030000000000000000000000000000000000000604482015290519081900360640190fd5b610ebf826114b9565b60408051838152905133917f9e71bc8eea02a63969f509818f2dafb9254532904319f9dbda79b67bd34a5f3d919081900360200190a25050565b60065481565b6000610f09610669565b610f16575060075461066d565b610c2a610f44610f24610669565b610516670de0b6b3a7640000610510600554610510600654610501610c1c565b600754906112ac565b60075481565b610f64610f5f33610ab3565b610670565b610f6c61099e565b565b60045481565b610f7c611320565b73ffffffffffffffffffffffffffffffffffffffff16610f9a610c41565b73ffffffffffffffffffffffffffffffffffffffff161461101c57604080517f08c379a000000000000000000000000000000000000000000000000000000000815260206004820181905260248201527f4f776e61626c653a2063616c6c6572206973206e6f7420746865206f776e6572604482015290519081900360640190fd5b73ffffffffffffffffffffffffffffffffffffffff8116611088576040517f08c379a00000000000000000000000000000000000000000000000000000000081526004018080602001828103825260268152602001806119426026913960400191505060405180910390fd5b60025460405173ffffffffffffffffffffffffffffffffffffffff8084169216907f8be0079c531659141344cd1fd0a4f28419497f9722a3daafe3b4186f6b6457e090600090a3600280547fffffffffffffffffffffffff00000000000000000000000000000000000000001673ffffffffffffffffffffffffffffffffffffffff92909216919091179055565b7f000000000000000000000000000000000000000000000000000000000000000081565b6000828211156111ab57604080517f08c379a000000000000000000000000000000000000000000000000000000000815260206004820152601e60248201527f536166654d6174683a207375627472616374696f6e206f766572666c6f770000604482015290519081900360640190fd5b50900390565b6000826111c057506000610522565b828202828482816111cd57fe5b0414611224576040517f08c379a000000000000000000000000000000000000000000000000000000000815260040180806020018281038252602181526020018061198e6021913960400191505060405180910390fd5b9392505050565b600080821161129b57604080517f08c379a000000000000000000000000000000000000000000000000000000000815260206004820152601a60248201527f536166654d6174683a206469766973696f6e206279207a65726f000000000000604482015290519081900360640190fd5b8183816112a457fe5b049392505050565b60008282018381101561122457604080517f08c379a000000000000000000000000000000000000000000000000000000000815260206004820152601b60248201527f536166654d6174683a206164646974696f6e206f766572666c6f770000000000604482015290519081900360640190fd5b3390565b600054611331908261113a565b60009081553381526001602052604090205461134d908261113a565b336000818152600160205260409020919091556113a2907f000000000000000000000000000000000000000000000000000000000000000073ffffffffffffffffffffffffffffffffffffffff1690836113a5565b50565b6040805173ffffffffffffffffffffffffffffffffffffffff8416602482015260448082018490528251808303909101815260649091019091526020810180517bffffffffffffffffffffffffffffffffffffffffffffffffffffffff167fa9059cbb00000000000000000000000000000000000000000000000000000000179052611432908490611538565b505050565b60008183106114465781611224565b5090919050565b60005461145a90826112ac565b600090815573ffffffffffffffffffffffffffffffffffffffff831681526001602052604090205461148c90826112ac565b73ffffffffffffffffffffffffffffffffffffffff90921660009081526001602052604090209190915550565b6000546114c690826112ac565b6000908155338152600160205260409020546114e290826112ac565b336000818152600160205260409020919091556113a2907f000000000000000000000000000000000000000000000000000000000000000073ffffffffffffffffffffffffffffffffffffffff16903084611610565b606061159a826040518060400160405280602081526020017f5361666545524332303a206c6f772d6c6576656c2063616c6c206661696c65648152508573ffffffffffffffffffffffffffffffffffffffff166116ab9092919063ffffffff16565b805190915015611432578080602001905160208110156115b957600080fd5b5051611432576040517f08c379a000000000000000000000000000000000000000000000000000000000815260040180806020018281038252602a8152602001806119d0602a913960400191505060405180910390fd5b6040805173ffffffffffffffffffffffffffffffffffffffff80861660248301528416604482015260648082018490528251808303909101815260849091019091526020810180517bffffffffffffffffffffffffffffffffffffffffffffffffffffffff167f23b872dd000000000000000000000000000000000000000000000000000000001790526116a5908590611538565b50505050565b60606116ba84846000856116c2565b949350505050565b60608247101561171d576040517f08c379a00000000000000000000000000000000000000000000000000000000081526004018080602001828103825260268152602001806119686026913960400191505060405180910390fd5b6117268561187d565b61179157604080517f08c379a000000000000000000000000000000000000000000000000000000000815260206004820152601d60248201527f416464726573733a2063616c6c20746f206e6f6e2d636f6e7472616374000000604482015290519081900360640190fd5b600060608673ffffffffffffffffffffffffffffffffffffffff1685876040518082805190602001908083835b602083106117fb57805182527fffffffffffffffffffffffffffffffffffffffffffffffffffffffffffffffe090920191602091820191016117be565b6001836020036101000a03801982511681845116808217855250505050505090500191505060006040518083038185875af1925050503d806000811461185d576040519150601f19603f3d011682016040523d82523d6000602084013e611862565b606091505b5091509150611872828286611883565b979650505050505050565b3b151590565b60608315611892575081611224565b8251156118a25782518084602001fd5b816040517f08c379a00000000000000000000000000000000000000000000000000000000081526004018080602001828103825283818151815260200191508051906020019080838360005b838110156119065781810151838201526020016118ee565b50505050905090810190601f1680156119335780820380516001836020036101000a031916815260200191505b509250505060405180910390fdfe4f776e61626c653a206e6577206f776e657220697320746865207a65726f2061646472657373416464726573733a20696e73756666696369656e742062616c616e636520666f722063616c6c536166654d6174683a206d756c7469706c69636174696f6e206f766572666c6f7743616c6c6572206973206e6f742072657761726420646973747269627574696f6e5361666545524332303a204552433230206f7065726174696f6e20646964206e6f742073756363656564a2646970667358221220fe26a42f99f92358cc86f84f8cd670bbaa76937f459b0c07d3eb54d51d36c89264736f6c634300060c0033",
  "devdoc": {
    "kind": "dev",
    "methods": {
      "owner()": {
        "details": "Returns the address of the current owner."
      },
      "renounceOwnership()": {
        "details": "Leaves the contract without owner. It will not be possible to call `onlyOwner` functions anymore. Can only be called by the current owner. NOTE: Renouncing ownership will leave the contract without an owner, thereby removing any functionality that is only available to the owner."
      },
      "transferOwnership(address)": {
        "details": "Transfers ownership of the contract to a new account (`newOwner`). Can only be called by the current owner."
      }
    },
    "version": 1
  },
  "userdoc": {
    "kind": "user",
    "methods": {},
    "version": 1
  },
  "storageLayout": {
    "storage": [
      {
        "astId": 8664,
        "contract": "contracts/vendor/Rewards.sol:Rewards",
        "label": "_totalSupply",
        "offset": 0,
        "slot": "0",
        "type": "t_uint256"
      },
      {
        "astId": 8668,
        "contract": "contracts/vendor/Rewards.sol:Rewards",
        "label": "_balances",
        "offset": 0,
        "slot": "1",
        "type": "t_mapping(t_address,t_uint256)"
      },
      {
        "astId": 290,
        "contract": "contracts/vendor/Rewards.sol:Rewards",
        "label": "_owner",
        "offset": 0,
        "slot": "2",
        "type": "t_address"
      },
      {
        "astId": 8624,
        "contract": "contracts/vendor/Rewards.sol:Rewards",
        "label": "rewardDistribution",
        "offset": 0,
        "slot": "3",
        "type": "t_address"
      },
      {
        "astId": 8812,
        "contract": "contracts/vendor/Rewards.sol:Rewards",
        "label": "periodFinish",
        "offset": 0,
        "slot": "4",
        "type": "t_uint256"
      },
      {
        "astId": 8815,
        "contract": "contracts/vendor/Rewards.sol:Rewards",
        "label": "rewardRate",
        "offset": 0,
        "slot": "5",
        "type": "t_uint256"
      },
      {
        "astId": 8817,
        "contract": "contracts/vendor/Rewards.sol:Rewards",
        "label": "lastUpdateTime",
        "offset": 0,
        "slot": "6",
        "type": "t_uint256"
      },
      {
        "astId": 8819,
        "contract": "contracts/vendor/Rewards.sol:Rewards",
        "label": "rewardPerTokenStored",
        "offset": 0,
        "slot": "7",
        "type": "t_uint256"
      },
      {
        "astId": 8823,
        "contract": "contracts/vendor/Rewards.sol:Rewards",
        "label": "userRewardPerTokenPaid",
        "offset": 0,
        "slot": "8",
        "type": "t_mapping(t_address,t_uint256)"
      },
      {
        "astId": 8827,
        "contract": "contracts/vendor/Rewards.sol:Rewards",
        "label": "rewards",
        "offset": 0,
        "slot": "9",
        "type": "t_mapping(t_address,t_uint256)"
      }
    ],
    "types": {
      "t_address": {
        "encoding": "inplace",
        "label": "address",
        "numberOfBytes": "20"
      },
      "t_mapping(t_address,t_uint256)": {
        "encoding": "mapping",
        "key": "t_address",
        "label": "mapping(address => uint256)",
        "numberOfBytes": "32",
        "value": "t_uint256"
      },
      "t_uint256": {
        "encoding": "inplace",
        "label": "uint256",
        "numberOfBytes": "32"
      }
    }
  }
}