{
  "address": "0x848047d48616Aced5Ae1b008f771AcC3539a7DB2",
  "abi": [
    {
      "inputs": [
        {
          "internalType": "address",
          "name": "_AlToken",
          "type": "address"
        },
        {
          "internalType": "address",
          "name": "_Token",
          "type": "address"
        },
        {
          "internalType": "address",
          "name": "_governance",
          "type": "address"
        }
      ],
      "stateMutability": "nonpayable",
      "type": "constructor"
    },
    {
      "anonymous": false,
      "inputs": [
        {
          "indexed": false,
          "internalType": "address",
          "name": "governance",
          "type": "address"
        }
      ],
      "name": "GovernanceUpdated",
      "type": "event"
    },
    {
      "anonymous": false,
      "inputs": [
        {
          "indexed": false,
          "internalType": "address",
          "name": "pendingGovernance",
          "type": "address"
        }
      ],
      "name": "PendingGovernanceUpdated",
      "type": "event"
    },
    {
      "anonymous": false,
      "inputs": [
        {
          "indexed": false,
          "internalType": "uint256",
          "name": "newTransmutationPeriod",
          "type": "uint256"
        }
      ],
      "name": "TransmuterPeriodUpdated",
      "type": "event"
    },
    {
      "inputs": [],
      "name": "AlToken",
      "outputs": [
        {
          "internalType": "address",
          "name": "",
          "type": "address"
        }
      ],
      "stateMutability": "view",
      "type": "function"
    },
    {
      "inputs": [],
      "name": "POINT_MULTIPLIER",
      "outputs": [
        {
          "internalType": "uint256",
          "name": "",
          "type": "uint256"
        }
      ],
      "stateMutability": "view",
      "type": "function"
    },
    {
      "inputs": [],
      "name": "Token",
      "outputs": [
        {
          "internalType": "address",
          "name": "",
          "type": "address"
        }
      ],
      "stateMutability": "view",
      "type": "function"
    },
    {
      "inputs": [],
      "name": "ZERO_ADDRESS",
      "outputs": [
        {
          "internalType": "address",
          "name": "",
          "type": "address"
        }
      ],
      "stateMutability": "view",
      "type": "function"
    },
    {
      "inputs": [],
      "name": "acceptGovernance",
      "outputs": [],
      "stateMutability": "nonpayable",
      "type": "function"
    },
    {
      "inputs": [],
      "name": "buffer",
      "outputs": [
        {
          "internalType": "uint256",
          "name": "",
          "type": "uint256"
        }
      ],
      "stateMutability": "view",
      "type": "function"
    },
    {
      "inputs": [],
      "name": "bufferInfo",
      "outputs": [
        {
          "internalType": "uint256",
          "name": "_toDistribute",
          "type": "uint256"
        },
        {
          "internalType": "uint256",
          "name": "_deltaBlocks",
          "type": "uint256"
        },
        {
          "internalType": "uint256",
          "name": "_buffer",
          "type": "uint256"
        }
      ],
      "stateMutability": "view",
      "type": "function"
    },
    {
      "inputs": [],
      "name": "claim",
      "outputs": [],
      "stateMutability": "nonpayable",
      "type": "function"
    },
    {
      "inputs": [
        {
          "internalType": "address",
          "name": "",
          "type": "address"
        }
      ],
      "name": "depositedAlTokens",
      "outputs": [
        {
          "internalType": "uint256",
          "name": "",
          "type": "uint256"
        }
      ],
      "stateMutability": "view",
      "type": "function"
    },
    {
      "inputs": [
        {
          "internalType": "address",
          "name": "origin",
          "type": "address"
        },
        {
          "internalType": "uint256",
          "name": "amount",
          "type": "uint256"
        }
      ],
      "name": "distribute",
      "outputs": [],
      "stateMutability": "nonpayable",
      "type": "function"
    },
    {
      "inputs": [
        {
          "internalType": "address",
          "name": "account",
          "type": "address"
        }
      ],
      "name": "dividendsOwing",
      "outputs": [
        {
          "internalType": "uint256",
          "name": "",
          "type": "uint256"
        }
      ],
      "stateMutability": "view",
      "type": "function"
    },
    {
      "inputs": [],
      "name": "exit",
      "outputs": [],
      "stateMutability": "nonpayable",
      "type": "function"
    },
    {
      "inputs": [
        {
          "internalType": "address",
          "name": "toTransmute",
          "type": "address"
        }
      ],
      "name": "forceTransmute",
      "outputs": [],
      "stateMutability": "nonpayable",
      "type": "function"
    },
    {
      "inputs": [
        {
          "internalType": "uint256",
          "name": "from",
          "type": "uint256"
        },
        {
          "internalType": "uint256",
          "name": "to",
          "type": "uint256"
        }
      ],
      "name": "getMultipleUserInfo",
      "outputs": [
        {
          "internalType": "address[]",
          "name": "theUserList",
          "type": "address[]"
        },
        {
          "internalType": "uint256[]",
          "name": "theUserData",
          "type": "uint256[]"
        }
      ],
      "stateMutability": "view",
      "type": "function"
    },
    {
      "inputs": [],
      "name": "governance",
      "outputs": [
        {
          "internalType": "address",
          "name": "",
          "type": "address"
        }
      ],
      "stateMutability": "view",
      "type": "function"
    },
    {
      "inputs": [],
      "name": "lastDepositBlock",
      "outputs": [
        {
          "internalType": "uint256",
          "name": "",
          "type": "uint256"
        }
      ],
      "stateMutability": "view",
      "type": "function"
    },
    {
      "inputs": [
        {
          "internalType": "address",
          "name": "",
          "type": "address"
        }
      ],
      "name": "lastDividendPoints",
      "outputs": [
        {
          "internalType": "uint256",
          "name": "",
          "type": "uint256"
        }
      ],
      "stateMutability": "view",
      "type": "function"
    },
    {
      "inputs": [],
      "name": "nextUser",
      "outputs": [
        {
          "internalType": "uint256",
          "name": "",
          "type": "uint256"
        }
      ],
      "stateMutability": "view",
      "type": "function"
    },
    {
      "inputs": [],
      "name": "pendingGovernance",
      "outputs": [
        {
          "internalType": "address",
          "name": "",
          "type": "address"
        }
      ],
      "stateMutability": "view",
      "type": "function"
    },
    {
      "inputs": [
        {
          "internalType": "address",
          "name": "",
          "type": "address"
        }
      ],
      "name": "realisedTokens",
      "outputs": [
        {
          "internalType": "uint256",
          "name": "",
          "type": "uint256"
        }
      ],
      "stateMutability": "view",
      "type": "function"
    },
    {
      "inputs": [
        {
          "internalType": "address",
          "name": "_pendingGovernance",
          "type": "address"
        }
      ],
      "name": "setPendingGovernance",
      "outputs": [],
      "stateMutability": "nonpayable",
      "type": "function"
    },
    {
      "inputs": [
        {
          "internalType": "uint256",
          "name": "newTransmutationPeriod",
          "type": "uint256"
        }
      ],
      "name": "setTransmutationPeriod",
      "outputs": [],
      "stateMutability": "nonpayable",
      "type": "function"
    },
    {
      "inputs": [
        {
          "internalType": "address",
          "name": "_toWhitelist",
          "type": "address"
        },
        {
          "internalType": "bool",
          "name": "_state",
          "type": "bool"
        }
      ],
      "name": "setWhitelist",
      "outputs": [],
      "stateMutability": "nonpayable",
      "type": "function"
    },
    {
      "inputs": [
        {
          "internalType": "uint256",
          "name": "amount",
          "type": "uint256"
        }
      ],
      "name": "stake",
      "outputs": [],
      "stateMutability": "nonpayable",
      "type": "function"
    },
    {
      "inputs": [
        {
          "internalType": "address",
          "name": "",
          "type": "address"
        }
      ],
      "name": "tokensInBucket",
      "outputs": [
        {
          "internalType": "uint256",
          "name": "",
          "type": "uint256"
        }
      ],
      "stateMutability": "view",
      "type": "function"
    },
    {
      "inputs": [],
      "name": "totalDividendPoints",
      "outputs": [
        {
          "internalType": "uint256",
          "name": "",
          "type": "uint256"
        }
      ],
      "stateMutability": "view",
      "type": "function"
    },
    {
      "inputs": [],
      "name": "totalSupplyAltokens",
      "outputs": [
        {
          "internalType": "uint256",
          "name": "",
          "type": "uint256"
        }
      ],
      "stateMutability": "view",
      "type": "function"
    },
    {
      "inputs": [],
      "name": "transmutationPeriod",
      "outputs": [
        {
          "internalType": "uint256",
          "name": "",
          "type": "uint256"
        }
      ],
      "stateMutability": "view",
      "type": "function"
    },
    {
      "inputs": [],
      "name": "transmute",
      "outputs": [],
      "stateMutability": "nonpayable",
      "type": "function"
    },
    {
      "inputs": [],
      "name": "transmuteAndClaim",
      "outputs": [],
      "stateMutability": "nonpayable",
      "type": "function"
    },
    {
      "inputs": [],
      "name": "transmuteClaimAndWithdraw",
      "outputs": [],
      "stateMutability": "nonpayable",
      "type": "function"
    },
    {
      "inputs": [],
      "name": "unclaimedDividends",
      "outputs": [
        {
          "internalType": "uint256",
          "name": "",
          "type": "uint256"
        }
      ],
      "stateMutability": "view",
      "type": "function"
    },
    {
      "inputs": [
        {
          "internalType": "uint256",
          "name": "amount",
          "type": "uint256"
        }
      ],
      "name": "unstake",
      "outputs": [],
      "stateMutability": "nonpayable",
      "type": "function"
    },
    {
      "inputs": [
        {
          "internalType": "address",
          "name": "user",
          "type": "address"
        }
      ],
      "name": "userInfo",
      "outputs": [
        {
          "internalType": "uint256",
          "name": "depositedAl",
          "type": "uint256"
        },
        {
          "internalType": "uint256",
          "name": "pendingdivs",
          "type": "uint256"
        },
        {
          "internalType": "uint256",
          "name": "inbucket",
          "type": "uint256"
        },
        {
          "internalType": "uint256",
          "name": "realised",
          "type": "uint256"
        }
      ],
      "stateMutability": "view",
      "type": "function"
    },
    {
      "inputs": [
        {
          "internalType": "address",
          "name": "",
          "type": "address"
        }
      ],
      "name": "userIsKnown",
      "outputs": [
        {
          "internalType": "bool",
          "name": "",
          "type": "bool"
        }
      ],
      "stateMutability": "view",
      "type": "function"
    },
    {
      "inputs": [
        {
          "internalType": "uint256",
          "name": "",
          "type": "uint256"
        }
      ],
      "name": "userList",
      "outputs": [
        {
          "internalType": "address",
          "name": "",
          "type": "address"
        }
      ],
      "stateMutability": "view",
      "type": "function"
    },
    {
      "inputs": [
        {
          "internalType": "address",
          "name": "",
          "type": "address"
        }
      ],
      "name": "whiteList",
      "outputs": [
        {
          "internalType": "bool",
          "name": "",
          "type": "bool"
        }
      ],
      "stateMutability": "view",
      "type": "function"
    }
  ],
  "transactionHash": "0xa0a05124fbaf4c22f7a9f37a89a59fdfd7f7ed5a1bfdd852defe420ccc9a2e78",
  "args": [
    "0x62a3909D5a2d4A50e2225177FAF147e2D9d4B96f",
    "0x25E853D3C1e46233766ea77c437c8127D55FcF13",
    "0x69Dc1267198e2D21B56Ef0f1C6BcC57d96A7ED4B"
  ],
  "solcInputHash": "38e5df16817a53515de6fb4ad4dcf0e1",
  "bytecode": "0x60c06040523480156200001157600080fd5b5060405162002832380380620028328339810160408190526200003491620000ab565b6001600160a01b038116620000665760405162461bcd60e51b81526004016200005d90620000fe565b60405180910390fd5b600e80546001600160a01b039092166001600160a01b03199092169190911790556001600160601b0319606092831b8116608052911b1660a052603260005562000142565b600080600060608486031215620000c0578283fd5b8351620000cd8162000129565b6020850151909350620000e08162000129565b6040850151909250620000f38162000129565b809150509250925092565b6020808252601190820152702a3930b739b6baba32b91d10181033b7bb60791b604082015260600190565b6001600160a01b03811681146200013f57600080fd5b50565b60805160601c60a05160601c6126a36200018f60003980610cfa52806115fe52806116375280611b07525080610c5d528061113352806111df52806114b4528061191552506126a36000f3fe608060405234801561001057600080fd5b50600436106102775760003560e01c8063806985f711610160578063bc0bc215116100d8578063edaafe201161008c578063f39c38a011610071578063f39c38a014610490578063f93f394c14610498578063fb932108146104ab57610277565b8063edaafe2014610480578063f1f792001461048857610277565b8063c2412676116100bd578063c241267614610468578063e044205e14610470578063e9fad8ee1461047857610277565b8063bc0bc2151461044d578063bff170b91461045557610277565b80639f4216e81161012f578063a196cf2e11610114578063a196cf2e1461041f578063a694fc3a14610427578063b870d5981461043a57610277565b80639f4216e8146103f9578063a02fbe2d1461040c57610277565b8063806985f7146103c357806381ac45fb146103d65780638391e45c146103de5780639cc848d8146103f157610277565b8063372c12b1116101f357806352710007116101c257806353d6fd59116101a757806353d6fd59146103955780635aa6e675146103a857806379070a12146103b057610277565b8063527100071461036d578063538ba4f91461038057610277565b8063372c12b1146103355780633cb802b9146103555780634bf04bd11461035d5780634e71d92d1461036557610277565b80632113342d1161024a5780632a03cf681161022f5780632a03cf68146103125780632a3d7c811461031a5780632e17de781461032257610277565b80632113342d146102f5578063238efcbc1461030a57610277565b8063030362901461027c57806305d2301d146102a65780630abb6035146102bd5780631959a002146102d2575b600080fd5b61028f61028a36600461209e565b6104be565b60405161029d929190612175565b60405180910390f35b6102ae610719565b60405161029d93929190612602565b6102d06102cb366004611fee565b610753565b005b6102e56102e0366004611fee565b610875565b60405161029d9493929190612618565b6102fd61098e565b60405161029d91906125f9565b6102d0610994565b6102d0610a5b565b6102fd610a6d565b6102d0610330366004612086565b610a73565b610348610343366004611fee565b610c8e565b60405161029d9190612203565b6102fd610ca3565b6102fd610ca9565b6102d0610caf565b6102fd61037b366004611fee565b610d25565b610388610d37565b60405161029d91906120fd565b6102d06103a3366004612009565b610d3c565b610388610de3565b6103486103be366004611fee565b610dff565b6102fd6103d1366004611fee565b610e14565b6102fd610e26565b6102fd6103ec366004611fee565b610e2c565b6102fd610ea9565b610388610407366004612086565b610eb5565b6102d061041a366004612086565b610edd565b6102fd610f63565b6102d0610435366004612086565b610f69565b6102fd610448366004611fee565b6111cb565b6103886111dd565b6102d0610463366004611fee565b611201565b610388611635565b6102d0611659565b6102d0611685565b6102fd61168d565b6102d0611693565b6103886119fc565b6102fd6104a6366004611fee565b611a18565b6102d06104b9366004612040565b611a2a565b60608083808403828167ffffffffffffffff811180156104dd57600080fd5b50604051908082528060200260200182016040528015610507578160200160208202803683370190505b50905060608260020267ffffffffffffffff8111801561052657600080fd5b50604051908082528060200260200182016040528015610550578160200160208202803683370190505b50905060008061058360005461057d610574600a5443611b4790919063ffffffff16565b60095490611b8e565b90611be2565b905060005461059d600a5443611b4790919063ffffffff16565b11156105a857506009545b60005b8581101561070857600087815260066020526040902054855173ffffffffffffffffffffffffffffffffffffffff909116908690839081106105e957fe5b73ffffffffffffffffffffffffffffffffffffffff928316602091820292909201810191909152600089815260068252604080822054909316815260019091522054845185908590811061063957fe5b60209081029190910181019190915260085460008981526006835260408082205473ffffffffffffffffffffffffffffffffffffffff168252600190935291909120546106db9161068f9161057d908690611b8e565b60008981526006602081815260408084205473ffffffffffffffffffffffffffffffffffffffff168085526002835290842054938d90529190526106d591908290610e2c565b90611c2e565b8484600101815181106106ea57fe5b602090810291909101015260019687019660029390930192016105ab565b509299919850909650505050505050565b6000806000610733600a5443611b4790919063ffffffff16565b600954600054919350915061074c9061057d8385611b8e565b9250909192565b600e5473ffffffffffffffffffffffffffffffffffffffff1633146107ad576040517f08c379a00000000000000000000000000000000000000000000000000000000081526004016107a49061225f565b60405180910390fd5b73ffffffffffffffffffffffffffffffffffffffff81166107fa576040517f08c379a00000000000000000000000000000000000000000000000000000000081526004016107a49061243d565b600f80547fffffffffffffffffffffffff00000000000000000000000000000000000000001673ffffffffffffffffffffffffffffffffffffffff83161790556040517fc9e2377236eab4280090ce8f2317332649736d92f00dcf20a8dd6684ec5e78399061086a9083906120fd565b60405180910390a150565b73ffffffffffffffffffffffffffffffffffffffff81166000908152600160205260408120548154600a5483928392839283916108bb9161057d90610574904390611b47565b90506000546108d5600a5443611b4790919063ffffffff16565b11156108e057506009545b60085473ffffffffffffffffffffffffffffffffffffffff8816600090815260016020526040812054909161091a9161057d908590611b8e565b9050600061095661092a8a610e2c565b73ffffffffffffffffffffffffffffffffffffffff8b1660009081526002602052604090205490611c2e565b73ffffffffffffffffffffffffffffffffffffffff999099166000908152600360205260409020549399919897509295509350505050565b600b5481565b600f5473ffffffffffffffffffffffffffffffffffffffff1633146109e5576040517f08c379a00000000000000000000000000000000000000000000000000000000081526004016107a490612406565b600f54600e80547fffffffffffffffffffffffff00000000000000000000000000000000000000001673ffffffffffffffffffffffffffffffffffffffff90921691821790556040517f9d3e522e1e47a2f6009739342b9cc7b252a1888154e843ab55ee1c81745795ab9061086a9083906120fd565b610a63611693565b610a6b610caf565b565b600a5481565b600a5460095443906000908015610ae8576000610a908486611b47565b90506000548110610aa357819250610aca565b600054610ab08383611b8e565b1115610aca57600054610ac79061057d8484611b8e565b92505b8215610ae657610ada8284611b47565b600955610ae683611c6d565b505b600a839055336000610af982610e2c565b90508015610b6857600c54610b0e9082611b47565b600c5573ffffffffffffffffffffffffffffffffffffffff8216600090815260026020526040902054610b419082611c2e565b73ffffffffffffffffffffffffffffffffffffffff83166000908152600260205260409020555b600b5473ffffffffffffffffffffffffffffffffffffffff831660009081526004602090815260408083209390935533808352600190915291902054881115610bdd576040517f08c379a00000000000000000000000000000000000000000000000000000000081526004016107a4906124d1565b73ffffffffffffffffffffffffffffffffffffffff8116600090815260016020526040902054610c0d9089611b47565b73ffffffffffffffffffffffffffffffffffffffff8216600090815260016020526040902055600854610c409089611b47565b600855610c8473ffffffffffffffffffffffffffffffffffffffff7f000000000000000000000000000000000000000000000000000000000000000016828a611cd5565b5050505050505050565b600d6020526000908152604090205460ff1681565b600c5481565b60085481565b33600081815260036020526040902054610cc857600080fd5b73ffffffffffffffffffffffffffffffffffffffff8082166000908152600360205260408120805491905590610d21907f0000000000000000000000000000000000000000000000000000000000000000168383611cd5565b5050565b60036020526000908152604090205481565b600081565b600e5473ffffffffffffffffffffffffffffffffffffffff163314610d8d576040517f08c379a00000000000000000000000000000000000000000000000000000000081526004016107a49061225f565b73ffffffffffffffffffffffffffffffffffffffff919091166000908152600d6020526040902080547fffffffffffffffffffffffffffffffffffffffffffffffffffffffffffffff0016911515919091179055565b600e5473ffffffffffffffffffffffffffffffffffffffff1681565b60056020526000908152604090205460ff1681565b60046020526000908152604090205481565b60005481565b73ffffffffffffffffffffffffffffffffffffffff8116600090815260046020526040812054600b548291610e619190611b47565b73ffffffffffffffffffffffffffffffffffffffff8416600090815260016020526040902054909150610ea290678ac7230489e800009061057d9084611b8e565b9392505050565b678ac7230489e8000081565b60066020526000908152604090205473ffffffffffffffffffffffffffffffffffffffff1681565b600e5473ffffffffffffffffffffffffffffffffffffffff163314610f2e576040517f08c379a00000000000000000000000000000000000000000000000000000000081526004016107a49061225f565b60008190556040517fc2965d898897107f6f1d0e43c043ca07b7a51d487acfac1decec2ec8405364409061086a9083906125f9565b60075481565b600a5460095443906000908015610fde576000610f868486611b47565b90506000548110610f9957819250610fc0565b600054610fa68383611b8e565b1115610fc057600054610fbd9061057d8484611b8e565b92505b8215610fdc57610fd08284611b47565b600955610fdc83611c6d565b505b600a839055336000610fef82610e2c565b9050801561105e57600c546110049082611b47565b600c5573ffffffffffffffffffffffffffffffffffffffff82166000908152600260205260409020546110379082611c2e565b73ffffffffffffffffffffffffffffffffffffffff83166000908152600260205260409020555b600b5473ffffffffffffffffffffffffffffffffffffffff831660009081526004602090815260408083209390935533825260059052205460ff166111185760078054600090815260066020908152604080832080547fffffffffffffffffffffffff0000000000000000000000000000000000000000163390811790915583526005909152902080547fffffffffffffffffffffffffffffffffffffffffffffffffffffffffffffff0016600190811790915581540190555b3361115b73ffffffffffffffffffffffffffffffffffffffff7f00000000000000000000000000000000000000000000000000000000000000001682308b611d7b565b6008546111689089611c2e565b60085573ffffffffffffffffffffffffffffffffffffffff811660009081526001602052604090205461119b9089611c2e565b73ffffffffffffffffffffffffffffffffffffffff90911660009081526001602052604090205550505050505050565b60026020526000908152604090205481565b7f000000000000000000000000000000000000000000000000000000000000000081565b600a546009544390600090801561127657600061121e8486611b47565b9050600054811061123157819250611258565b60005461123e8383611b8e565b1115611258576000546112559061057d8484611b8e565b92505b8215611274576112688284611b47565b60095561127483611c6d565b505b600a83905533600061128782610e2c565b905080156112f657600c5461129c9082611b47565b600c5573ffffffffffffffffffffffffffffffffffffffff82166000908152600260205260409020546112cf9082611c2e565b73ffffffffffffffffffffffffffffffffffffffff83166000908152600260205260409020555b600b5473ffffffffffffffffffffffffffffffffffffffff8316600090815260046020526040812091909155879061132d82610e2c565b9050801561139c57600c546113429082611b47565b600c5573ffffffffffffffffffffffffffffffffffffffff82166000908152600260205260409020546113759082611c2e565b73ffffffffffffffffffffffffffffffffffffffff83166000908152600260205260409020555b600b5473ffffffffffffffffffffffffffffffffffffffff808416600090815260046020908152604080832094909455918c168152600282528281205460019092529190912054339190811161141e576040517f08c379a00000000000000000000000000000000000000000000000000000000081526004016107a4906123cf565b73ffffffffffffffffffffffffffffffffffffffff8b166000908152600260209081526040808320839055600190915281205461145c908390611b47565b73ffffffffffffffffffffffffffffffffffffffff808e166000908152600160205260408082208054929055517f42966c680000000000000000000000000000000000000000000000000000000081529094509192507f000000000000000000000000000000000000000000000000000000000000000016906342966c68906114e99085906004016125f9565b600060405180830381600087803b15801561150357600080fd5b505af1158015611517573d6000803e3d6000fd5b50506008546115299250905083611b47565b60085573ffffffffffffffffffffffffffffffffffffffff831660009081526002602052604090205461155c9082611c2e565b73ffffffffffffffffffffffffffffffffffffffff808516600090815260026020908152604080832094909455918f1681526003909152205461159f9083611c2e565b73ffffffffffffffffffffffffffffffffffffffff8d166000908152600360205260409020819055156116275773ffffffffffffffffffffffffffffffffffffffff808d166000908152600360205260408120805491905590611625907f0000000000000000000000000000000000000000000000000000000000000000168e83611cd5565b505b505050505050505050505050565b7f000000000000000000000000000000000000000000000000000000000000000081565b611661611693565b611669610caf565b3360009081526001602052604090205461168281610a73565b50565b611669611693565b60095481565b600a54600954439060009080156117085760006116b08486611b47565b905060005481106116c3578192506116ea565b6000546116d08383611b8e565b11156116ea576000546116e79061057d8484611b8e565b92505b8215611706576116fa8284611b47565b60095561170683611c6d565b505b600a83905533600061171982610e2c565b9050801561178857600c5461172e9082611b47565b600c5573ffffffffffffffffffffffffffffffffffffffff82166000908152600260205260409020546117619082611c2e565b73ffffffffffffffffffffffffffffffffffffffff83166000908152600260205260409020555b600b5473ffffffffffffffffffffffffffffffffffffffff83166000908152600460209081526040808320939093553380835260029091529181205490816117fc576040517f08c379a00000000000000000000000000000000000000000000000000000000081526004016107a490612304565b73ffffffffffffffffffffffffffffffffffffffff8316600090815260026020908152604080832083905560019091529020548211156118925773ffffffffffffffffffffffffffffffffffffffff8316600090815260016020526040902054611867908390611b47565b73ffffffffffffffffffffffffffffffffffffffff8416600090815260016020526040902054925090505b73ffffffffffffffffffffffffffffffffffffffff83166000908152600160205260409020546118c29083611b47565b73ffffffffffffffffffffffffffffffffffffffff808516600090815260016020526040908190209290925590517f42966c680000000000000000000000000000000000000000000000000000000081527f0000000000000000000000000000000000000000000000000000000000000000909116906342966c689061194c9085906004016125f9565b600060405180830381600087803b15801561196657600080fd5b505af115801561197a573d6000803e3d6000fd5b505060085461198c9250905083611b47565b60085561199881611c6d565b73ffffffffffffffffffffffffffffffffffffffff83166000908152600360205260409020546119c89083611c2e565b73ffffffffffffffffffffffffffffffffffffffff9093166000908152600360205260409020929092555050505050505050565b600f5473ffffffffffffffffffffffffffffffffffffffff1681565b60016020526000908152604090205481565b336000908152600d602052604090205460ff16611a73576040517f08c379a00000000000000000000000000000000000000000000000000000000081526004016107a49061252e565b600a5460095443906000908015611ae8576000611a908486611b47565b90506000548110611aa357819250611aca565b600054611ab08383611b8e565b1115611aca57600054611ac79061057d8484611b8e565b92505b8215611ae657611ada8284611b47565b600955611ae683611c6d565b505b600a839055611b2f73ffffffffffffffffffffffffffffffffffffffff7f000000000000000000000000000000000000000000000000000000000000000016873088611d7b565b600954611b3c9086611c2e565b600955505050505050565b600082821115611b83576040517f08c379a00000000000000000000000000000000000000000000000000000000081526004016107a4906122cd565b508082035b92915050565b600082611b9d57506000611b88565b82820282848281611baa57fe5b0414610ea2576040517f08c379a00000000000000000000000000000000000000000000000000000000081526004016107a490612474565b6000808211611c1d576040517f08c379a00000000000000000000000000000000000000000000000000000000081526004016107a490612398565b818381611c2657fe5b049392505050565b600082820183811015610ea2576040517f08c379a00000000000000000000000000000000000000000000000000000000081526004016107a490612296565b6000600854118015611c7f5750600081115b15611cc257600854611caa90611ca19061057d84678ac7230489e80000611b8e565b600b5490611c2e565b600b55600c54611cba9082611c2e565b600c55611682565b600954611ccf9082611c2e565b60095550565b611d768363a9059cbb60e01b8484604051602401611cf492919061214f565b604080517fffffffffffffffffffffffffffffffffffffffffffffffffffffffffffffffe08184030181529190526020810180517bffffffffffffffffffffffffffffffffffffffffffffffffffffffff167fffffffff0000000000000000000000000000000000000000000000000000000090931692909217909152611da2565b505050565b611d9c846323b872dd60e01b858585604051602401611cf49392919061211e565b50505050565b6060611e04826040518060400160405280602081526020017f5361666545524332303a206c6f772d6c6576656c2063616c6c206661696c65648152508573ffffffffffffffffffffffffffffffffffffffff16611e589092919063ffffffff16565b805190915015611d765780806020019051810190611e22919061206a565b611d76576040517f08c379a00000000000000000000000000000000000000000000000000000000081526004016107a49061259c565b6060611e678484600085611e6f565b949350505050565b606082471015611eab576040517f08c379a00000000000000000000000000000000000000000000000000000000081526004016107a49061233b565b611eb485611f71565b611eea576040517f08c379a00000000000000000000000000000000000000000000000000000000081526004016107a490612565565b600060608673ffffffffffffffffffffffffffffffffffffffff168587604051611f1491906120e1565b60006040518083038185875af1925050503d8060008114611f51576040519150601f19603f3d011682016040523d82523d6000602084013e611f56565b606091505b5091509150611f66828286611f77565b979650505050505050565b3b151590565b60608315611f86575081610ea2565b825115611f965782518084602001fd5b816040517f08c379a00000000000000000000000000000000000000000000000000000000081526004016107a4919061220e565b803573ffffffffffffffffffffffffffffffffffffffff81168114611b8857600080fd5b600060208284031215611fff578081fd5b610ea28383611fca565b6000806040838503121561201b578081fd5b6120258484611fca565b915060208301356120358161265f565b809150509250929050565b60008060408385031215612052578182fd5b61205c8484611fca565b946020939093013593505050565b60006020828403121561207b578081fd5b8151610ea28161265f565b600060208284031215612097578081fd5b5035919050565b600080604083850312156120b0578182fd5b50508035926020909101359150565b815260200190565b73ffffffffffffffffffffffffffffffffffffffff169052565b600082516120f3818460208701612633565b9190910192915050565b73ffffffffffffffffffffffffffffffffffffffff91909116815260200190565b73ffffffffffffffffffffffffffffffffffffffff9384168152919092166020820152604081019190915260600190565b73ffffffffffffffffffffffffffffffffffffffff929092168252602082015260400190565b604080825283519082018190526000906020906060840190828701845b828110156121b5576121a58483516120c7565b9284019290840190600101612192565b505050838103828501528085516121cc81846125f9565b91508387019250845b818110156121f6576121e88385516120bf565b9385019392506001016121d5565b5090979650505050505050565b901515815260200190565b600060208252825180602084015261222d816040850160208701612633565b601f017fffffffffffffffffffffffffffffffffffffffffffffffffffffffffffffffe0169190910160400192915050565b60208082526017908201527f5472616e736d757465723a2021676f7665726e616e6365000000000000000000604082015260600190565b6020808252601b908201527f536166654d6174683a206164646974696f6e206f766572666c6f770000000000604082015260600190565b6020808252601e908201527f536166654d6174683a207375627472616374696f6e206f766572666c6f770000604082015260600190565b6020808252601e908201527f6e65656420746f20686176652070656e64696e6720696e206275636b65740000604082015260600190565b60208082526026908201527f416464726573733a20696e73756666696369656e742062616c616e636520666f60408201527f722063616c6c0000000000000000000000000000000000000000000000000000606082015260800190565b6020808252601a908201527f536166654d6174683a206469766973696f6e206279207a65726f000000000000604082015260600190565b60208082526015908201527f5472616e736d757465723a20216f766572666c6f770000000000000000000000604082015260600190565b60208082526012908201527f2170656e64696e67476f7665726e616e63650000000000000000000000000000604082015260600190565b60208082526011908201527f5472616e736d757465723a203020676f76000000000000000000000000000000604082015260600190565b60208082526021908201527f536166654d6174683a206d756c7469706c69636174696f6e206f766572666c6f60408201527f7700000000000000000000000000000000000000000000000000000000000000606082015260800190565b60208082526033908201527f5472616e736d757465723a20756e7374616b6520616d6f756e7420657863656560408201527f6473206465706f736974656420616d6f756e7400000000000000000000000000606082015260800190565b60208082526018908201527f5472616e736d757465723a202177686974656c69737465640000000000000000604082015260600190565b6020808252601d908201527f416464726573733a2063616c6c20746f206e6f6e2d636f6e7472616374000000604082015260600190565b6020808252602a908201527f5361666545524332303a204552433230206f7065726174696f6e20646964206e60408201527f6f74207375636365656400000000000000000000000000000000000000000000606082015260800190565b90815260200190565b9283526020830191909152604082015260600190565b93845260208401929092526040830152606082015260800190565b60005b8381101561264e578181015183820152602001612636565b83811115611d9c5750506000910152565b801515811461168257600080fdfea2646970667358221220b6526950185203cb9f4d9480f89fb575edde33028543211bc26065fb38ddc24d64736f6c634300060c0033",
  "devdoc": {
    "details": "Implementation of the {IERC20Burnable} interface. This implementation is agnostic to the way tokens are created. This means that a supply mechanism has to be added in a derived contract using {_mint}. For a generic mechanism see {ERC20PresetMinterPauser}. TIP: For a detailed writeup see our guide https://forum.zeppelin.solutions/t/how-to-implement-erc20-supply-mechanisms/226[How to implement supply mechanisms]. We have followed general OpenZeppelin guidelines: functions revert instead of returning `false` on failure. This behavior is nonetheless conventional and does not conflict with the expectations of ERC20 applications. Additionally, an {Approval} event is emitted on calls to {transferFrom}. This allows applications to reconstruct the allowance for all accounts just by listening to said events. Other implementations of the EIP may not emit these events, as it isn't required by the specification. Finally, the non-standard {decreaseAllowance} and {increaseAllowance} functions have been added to mitigate the well-known issues around setting allowances. See {IERC20Burnable-approve}.",
    "kind": "dev",
    "methods": {
      "acceptGovernance()": {
        "details": "Accepts the role as governance. This function reverts if the caller is not the new pending governance."
      },
      "bufferInfo()": {
        "details": "Gets info on the buffer This function is used to query the contract to get the latest state of the buffer",
        "returns": {
          "_buffer": "the amount in the buffer",
          "_deltaBlocks": "the amount of time since the last phased distribution",
          "_toDistribute": "the amount ready to be distributed"
        }
      },
      "claim()": {
        "details": "claims the base token after it has been transmuted This function reverts if there is no realisedToken balance"
      },
      "distribute(address,uint256)": {
        "details": "Distributes the base token proportionally to all alToken stakers. This function is meant to be called by the Alchemist contract for when it is sending yield to the transmuter. Anyone can call this and add funds, idk why they would do that though...",
        "params": {
          "amount": "the amount of base tokens to be distributed to the transmuter.",
          "origin": "the account that is sending the tokens to be distributed."
        }
      },
      "dividendsOwing(address)": {
        "returns": {
          "_0": "displays the user's share of the pooled alTokens."
        }
      },
      "exit()": {
        "details": "Transmutes and unstakes all alTokens This function combines the transmute and unstake functions for ease of use"
      },
      "forceTransmute(address)": {
        "details": "Executes transmute() on another account that has had more base tokens allocated to it than alTokens staked. The caller of this function will have the surlus base tokens credited to their tokensInBucket balance, rewarding them for performing this action This function reverts if the address to transmute is not over-filled.",
        "params": {
          "toTransmute": "address of the account you will force transmute."
        }
      },
      "getMultipleUserInfo(uint256,uint256)": {
        "details": "Gets the status of multiple users in one call This function is used to query the contract to check for accounts that have overfilled positions in order to check who can be force transmuted.",
        "params": {
          "from": "the first index of the userList",
          "to": "the last index of the userList returns the userList with their staking status in paginated form."
        }
      },
      "setPendingGovernance(address)": {
        "details": "Sets the pending governance. This function reverts if the new pending governance is the zero address or the caller is not the current governance. This is to prevent the contract governance being set to the zero address which would deadlock privileged contract functionality.",
        "params": {
          "_pendingGovernance": "the new pending governance."
        }
      },
      "setTransmutationPeriod(uint256)": {
        "details": "set the transmutationPeriod variable sets the length (in blocks) of one full distribution phase"
      },
      "setWhitelist(address,bool)": {
        "params": {
          "_state": "the whitelist state.",
          "_toWhitelist": "the account to mint tokens to."
        }
      },
      "stake(uint256)": {
        "details": "Deposits alTokens into the transmuter",
        "params": {
          "amount": "the amount of alTokens to stake"
        }
      },
      "transmute()": {
        "details": "Converts the staked alTokens to the base tokens in amount of the sum of pendingdivs and tokensInBucket once the alToken has been converted, it is burned, and the base token becomes realisedTokens which can be recieved using claim() reverts if there are no pendingdivs or tokensInBucket"
      },
      "transmuteAndClaim()": {
        "details": "Transmutes and claims all converted base tokens. This function combines the transmute and claim functions while leaving your remaining alTokens staked."
      },
      "transmuteClaimAndWithdraw()": {
        "details": "Transmutes, claims base tokens, and withdraws alTokens. This function helps users to exit the transmuter contract completely after converting their alTokens to the base pair."
      },
      "unstake(uint256)": {
        "details": "Withdraws staked alTokens from the transmuter This function reverts if you try to draw more tokens than you deposited",
        "params": {
          "amount": "the amount of alTokens to unstake"
        }
      },
      "userInfo(address)": {
        "details": "Gets the status of a user's staking position. The total amount allocated to a user is the sum of pendingdivs and inbucket.",
        "params": {
          "user": "the address of the user you wish to query. returns user status"
        }
      }
    },
    "stateVariables": {
      "POINT_MULTIPLIER": {
        "details": "values needed to calculate the distribution of base asset in proportion for alTokens staked"
      },
      "governance": {
        "details": "The address of the account which currently has administrative capabilities over this contract."
      },
      "pendingGovernance": {
        "details": "The address of the pending governance."
      },
      "whiteList": {
        "details": "alchemist addresses whitelisted"
      }
    },
    "version": 1
  },
  "userdoc": {
    "kind": "user",
    "methods": {
      "setWhitelist(address,bool)": {
        "notice": "This function reverts if the caller is not governance"
      }
    },
    "version": 1
  },
  "storageLayout": {
    "storage": [
      {
        "astId": 4483,
        "contract": "contracts/Transmuter.sol:Transmuter",
        "label": "transmutationPeriod",
        "offset": 0,
        "slot": "0",
        "type": "t_uint256"
      },
      {
        "astId": 4491,
        "contract": "contracts/Transmuter.sol:Transmuter",
        "label": "depositedAlTokens",
        "offset": 0,
        "slot": "1",
        "type": "t_mapping(t_address,t_uint256)"
      },
      {
        "astId": 4495,
        "contract": "contracts/Transmuter.sol:Transmuter",
        "label": "tokensInBucket",
        "offset": 0,
        "slot": "2",
        "type": "t_mapping(t_address,t_uint256)"
      },
      {
        "astId": 4499,
        "contract": "contracts/Transmuter.sol:Transmuter",
        "label": "realisedTokens",
        "offset": 0,
        "slot": "3",
        "type": "t_mapping(t_address,t_uint256)"
      },
      {
        "astId": 4503,
        "contract": "contracts/Transmuter.sol:Transmuter",
        "label": "lastDividendPoints",
        "offset": 0,
        "slot": "4",
        "type": "t_mapping(t_address,t_uint256)"
      },
      {
        "astId": 4507,
        "contract": "contracts/Transmuter.sol:Transmuter",
        "label": "userIsKnown",
        "offset": 0,
        "slot": "5",
        "type": "t_mapping(t_address,t_bool)"
      },
      {
        "astId": 4511,
        "contract": "contracts/Transmuter.sol:Transmuter",
        "label": "userList",
        "offset": 0,
        "slot": "6",
        "type": "t_mapping(t_uint256,t_address)"
      },
      {
        "astId": 4513,
        "contract": "contracts/Transmuter.sol:Transmuter",
        "label": "nextUser",
        "offset": 0,
        "slot": "7",
        "type": "t_uint256"
      },
      {
        "astId": 4515,
        "contract": "contracts/Transmuter.sol:Transmuter",
        "label": "totalSupplyAltokens",
        "offset": 0,
        "slot": "8",
        "type": "t_uint256"
      },
      {
        "astId": 4517,
        "contract": "contracts/Transmuter.sol:Transmuter",
        "label": "buffer",
        "offset": 0,
        "slot": "9",
        "type": "t_uint256"
      },
      {
        "astId": 4519,
        "contract": "contracts/Transmuter.sol:Transmuter",
        "label": "lastDepositBlock",
        "offset": 0,
        "slot": "10",
        "type": "t_uint256"
      },
      {
        "astId": 4521,
        "contract": "contracts/Transmuter.sol:Transmuter",
        "label": "totalDividendPoints",
        "offset": 0,
        "slot": "11",
        "type": "t_uint256"
      },
      {
        "astId": 4523,
        "contract": "contracts/Transmuter.sol:Transmuter",
        "label": "unclaimedDividends",
        "offset": 0,
        "slot": "12",
        "type": "t_uint256"
      },
      {
        "astId": 4528,
        "contract": "contracts/Transmuter.sol:Transmuter",
        "label": "whiteList",
        "offset": 0,
        "slot": "13",
        "type": "t_mapping(t_address,t_bool)"
      },
      {
        "astId": 4531,
        "contract": "contracts/Transmuter.sol:Transmuter",
        "label": "governance",
        "offset": 0,
        "slot": "14",
        "type": "t_address"
      },
      {
        "astId": 4534,
        "contract": "contracts/Transmuter.sol:Transmuter",
        "label": "pendingGovernance",
        "offset": 0,
        "slot": "15",
        "type": "t_address"
      }
    ],
    "types": {
      "t_address": {
        "encoding": "inplace",
        "label": "address",
        "numberOfBytes": "20"
      },
      "t_bool": {
        "encoding": "inplace",
        "label": "bool",
        "numberOfBytes": "1"
      },
      "t_mapping(t_address,t_bool)": {
        "encoding": "mapping",
        "key": "t_address",
        "label": "mapping(address => bool)",
        "numberOfBytes": "32",
        "value": "t_bool"
      },
      "t_mapping(t_address,t_uint256)": {
        "encoding": "mapping",
        "key": "t_address",
        "label": "mapping(address => uint256)",
        "numberOfBytes": "32",
        "value": "t_uint256"
      },
      "t_mapping(t_uint256,t_address)": {
        "encoding": "mapping",
        "key": "t_uint256",
        "label": "mapping(uint256 => address)",
        "numberOfBytes": "32",
        "value": "t_address"
      },
      "t_uint256": {
        "encoding": "inplace",
        "label": "uint256",
        "numberOfBytes": "32"
      }
    }
  }
}