{
  "address": "0x7C56d22Ba92a07aD3e12BeaA61d7dD7371C8Cad3",
  "abi": [
    {
      "inputs": [
        {
          "internalType": "contract IVault",
          "name": "_vault",
          "type": "address"
        },
        {
          "internalType": "address",
          "name": "_admin",
          "type": "address"
        }
      ],
      "stateMutability": "nonpayable",
      "type": "constructor"
    },
    {
      "inputs": [],
      "name": "admin",
      "outputs": [
        {
          "internalType": "address",
          "name": "",
          "type": "address"
        }
      ],
      "stateMutability": "view",
      "type": "function"
    },
    {
      "inputs": [
        {
          "internalType": "uint256",
          "name": "_amount",
          "type": "uint256"
        }
      ],
      "name": "deposit",
      "outputs": [],
      "stateMutability": "nonpayable",
      "type": "function"
    },
    {
      "inputs": [],
      "name": "token",
      "outputs": [
        {
          "internalType": "contract IDetailedERC20",
          "name": "",
          "type": "address"
        }
      ],
      "stateMutability": "view",
      "type": "function"
    },
    {
      "inputs": [],
      "name": "totalValue",
      "outputs": [
        {
          "internalType": "uint256",
          "name": "",
          "type": "uint256"
        }
      ],
      "stateMutability": "view",
      "type": "function"
    },
    {
      "inputs": [],
      "name": "vault",
      "outputs": [
        {
          "internalType": "contract IVault",
          "name": "",
          "type": "address"
        }
      ],
      "stateMutability": "view",
      "type": "function"
    },
    {
      "inputs": [
        {
          "internalType": "address",
          "name": "_recipient",
          "type": "address"
        },
        {
          "internalType": "uint256",
          "name": "_amount",
          "type": "uint256"
        }
      ],
      "name": "withdraw",
      "outputs": [],
      "stateMutability": "nonpayable",
      "type": "function"
    }
  ],
  "transactionHash": "0x5d07ff9e36bfbd7f5079c5b5042a056880379cd83077dd03208ec484b4e3b079",
  "args": [
    "0x631EB675F927ba765b6C6c02df0651144B9858e5",
    "0x69Dc1267198e2D21B56Ef0f1C6BcC57d96A7ED4B"
  ],
  "solcInputHash": "e28779e1c6fa97393b5bc15b8c643560",
  "bytecode": "0x60e06040523480156200001157600080fd5b50604051620017283803806200172883398101604081905262000034916200045b565b6001600160a01b038116620000665760405162461bcd60e51b81526004016200005d906200057e565b60405180910390fd5b6001600160601b0319606083811b821660805282901b1660a052604080516321df0da760e01b815290516000916001600160a01b038516916321df0da791600480820192602092909190829003018186803b158015620000c557600080fd5b505afa158015620000da573d6000803e3d6000fd5b505050506040513d601f19601f820116820180604052508101906200010091906200041a565b606081901b6001600160601b03191660c0529050620001386001600160a01b0382168460001962000141602090811b620005d317901c565b505050620006f7565b801580620001d05750604051636eb1769f60e11b81526001600160a01b0384169063dd62ed3e906200017a9030908690600401620004d0565b60206040518083038186803b1580156200019357600080fd5b505afa158015620001a8573d6000803e3d6000fd5b505050506040513d601f19601f82011682018060405250810190620001ce919062000499565b155b620001ef5760405162461bcd60e51b81526004016200005d906200064e565b6200024a8363095ea7b360e01b848460405160240162000211929190620004ea565b60408051808303601f190181529190526020810180516001600160e01b0319939093166001600160e01b03938416179052906200024f16565b505050565b6060620002ab826040518060400160405280602081526020017f5361666545524332303a206c6f772d6c6576656c2063616c6c206661696c6564815250856001600160a01b0316620002eb60201b6200075d179092919060201c565b8051909150156200024a5780806020019051810190620002cc919062000439565b6200024a5760405162461bcd60e51b81526004016200005d9062000604565b6060620002fc848460008562000306565b90505b9392505050565b6060824710156200032b5760405162461bcd60e51b81526004016200005d9062000538565b6200033685620003d6565b620003555760405162461bcd60e51b81526004016200005d90620005cd565b60006060866001600160a01b03168587604051620003749190620004b2565b60006040518083038185875af1925050503d8060008114620003b3576040519150601f19603f3d011682016040523d82523d6000602084013e620003b8565b606091505b509092509050620003cb828286620003dc565b979650505050505050565b3b151590565b60608315620003ed575081620002ff565b825115620003fe5782518084602001fd5b8160405162461bcd60e51b81526004016200005d919062000503565b6000602082840312156200042c578081fd5b8151620002ff81620006de565b6000602082840312156200044b578081fd5b81518015158114620002ff578182fd5b600080604083850312156200046e578081fd5b82516200047b81620006de565b60208401519092506200048e81620006de565b809150509250929050565b600060208284031215620004ab578081fd5b5051919050565b60008251620004c6818460208701620006ab565b9190910192915050565b6001600160a01b0392831681529116602082015260400190565b6001600160a01b03929092168252602082015260400190565b600060208252825180602084015262000524816040850160208701620006ab565b601f01601f19169190910160400192915050565b60208082526026908201527f416464726573733a20696e73756666696369656e742062616c616e636520666f6040820152651c8818d85b1b60d21b606082015260800190565b6020808252602f908201527f59617869735661756c74416461707465723a2061646d696e206164647265737360408201526e1031b0b73737ba10313290183c181760891b606082015260800190565b6020808252601d908201527f416464726573733a2063616c6c20746f206e6f6e2d636f6e7472616374000000604082015260600190565b6020808252602a908201527f5361666545524332303a204552433230206f7065726174696f6e20646964206e6040820152691bdd081cdd58d8d9595960b21b606082015260800190565b60208082526036908201527f5361666545524332303a20617070726f76652066726f6d206e6f6e2d7a65726f60408201527f20746f206e6f6e2d7a65726f20616c6c6f77616e636500000000000000000000606082015260800190565b60005b83811015620006c8578181015183820152602001620006ae565b83811115620006d8576000848401525b50505050565b6001600160a01b0381168114620006f457600080fd5b50565b60805160601c60a05160601c60c05160601c610fd8620007506000398061037f52806105b15250806102e1528061056952508061011f52806101b15280610422528061058d5280610789528061083f5250610fd86000f3fe608060405234801561001057600080fd5b50600436106100725760003560e01c8063f851a44011610050578063f851a440146100bd578063fbfa77cf146100d2578063fc0c546a146100da57610072565b8063b6b55f2514610077578063d4c3eea01461008c578063f3fef3a3146100aa575b600080fd5b61008a610085366004610c24565b6100e2565b005b6100946101aa565b6040516100a19190610f48565b60405180910390f35b61008a6100b8366004610bd9565b6102df565b6100c5610567565b6040516100a19190610c70565b6100c561058b565b6100c56105af565b6040517fb6b55f2500000000000000000000000000000000000000000000000000000000815273ffffffffffffffffffffffffffffffffffffffff7f0000000000000000000000000000000000000000000000000000000000000000169063b6b55f2590610154908490600401610f48565b602060405180830381600087803b15801561016e57600080fd5b505af1158015610182573d6000803e3d6000fd5b505050506040513d601f19601f820116820180604052508101906101a69190610c3c565b5050565b60006102da7f000000000000000000000000000000000000000000000000000000000000000073ffffffffffffffffffffffffffffffffffffffff16633c1aa9256040518163ffffffff1660e01b815260040160206040518083038186803b15801561021557600080fd5b505afa158015610229573d6000803e3d6000fd5b505050506040513d601f19601f8201168201806040525081019061024d9190610bbd565b73ffffffffffffffffffffffffffffffffffffffff166370a08231306040518263ffffffff1660e01b81526004016102859190610c70565b60206040518083038186803b15801561029d57600080fd5b505afa1580156102b1573d6000803e3d6000fd5b505050506040513d601f19601f820116820180604052508101906102d59190610c3c565b610776565b905090565b7f000000000000000000000000000000000000000000000000000000000000000073ffffffffffffffffffffffffffffffffffffffff163314610357576040517f08c379a000000000000000000000000000000000000000000000000000000000815260040161034e90610d2f565b60405180910390fd5b6040517f70a082310000000000000000000000000000000000000000000000000000000081527f00000000000000000000000000000000000000000000000000000000000000009060009073ffffffffffffffffffffffffffffffffffffffff8316906370a08231906103ce903090600401610c70565b60206040518083038186803b1580156103e657600080fd5b505afa1580156103fa573d6000803e3d6000fd5b505050506040513d601f19601f8201168201806040525081019061041e9190610c3c565b90507f000000000000000000000000000000000000000000000000000000000000000073ffffffffffffffffffffffffffffffffffffffff16632e1a7d4d61046585610838565b6040518263ffffffff1660e01b81526004016104819190610f48565b600060405180830381600087803b15801561049b57600080fd5b505af11580156104af573d6000803e3d6000fd5b5050505061056184828473ffffffffffffffffffffffffffffffffffffffff166370a08231306040518263ffffffff1660e01b81526004016104f19190610c70565b60206040518083038186803b15801561050957600080fd5b505afa15801561051d573d6000803e3d6000fd5b505050506040513d601f19601f820116820180604052508101906105419190610c3c565b73ffffffffffffffffffffffffffffffffffffffff8616929190036108ed565b50505050565b7f000000000000000000000000000000000000000000000000000000000000000081565b7f000000000000000000000000000000000000000000000000000000000000000081565b7f000000000000000000000000000000000000000000000000000000000000000081565b80158061068157506040517fdd62ed3e00000000000000000000000000000000000000000000000000000000815273ffffffffffffffffffffffffffffffffffffffff84169063dd62ed3e9061062f9030908690600401610c91565b60206040518083038186803b15801561064757600080fd5b505afa15801561065b573d6000803e3d6000fd5b505050506040513d601f19601f8201168201806040525081019061067f9190610c3c565b155b6106b7576040517f08c379a000000000000000000000000000000000000000000000000000000000815260040161034e90610eeb565b6107588363095ea7b360e01b84846040516024016106d6929190610cb8565b604080517fffffffffffffffffffffffffffffffffffffffffffffffffffffffffffffffe08184030181529190526020810180517bffffffffffffffffffffffffffffffffffffffffffffffffffffffff167fffffffff000000000000000000000000000000000000000000000000000000009093169290921790915261090c565b505050565b606061076c84846000856109c2565b90505b9392505050565b6000610832670de0b6b3a764000061082c7f000000000000000000000000000000000000000000000000000000000000000073ffffffffffffffffffffffffffffffffffffffff166377c7b8fc6040518163ffffffff1660e01b815260040160206040518083038186803b1580156107ed57600080fd5b505afa158015610801573d6000803e3d6000fd5b505050506040513d601f19601f820116820180604052508101906108259190610c3c565b8590610ac4565b90610b18565b92915050565b60006108327f000000000000000000000000000000000000000000000000000000000000000073ffffffffffffffffffffffffffffffffffffffff166377c7b8fc6040518163ffffffff1660e01b815260040160206040518083038186803b1580156108a357600080fd5b505afa1580156108b7573d6000803e3d6000fd5b505050506040513d601f19601f820116820180604052508101906108db9190610c3c565b61082c84670de0b6b3a7640000610ac4565b6107588363a9059cbb60e01b84846040516024016106d6929190610cb8565b606061096e826040518060400160405280602081526020017f5361666545524332303a206c6f772d6c6576656c2063616c6c206661696c65648152508573ffffffffffffffffffffffffffffffffffffffff1661075d9092919063ffffffff16565b805190915015610758578080602001905181019061098c9190610c04565b610758576040517f08c379a000000000000000000000000000000000000000000000000000000000815260040161034e90610e8e565b6060824710156109fe576040517f08c379a000000000000000000000000000000000000000000000000000000000815260040161034e90610d66565b610a0785610b64565b610a3d576040517f08c379a000000000000000000000000000000000000000000000000000000000815260040161034e90610e57565b600060608673ffffffffffffffffffffffffffffffffffffffff168587604051610a679190610c54565b60006040518083038185875af1925050503d8060008114610aa4576040519150601f19603f3d011682016040523d82523d6000602084013e610aa9565b606091505b5091509150610ab9828286610b6a565b979650505050505050565b600082610ad357506000610832565b82820282848281610ae057fe5b041461076f576040517f08c379a000000000000000000000000000000000000000000000000000000000815260040161034e90610dfa565b6000808211610b53576040517f08c379a000000000000000000000000000000000000000000000000000000000815260040161034e90610dc3565b818381610b5c57fe5b049392505050565b3b151590565b60608315610b7957508161076f565b825115610b895782518084602001fd5b816040517f08c379a000000000000000000000000000000000000000000000000000000000815260040161034e9190610cde565b600060208284031215610bce578081fd5b815161076f81610f7d565b60008060408385031215610beb578081fd5b8235610bf681610f7d565b946020939093013593505050565b600060208284031215610c15578081fd5b8151801515811461076f578182fd5b600060208284031215610c35578081fd5b5035919050565b600060208284031215610c4d578081fd5b5051919050565b60008251610c66818460208701610f51565b9190910192915050565b73ffffffffffffffffffffffffffffffffffffffff91909116815260200190565b73ffffffffffffffffffffffffffffffffffffffff92831681529116602082015260400190565b73ffffffffffffffffffffffffffffffffffffffff929092168252602082015260400190565b6000602082528251806020840152610cfd816040850160208701610f51565b601f017fffffffffffffffffffffffffffffffffffffffffffffffffffffffffffffffe0169190910160400192915050565b6020808252601d908201527f59617869735661756c74416461707465723a206f6e6c792061646d696e000000604082015260600190565b60208082526026908201527f416464726573733a20696e73756666696369656e742062616c616e636520666f60408201527f722063616c6c0000000000000000000000000000000000000000000000000000606082015260800190565b6020808252601a908201527f536166654d6174683a206469766973696f6e206279207a65726f000000000000604082015260600190565b60208082526021908201527f536166654d6174683a206d756c7469706c69636174696f6e206f766572666c6f60408201527f7700000000000000000000000000000000000000000000000000000000000000606082015260800190565b6020808252601d908201527f416464726573733a2063616c6c20746f206e6f6e2d636f6e7472616374000000604082015260600190565b6020808252602a908201527f5361666545524332303a204552433230206f7065726174696f6e20646964206e60408201527f6f74207375636365656400000000000000000000000000000000000000000000606082015260800190565b60208082526036908201527f5361666545524332303a20617070726f76652066726f6d206e6f6e2d7a65726f60408201527f20746f206e6f6e2d7a65726f20616c6c6f77616e636500000000000000000000606082015260800190565b90815260200190565b60005b83811015610f6c578181015183820152602001610f54565b838111156105615750506000910152565b73ffffffffffffffffffffffffffffffffffffffff81168114610f9f57600080fd5b5056fea26469706673582212202c1c73ee6ac4d2609db4a8264a0d1e5a74179aab1225c99f8783f80c30ad813e64736f6c634300060c0033",
  "devdoc": {
    "details": "A vault adapter implementation which wraps a yAxis vault.",
    "kind": "dev",
    "methods": {
      "deposit(uint256)": {
        "details": "Deposits tokens into the vault.",
        "params": {
          "_amount": "the amount of tokens to deposit into the vault."
        }
      },
      "totalValue()": {
        "details": "Gets the total value of the assets that the adapter holds in the vault.",
        "returns": {
          "_0": "the total assets."
        }
      },
      "withdraw(address,uint256)": {
        "details": "Withdraws tokens from the vault to the recipient. This function reverts if the caller is not the admin.",
        "params": {
          "_amount": "the amount of tokens to withdraw.",
          "_recipient": "the account to withdraw the tokes to."
        }
      }
    },
    "stateVariables": {
      "admin": {
        "details": "The address which has admin control over this contract."
      },
      "token": {
        "details": "The token that the vault accepts"
      },
      "vault": {
        "details": "The vault that the adapter is wrapping."
      }
    },
    "title": "YaxisVaultAdapter",
    "version": 1
  },
  "userdoc": {
    "kind": "user",
    "methods": {},
    "version": 1
  },
  "storageLayout": {
    "storage": [],
    "types": null
  }
}