{
  "address": "0xb369D1E673C195C7D8A1C92597095BEF6bF6982f",
  "abi": [
    {
      "inputs": [
        {
          "internalType": "contract ERC20",
          "name": "_token",
          "type": "address"
        }
      ],
      "stateMutability": "nonpayable",
      "type": "constructor"
    },
    {
      "anonymous": false,
      "inputs": [
        {
          "indexed": true,
          "internalType": "address",
          "name": "owner",
          "type": "address"
        },
        {
          "indexed": true,
          "internalType": "address",
          "name": "spender",
          "type": "address"
        },
        {
          "indexed": false,
          "internalType": "uint256",
          "name": "value",
          "type": "uint256"
        }
      ],
      "name": "Approval",
      "type": "event"
    },
    {
      "anonymous": false,
      "inputs": [
        {
          "indexed": true,
          "internalType": "address",
          "name": "from",
          "type": "address"
        },
        {
          "indexed": true,
          "internalType": "address",
          "name": "to",
          "type": "address"
        },
        {
          "indexed": false,
          "internalType": "uint256",
          "name": "value",
          "type": "uint256"
        }
      ],
      "name": "Transfer",
      "type": "event"
    },
    {
      "inputs": [
        {
          "internalType": "address",
          "name": "owner",
          "type": "address"
        },
        {
          "internalType": "address",
          "name": "spender",
          "type": "address"
        }
      ],
      "name": "allowance",
      "outputs": [
        {
          "internalType": "uint256",
          "name": "",
          "type": "uint256"
        }
      ],
      "stateMutability": "view",
      "type": "function"
    },
    {
      "inputs": [
        {
          "internalType": "address",
          "name": "spender",
          "type": "address"
        },
        {
          "internalType": "uint256",
          "name": "amount",
          "type": "uint256"
        }
      ],
      "name": "approve",
      "outputs": [
        {
          "internalType": "bool",
          "name": "",
          "type": "bool"
        }
      ],
      "stateMutability": "nonpayable",
      "type": "function"
    },
    {
      "inputs": [
        {
          "internalType": "address",
          "name": "account",
          "type": "address"
        }
      ],
      "name": "balanceOf",
      "outputs": [
        {
          "internalType": "uint256",
          "name": "",
          "type": "uint256"
        }
      ],
      "stateMutability": "view",
      "type": "function"
    },
    {
      "inputs": [],
      "name": "decimals",
      "outputs": [
        {
          "internalType": "uint8",
          "name": "",
          "type": "uint8"
        }
      ],
      "stateMutability": "view",
      "type": "function"
    },
    {
      "inputs": [
        {
          "internalType": "address",
          "name": "spender",
          "type": "address"
        },
        {
          "internalType": "uint256",
          "name": "subtractedValue",
          "type": "uint256"
        }
      ],
      "name": "decreaseAllowance",
      "outputs": [
        {
          "internalType": "bool",
          "name": "",
          "type": "bool"
        }
      ],
      "stateMutability": "nonpayable",
      "type": "function"
    },
    {
      "inputs": [
        {
          "internalType": "uint256",
          "name": "_amount",
          "type": "uint256"
        }
      ],
      "name": "deposit",
      "outputs": [
        {
          "internalType": "uint256",
          "name": "",
          "type": "uint256"
        }
      ],
      "stateMutability": "nonpayable",
      "type": "function"
    },
    {
      "inputs": [],
      "name": "gauge",
      "outputs": [
        {
          "internalType": "address",
          "name": "",
          "type": "address"
        }
      ],
      "stateMutability": "view",
      "type": "function"
    },
    {
      "inputs": [],
      "name": "getLPToken",
      "outputs": [
        {
          "internalType": "address",
          "name": "",
          "type": "address"
        }
      ],
      "stateMutability": "view",
      "type": "function"
    },
    {
      "inputs": [],
      "name": "getPricePerFullShare",
      "outputs": [
        {
          "internalType": "uint256",
          "name": "",
          "type": "uint256"
        }
      ],
      "stateMutability": "view",
      "type": "function"
    },
    {
      "inputs": [],
      "name": "getToken",
      "outputs": [
        {
          "internalType": "address",
          "name": "",
          "type": "address"
        }
      ],
      "stateMutability": "view",
      "type": "function"
    },
    {
      "inputs": [
        {
          "internalType": "address",
          "name": "spender",
          "type": "address"
        },
        {
          "internalType": "uint256",
          "name": "addedValue",
          "type": "uint256"
        }
      ],
      "name": "increaseAllowance",
      "outputs": [
        {
          "internalType": "bool",
          "name": "",
          "type": "bool"
        }
      ],
      "stateMutability": "nonpayable",
      "type": "function"
    },
    {
      "inputs": [],
      "name": "name",
      "outputs": [
        {
          "internalType": "string",
          "name": "",
          "type": "string"
        }
      ],
      "stateMutability": "view",
      "type": "function"
    },
    {
      "inputs": [
        {
          "internalType": "address",
          "name": "_gauge",
          "type": "address"
        }
      ],
      "name": "setGauge",
      "outputs": [],
      "stateMutability": "nonpayable",
      "type": "function"
    },
    {
      "inputs": [],
      "name": "symbol",
      "outputs": [
        {
          "internalType": "string",
          "name": "",
          "type": "string"
        }
      ],
      "stateMutability": "view",
      "type": "function"
    },
    {
      "inputs": [],
      "name": "token",
      "outputs": [
        {
          "internalType": "contract ERC20",
          "name": "",
          "type": "address"
        }
      ],
      "stateMutability": "view",
      "type": "function"
    },
    {
      "inputs": [],
      "name": "totalSupply",
      "outputs": [
        {
          "internalType": "uint256",
          "name": "",
          "type": "uint256"
        }
      ],
      "stateMutability": "view",
      "type": "function"
    },
    {
      "inputs": [
        {
          "internalType": "address",
          "name": "recipient",
          "type": "address"
        },
        {
          "internalType": "uint256",
          "name": "amount",
          "type": "uint256"
        }
      ],
      "name": "transfer",
      "outputs": [
        {
          "internalType": "bool",
          "name": "",
          "type": "bool"
        }
      ],
      "stateMutability": "nonpayable",
      "type": "function"
    },
    {
      "inputs": [
        {
          "internalType": "address",
          "name": "sender",
          "type": "address"
        },
        {
          "internalType": "address",
          "name": "recipient",
          "type": "address"
        },
        {
          "internalType": "uint256",
          "name": "amount",
          "type": "uint256"
        }
      ],
      "name": "transferFrom",
      "outputs": [
        {
          "internalType": "bool",
          "name": "",
          "type": "bool"
        }
      ],
      "stateMutability": "nonpayable",
      "type": "function"
    },
    {
      "inputs": [
        {
          "internalType": "uint256",
          "name": "_shares",
          "type": "uint256"
        }
      ],
      "name": "withdraw",
      "outputs": [],
      "stateMutability": "nonpayable",
      "type": "function"
    }
  ],
  "transactionHash": "0x1ab4568b81b4465ad6c213f37ebc989c88597973c5c2e8989b5b307690019e4e",
  "args": [
    "0xA24A13f1DeD8e8DDd30472Fc8Ebb3b6Fee5987b9"
  ],
  "solcInputHash": "ad5962d48d3484563b6cbe9716683aff",
  "bytecode": "0x60806040523480156200001157600080fd5b50604051620017e6380380620017e683398101604081905262000034916200016f565b604080518082018252600a815269794561726e204d6f636b60b01b602080830191825283518085019094526005845264794d4f434b60d81b9084015281519192916200008391600391620000d3565b50805162000099906004906020840190620000d3565b5050600580546001600160a01b0390931661010002610100600160a81b031960ff199094166012179390931692909217909155506200019f565b828054600181600116156101000203166002900490600052602060002090601f016020900481019282601f106200011657805160ff191683800117855562000146565b8280016001018555821562000146579182015b828111156200014657825182559160200191906001019062000129565b506200015492915062000158565b5090565b5b8082111562000154576000815560010162000159565b60006020828403121562000181578081fd5b81516001600160a01b038116811462000198578182fd5b9392505050565b61163780620001af6000396000f3fe608060405234801561001057600080fd5b50600436106101515760003560e01c806355a68ed3116100cd578063a6f19c8411610081578063b6b55f2511610066578063b6b55f251461027a578063dd62ed3e1461028d578063fc0c546a146102a057610151565b8063a6f19c841461025f578063a9059cbb1461026757610151565b806377c7b8fc116100b257806377c7b8fc1461023c57806395d89b4114610244578063a457c2d71461024c57610151565b806355a68ed31461021657806370a082311461022957610151565b806323b872dd11610124578063313ce56711610109578063313ce567146101e657806339509351146101fb5780633c1aa9251461020e57610151565b806323b872dd146101be5780632e1a7d4d146101d157610151565b806306fdde0314610156578063095ea7b31461017457806318160ddd1461019457806321df0da7146101a9575b600080fd5b61015e6102a8565b60405161016b919061114f565b60405180910390f35b61018761018236600461104e565b61035c565b60405161016b9190611144565b61019c61037a565b60405161016b9190611507565b6101b1610380565b60405161016b91906110cc565b6101876101cc36600461100e565b6103a1565b6101e46101df366004611098565b610443565b005b6101ee610479565b60405161016b9190611510565b61018761020936600461104e565b610482565b6101b16104dd565b6101e4610224366004610fbf565b6104e1565b61019c610237366004610fbf565b610528565b61019c610554565b61015e610560565b61018761025a36600461104e565b6105df565b6101b1610654565b61018761027536600461104e565b610670565b61019c610288366004611098565b610684565b61019c61029b366004610fda565b6106bb565b6101b16106f3565b60038054604080516020601f60027fffffffffffffffffffffffffffffffffffffffffffffffffffffffffffffffff6101006001881615020190951694909404938401819004810282018101909252828152606093909290918301828280156103525780601f1061032757610100808354040283529160200191610352565b820191906000526020600020905b81548152906001019060200180831161033557829003601f168201915b5050505050905090565b6000610370610369610714565b8484610718565b5060015b92915050565b60025490565b600554610100900473ffffffffffffffffffffffffffffffffffffffff1690565b60006103ae848484610830565b610438846103ba610714565b610433856040518060600160405280602881526020016115b56028913973ffffffffffffffffffffffffffffffffffffffff8a16600090815260016020526040812090610405610714565b73ffffffffffffffffffffffffffffffffffffffff16815260208101919091526040016000205491906109ba565b610718565b5060015b9392505050565b61044d3382610a00565b60055461047690610100900473ffffffffffffffffffffffffffffffffffffffff163383610b30565b50565b60055460ff1690565b600061037061048f610714565b8461043385600160006104a0610714565b73ffffffffffffffffffffffffffffffffffffffff908116825260208083019390935260409182016000908120918c168152925290205490610bd6565b3090565b600680547fffffffffffffffffffffffff00000000000000000000000000000000000000001673ffffffffffffffffffffffffffffffffffffffff92909216919091179055565b73ffffffffffffffffffffffffffffffffffffffff81166000908152602081905260409020545b919050565b670de0b6b3a764000090565b60048054604080516020601f60027fffffffffffffffffffffffffffffffffffffffffffffffffffffffffffffffff6101006001881615020190951694909404938401819004810282018101909252828152606093909290918301828280156103525780601f1061032757610100808354040283529160200191610352565b60006103706105ec610714565b84610433856040518060600160405280602581526020016115dd6025913960016000610616610714565b73ffffffffffffffffffffffffffffffffffffffff908116825260208083019390935260409182016000908120918d168152925290205491906109ba565b60065473ffffffffffffffffffffffffffffffffffffffff1681565b600061037061067d610714565b8484610830565b6005546000906106b190610100900473ffffffffffffffffffffffffffffffffffffffff16333085610c15565b61054f3383610c3c565b73ffffffffffffffffffffffffffffffffffffffff918216600090815260016020908152604080832093909416825291909152205490565b600554610100900473ffffffffffffffffffffffffffffffffffffffff1681565b3390565b73ffffffffffffffffffffffffffffffffffffffff831661076e576040517f08c379a0000000000000000000000000000000000000000000000000000000008152600401610765906113df565b60405180910390fd5b73ffffffffffffffffffffffffffffffffffffffff82166107bb576040517f08c379a0000000000000000000000000000000000000000000000000000000008152600401610765906111fd565b73ffffffffffffffffffffffffffffffffffffffff80841660008181526001602090815260408083209487168084529490915290819020849055517f8c5be1e5ebec7d5bd14f71427d1e84f3dd0314c0f7b2291e5b200ac8c7c3b92590610823908590611507565b60405180910390a3505050565b73ffffffffffffffffffffffffffffffffffffffff831661087d576040517f08c379a000000000000000000000000000000000000000000000000000000000815260040161076590611382565b73ffffffffffffffffffffffffffffffffffffffff82166108ca576040517f08c379a0000000000000000000000000000000000000000000000000000000008152600401610765906111a0565b6108d5838383610bd1565b61091f8160405180606001604052806026815260200161158f6026913973ffffffffffffffffffffffffffffffffffffffff861660009081526020819052604090205491906109ba565b73ffffffffffffffffffffffffffffffffffffffff808516600090815260208190526040808220939093559084168152205461095b9082610bd6565b73ffffffffffffffffffffffffffffffffffffffff80841660008181526020819052604090819020939093559151908516907fddf252ad1be2c89b69c2b068fc378daa952ba7f163c4a11628f55a4df523b3ef90610823908590611507565b600081848411156109f8576040517f08c379a0000000000000000000000000000000000000000000000000000000008152600401610765919061114f565b505050900390565b73ffffffffffffffffffffffffffffffffffffffff8216610a4d576040517f08c379a000000000000000000000000000000000000000000000000000000000815260040161076590611325565b610a5982600083610bd1565b610aa38160405180606001604052806022815260200161156d6022913973ffffffffffffffffffffffffffffffffffffffff851660009081526020819052604090205491906109ba565b73ffffffffffffffffffffffffffffffffffffffff8316600090815260208190526040902055600254610ad69082610d31565b60025560405160009073ffffffffffffffffffffffffffffffffffffffff8416907fddf252ad1be2c89b69c2b068fc378daa952ba7f163c4a11628f55a4df523b3ef90610b24908590611507565b60405180910390a35050565b610bd18363a9059cbb60e01b8484604051602401610b4f92919061111e565b604080517fffffffffffffffffffffffffffffffffffffffffffffffffffffffffffffffe08184030181529190526020810180517bffffffffffffffffffffffffffffffffffffffffffffffffffffffff167fffffffff0000000000000000000000000000000000000000000000000000000090931692909217909152610d73565b505050565b60008282018381101561043c576040517f08c379a00000000000000000000000000000000000000000000000000000000081526004016107659061125a565b610c36846323b872dd60e01b858585604051602401610b4f939291906110ed565b50505050565b73ffffffffffffffffffffffffffffffffffffffff8216610c89576040517f08c379a0000000000000000000000000000000000000000000000000000000008152600401610765906114d0565b610c9560008383610bd1565b600254610ca29082610bd6565b60025573ffffffffffffffffffffffffffffffffffffffff8216600090815260208190526040902054610cd59082610bd6565b73ffffffffffffffffffffffffffffffffffffffff83166000818152602081905260408082209390935591519091907fddf252ad1be2c89b69c2b068fc378daa952ba7f163c4a11628f55a4df523b3ef90610b24908590611507565b600082821115610d6d576040517f08c379a000000000000000000000000000000000000000000000000000000000815260040161076590611291565b50900390565b6060610dd5826040518060400160405280602081526020017f5361666545524332303a206c6f772d6c6576656c2063616c6c206661696c65648152508573ffffffffffffffffffffffffffffffffffffffff16610e299092919063ffffffff16565b805190915015610bd15780806020019051810190610df39190611078565b610bd1576040517f08c379a000000000000000000000000000000000000000000000000000000000815260040161076590611473565b6060610e388484600085610e40565b949350505050565b606082471015610e7c576040517f08c379a0000000000000000000000000000000000000000000000000000000008152600401610765906112c8565b610e8585610f42565b610ebb576040517f08c379a00000000000000000000000000000000000000000000000000000000081526004016107659061143c565b600060608673ffffffffffffffffffffffffffffffffffffffff168587604051610ee591906110b0565b60006040518083038185875af1925050503d8060008114610f22576040519150601f19603f3d011682016040523d82523d6000602084013e610f27565b606091505b5091509150610f37828286610f48565b979650505050505050565b3b151590565b60608315610f5757508161043c565b825115610f675782518084602001fd5b816040517f08c379a0000000000000000000000000000000000000000000000000000000008152600401610765919061114f565b803573ffffffffffffffffffffffffffffffffffffffff8116811461037457600080fd5b600060208284031215610fd0578081fd5b61043c8383610f9b565b60008060408385031215610fec578081fd5b610ff68484610f9b565b91506110058460208501610f9b565b90509250929050565b600080600060608486031215611022578081fd5b833561102d8161154a565b9250602084013561103d8161154a565b929592945050506040919091013590565b60008060408385031215611060578182fd5b61106a8484610f9b565b946020939093013593505050565b600060208284031215611089578081fd5b8151801515811461043c578182fd5b6000602082840312156110a9578081fd5b5035919050565b600082516110c281846020870161151e565b9190910192915050565b73ffffffffffffffffffffffffffffffffffffffff91909116815260200190565b73ffffffffffffffffffffffffffffffffffffffff9384168152919092166020820152604081019190915260600190565b73ffffffffffffffffffffffffffffffffffffffff929092168252602082015260400190565b901515815260200190565b600060208252825180602084015261116e81604085016020870161151e565b601f017fffffffffffffffffffffffffffffffffffffffffffffffffffffffffffffffe0169190910160400192915050565b60208082526023908201527f45524332303a207472616e7366657220746f20746865207a65726f206164647260408201527f6573730000000000000000000000000000000000000000000000000000000000606082015260800190565b60208082526022908201527f45524332303a20617070726f766520746f20746865207a65726f20616464726560408201527f7373000000000000000000000000000000000000000000000000000000000000606082015260800190565b6020808252601b908201527f536166654d6174683a206164646974696f6e206f766572666c6f770000000000604082015260600190565b6020808252601e908201527f536166654d6174683a207375627472616374696f6e206f766572666c6f770000604082015260600190565b60208082526026908201527f416464726573733a20696e73756666696369656e742062616c616e636520666f60408201527f722063616c6c0000000000000000000000000000000000000000000000000000606082015260800190565b60208082526021908201527f45524332303a206275726e2066726f6d20746865207a65726f2061646472657360408201527f7300000000000000000000000000000000000000000000000000000000000000606082015260800190565b60208082526025908201527f45524332303a207472616e736665722066726f6d20746865207a65726f20616460408201527f6472657373000000000000000000000000000000000000000000000000000000606082015260800190565b60208082526024908201527f45524332303a20617070726f76652066726f6d20746865207a65726f2061646460408201527f7265737300000000000000000000000000000000000000000000000000000000606082015260800190565b6020808252601d908201527f416464726573733a2063616c6c20746f206e6f6e2d636f6e7472616374000000604082015260600190565b6020808252602a908201527f5361666545524332303a204552433230206f7065726174696f6e20646964206e60408201527f6f74207375636365656400000000000000000000000000000000000000000000606082015260800190565b6020808252601f908201527f45524332303a206d696e7420746f20746865207a65726f206164647265737300604082015260600190565b90815260200190565b60ff91909116815260200190565b60005b83811015611539578181015183820152602001611521565b83811115610c365750506000910152565b73ffffffffffffffffffffffffffffffffffffffff8116811461047657600080fdfe45524332303a206275726e20616d6f756e7420657863656564732062616c616e636545524332303a207472616e7366657220616d6f756e7420657863656564732062616c616e636545524332303a207472616e7366657220616d6f756e74206578636565647320616c6c6f77616e636545524332303a2064656372656173656420616c6c6f77616e63652062656c6f77207a65726fa2646970667358221220d2fdb8c85a2dd14697c3fca3f4a75753e3bbbcbf0545697c994fc6f6ee40001c64736f6c634300060c0033",
  "devdoc": {
    "kind": "dev",
    "methods": {
      "allowance(address,address)": {
        "details": "See {IERC20-allowance}."
      },
      "approve(address,uint256)": {
        "details": "See {IERC20-approve}. Requirements: - `spender` cannot be the zero address."
      },
      "balanceOf(address)": {
        "details": "See {IERC20-balanceOf}."
      },
      "decimals()": {
        "details": "Returns the number of decimals used to get its user representation. For example, if `decimals` equals `2`, a balance of `505` tokens should be displayed to a user as `5,05` (`505 / 10 ** 2`). Tokens usually opt for a value of 18, imitating the relationship between Ether and Wei. This is the value {ERC20} uses, unless {_setupDecimals} is called. NOTE: This information is only used for _display_ purposes: it in no way affects any of the arithmetic of the contract, including {IERC20-balanceOf} and {IERC20-transfer}."
      },
      "decreaseAllowance(address,uint256)": {
        "details": "Atomically decreases the allowance granted to `spender` by the caller. This is an alternative to {approve} that can be used as a mitigation for problems described in {IERC20-approve}. Emits an {Approval} event indicating the updated allowance. Requirements: - `spender` cannot be the zero address. - `spender` must have allowance for the caller of at least `subtractedValue`."
      },
      "increaseAllowance(address,uint256)": {
        "details": "Atomically increases the allowance granted to `spender` by the caller. This is an alternative to {approve} that can be used as a mitigation for problems described in {IERC20-approve}. Emits an {Approval} event indicating the updated allowance. Requirements: - `spender` cannot be the zero address."
      },
      "name()": {
        "details": "Returns the name of the token."
      },
      "symbol()": {
        "details": "Returns the symbol of the token, usually a shorter version of the name."
      },
      "totalSupply()": {
        "details": "See {IERC20-totalSupply}."
      },
      "transfer(address,uint256)": {
        "details": "See {IERC20-transfer}. Requirements: - `recipient` cannot be the zero address. - the caller must have a balance of at least `amount`."
      },
      "transferFrom(address,address,uint256)": {
        "details": "See {IERC20-transferFrom}. Emits an {Approval} event indicating the updated allowance. This is not required by the EIP. See the note at the beginning of {ERC20}. Requirements: - `sender` and `recipient` cannot be the zero address. - `sender` must have a balance of at least `amount`. - the caller must have allowance for ``sender``'s tokens of at least `amount`."
      }
    },
    "version": 1
  },
  "userdoc": {
    "kind": "user",
    "methods": {},
    "version": 1
  },
  "storageLayout": {
    "storage": [
      {
        "astId": 837,
        "contract": "contracts/mocks/YaxisVaultMock.sol:YaxisVaultMock",
        "label": "_balances",
        "offset": 0,
        "slot": "0",
        "type": "t_mapping(t_address,t_uint256)"
      },
      {
        "astId": 843,
        "contract": "contracts/mocks/YaxisVaultMock.sol:YaxisVaultMock",
        "label": "_allowances",
        "offset": 0,
        "slot": "1",
        "type": "t_mapping(t_address,t_mapping(t_address,t_uint256))"
      },
      {
        "astId": 845,
        "contract": "contracts/mocks/YaxisVaultMock.sol:YaxisVaultMock",
        "label": "_totalSupply",
        "offset": 0,
        "slot": "2",
        "type": "t_uint256"
      },
      {
        "astId": 847,
        "contract": "contracts/mocks/YaxisVaultMock.sol:YaxisVaultMock",
        "label": "_name",
        "offset": 0,
        "slot": "3",
        "type": "t_string_storage"
      },
      {
        "astId": 849,
        "contract": "contracts/mocks/YaxisVaultMock.sol:YaxisVaultMock",
        "label": "_symbol",
        "offset": 0,
        "slot": "4",
        "type": "t_string_storage"
      },
      {
        "astId": 851,
        "contract": "contracts/mocks/YaxisVaultMock.sol:YaxisVaultMock",
        "label": "_decimals",
        "offset": 0,
        "slot": "5",
        "type": "t_uint8"
      },
      {
        "astId": 9890,
        "contract": "contracts/mocks/YaxisVaultMock.sol:YaxisVaultMock",
        "label": "token",
        "offset": 1,
        "slot": "5",
        "type": "t_contract(ERC20)1323"
      },
      {
        "astId": 9892,
        "contract": "contracts/mocks/YaxisVaultMock.sol:YaxisVaultMock",
        "label": "gauge",
        "offset": 0,
        "slot": "6",
        "type": "t_address"
      }
    ],
    "types": {
      "t_address": {
        "encoding": "inplace",
        "label": "address",
        "numberOfBytes": "20"
      },
      "t_contract(ERC20)1323": {
        "encoding": "inplace",
        "label": "contract ERC20",
        "numberOfBytes": "20"
      },
      "t_mapping(t_address,t_mapping(t_address,t_uint256))": {
        "encoding": "mapping",
        "key": "t_address",
        "label": "mapping(address => mapping(address => uint256))",
        "numberOfBytes": "32",
        "value": "t_mapping(t_address,t_uint256)"
      },
      "t_mapping(t_address,t_uint256)": {
        "encoding": "mapping",
        "key": "t_address",
        "label": "mapping(address => uint256)",
        "numberOfBytes": "32",
        "value": "t_uint256"
      },
      "t_string_storage": {
        "encoding": "bytes",
        "label": "string",
        "numberOfBytes": "32"
      },
      "t_uint256": {
        "encoding": "inplace",
        "label": "uint256",
        "numberOfBytes": "32"
      },
      "t_uint8": {
        "encoding": "inplace",
        "label": "uint8",
        "numberOfBytes": "1"
      }
    }
  }
}