{
  "address": "0xf183b1aD5E679440a3CF8239eADA2ab6c1516529",
  "abi": [
    {
      "inputs": [
        {
          "internalType": "contract IVault",
          "name": "_vault",
          "type": "address"
        },
        {
          "internalType": "address",
          "name": "_admin",
          "type": "address"
        },
        {
          "internalType": "address",
          "name": "_rewards",
          "type": "address"
        }
      ],
      "stateMutability": "nonpayable",
      "type": "constructor"
    },
    {
      "inputs": [],
      "name": "admin",
      "outputs": [
        {
          "internalType": "address",
          "name": "",
          "type": "address"
        }
      ],
      "stateMutability": "view",
      "type": "function"
    },
    {
      "inputs": [],
      "name": "claimReward",
      "outputs": [],
      "stateMutability": "nonpayable",
      "type": "function"
    },
    {
      "inputs": [
        {
          "internalType": "uint256",
          "name": "_amount",
          "type": "uint256"
        }
      ],
      "name": "deposit",
      "outputs": [],
      "stateMutability": "nonpayable",
      "type": "function"
    },
    {
      "inputs": [],
      "name": "gauge",
      "outputs": [
        {
          "internalType": "contract IGauge",
          "name": "",
          "type": "address"
        }
      ],
      "stateMutability": "view",
      "type": "function"
    },
    {
      "inputs": [],
      "name": "lpToken",
      "outputs": [
        {
          "internalType": "contract IDetailedERC20",
          "name": "",
          "type": "address"
        }
      ],
      "stateMutability": "view",
      "type": "function"
    },
    {
      "inputs": [],
      "name": "rewards",
      "outputs": [
        {
          "internalType": "address",
          "name": "",
          "type": "address"
        }
      ],
      "stateMutability": "view",
      "type": "function"
    },
    {
      "inputs": [],
      "name": "token",
      "outputs": [
        {
          "internalType": "contract IDetailedERC20",
          "name": "",
          "type": "address"
        }
      ],
      "stateMutability": "view",
      "type": "function"
    },
    {
      "inputs": [],
      "name": "totalValue",
      "outputs": [
        {
          "internalType": "uint256",
          "name": "",
          "type": "uint256"
        }
      ],
      "stateMutability": "view",
      "type": "function"
    },
    {
      "inputs": [],
      "name": "vault",
      "outputs": [
        {
          "internalType": "contract IVault",
          "name": "",
          "type": "address"
        }
      ],
      "stateMutability": "view",
      "type": "function"
    },
    {
      "inputs": [
        {
          "internalType": "address",
          "name": "_recipient",
          "type": "address"
        },
        {
          "internalType": "uint256",
          "name": "_amount",
          "type": "uint256"
        }
      ],
      "name": "withdraw",
      "outputs": [],
      "stateMutability": "nonpayable",
      "type": "function"
    }
  ],
  "transactionHash": "0x6e83032af9f02b8f8474101bfed0abc0bc998fadd0b0163b53cda03c3718177a",
  "args": [
    "0xb369D1E673C195C7D8A1C92597095BEF6bF6982f",
    "0x101Df32d4ec12069B7487940E1E1696d8918b8CE",
    "0xF50760423F04A49244Ba0D1974a0F139deC78E76"
  ],
  "solcInputHash": "ad5962d48d3484563b6cbe9716683aff",
  "bytecode": "0x6101406040523480156200001257600080fd5b5060405162001ed338038062001ed38339810160408190526200003591620005be565b6001600160a01b038216620000675760405162461bcd60e51b81526004016200005e9062000747565b60405180910390fd5b6001600160a01b038116620000905760405162461bcd60e51b81526004016200005e90620006b0565b6001600160601b0319606084811b821660805283811b821660c05282901b1660e052604080516329bc672160e21b815290516000916001600160a01b0386169163a6f19c849160048082019260209290919082900301818787803b158015620000f857600080fd5b505af11580156200010d573d6000803e3d6000fd5b505050506040513d601f19601f820116820180604052508101906200013391906200057d565b90506000846001600160a01b03166321df0da76040518163ffffffff1660e01b815260040160206040518083038186803b1580156200017157600080fd5b505afa15801562000186573d6000803e3d6000fd5b505050506040513d601f19601f82011682018060405250810190620001ac91906200057d565b90506000856001600160a01b0316633c1aa9256040518163ffffffff1660e01b815260040160206040518083038186803b158015620001ea57600080fd5b505afa158015620001ff573d6000803e3d6000fd5b505050506040513d601f19601f820116820180604052508101906200022591906200057d565b606084811b6001600160601b031990811660a05284821b8116610100529082901b16610120529050620002716001600160a01b03831687600019620002a4602090811b62000b6817901c565b6200029883600019836001600160a01b0316620002a460201b62000b68179092919060201c565b505050505050620008c0565b801580620003335750604051636eb1769f60e11b81526001600160a01b0384169063dd62ed3e90620002dd903090869060040162000648565b60206040518083038186803b158015620002f657600080fd5b505afa1580156200030b573d6000803e3d6000fd5b505050506040513d601f19601f8201168201806040525081019062000331919062000611565b155b620003525760405162461bcd60e51b81526004016200005e9062000817565b620003ad8363095ea7b360e01b84846040516024016200037492919062000662565b60408051808303601f190181529190526020810180516001600160e01b0319939093166001600160e01b0393841617905290620003b216565b505050565b60606200040e826040518060400160405280602081526020017f5361666545524332303a206c6f772d6c6576656c2063616c6c206661696c6564815250856001600160a01b03166200044e60201b62000cf2179092919060201c565b805190915015620003ad57808060200190518101906200042f91906200059c565b620003ad5760405162461bcd60e51b81526004016200005e90620007cd565b60606200045f848460008562000469565b90505b9392505050565b6060824710156200048e5760405162461bcd60e51b81526004016200005e9062000701565b620004998562000539565b620004b85760405162461bcd60e51b81526004016200005e9062000796565b60006060866001600160a01b03168587604051620004d791906200062a565b60006040518083038185875af1925050503d806000811462000516576040519150601f19603f3d011682016040523d82523d6000602084013e6200051b565b606091505b5090925090506200052e8282866200053f565b979650505050505050565b3b151590565b606083156200055057508162000462565b825115620005615782518084602001fd5b8160405162461bcd60e51b81526004016200005e91906200067b565b6000602082840312156200058f578081fd5b81516200046281620008a7565b600060208284031215620005ae578081fd5b8151801515811462000462578182fd5b600080600060608486031215620005d3578182fd5b8351620005e081620008a7565b6020850151909350620005f381620008a7565b60408501519092506200060681620008a7565b809150509250925092565b60006020828403121562000623578081fd5b5051919050565b600082516200063e81846020870162000874565b9190910192915050565b6001600160a01b0392831681529116602082015260400190565b6001600160a01b03929092168252602082015260400190565b60006020825282518060208401526200069c81604085016020870162000874565b601f01601f19169190910160400192915050565b60208082526031908201527f59617869735661756c74416461707465723a207265776172647320616464726560408201527039b99031b0b73737ba10313290183c181760791b606082015260800190565b60208082526026908201527f416464726573733a20696e73756666696369656e742062616c616e636520666f6040820152651c8818d85b1b60d21b606082015260800190565b6020808252602f908201527f59617869735661756c74416461707465723a2061646d696e206164647265737360408201526e1031b0b73737ba10313290183c181760891b606082015260800190565b6020808252601d908201527f416464726573733a2063616c6c20746f206e6f6e2d636f6e7472616374000000604082015260600190565b6020808252602a908201527f5361666545524332303a204552433230206f7065726174696f6e20646964206e6040820152691bdd081cdd58d8d9595960b21b606082015260800190565b60208082526036908201527f5361666545524332303a20617070726f76652066726f6d206e6f6e2d7a65726f60408201527f20746f206e6f6e2d7a65726f20616c6c6f77616e636500000000000000000000606082015260800190565b60005b838110156200089157818101518382015260200162000877565b83811115620008a1576000848401525b50505050565b6001600160a01b0381168114620008bd57600080fd5b50565b60805160601c60a05160601c60c05160601c60e05160601c6101005160601c6101205160601c611571620009626000398061015052806102bd5250806108575280610b4652508061017452806105d952806106935250806107b95280610afe525080610198528061028152806103b75280610474528061070652806109435250806101f752806109e55280610b225280610d1e5280610dd452506115716000f3fe608060405234801561001057600080fd5b50600436106100be5760003560e01c8063d4c3eea011610076578063f851a4401161005b578063f851a44014610136578063fbfa77cf1461013e578063fc0c546a14610146576100be565b8063d4c3eea01461010e578063f3fef3a314610123576100be565b8063a6f19c84116100a7578063a6f19c84146100e9578063b6b55f25146100f1578063b88a802f14610106576100be565b80635fcbd285146100c35780639ec5a894146100e1575b600080fd5b6100cb61014e565b6040516100d89190611205565b60405180910390f35b6100cb610172565b6100cb610196565b6101046100ff3660046111b9565b6101ba565b005b6101046103b5565b6101166106ff565b6040516100d89190611273565b61010461013136600461116e565b6107b7565b6100cb610afc565b6100cb610b20565b6100cb610b44565b7f000000000000000000000000000000000000000000000000000000000000000081565b7f000000000000000000000000000000000000000000000000000000000000000081565b7f000000000000000000000000000000000000000000000000000000000000000081565b6040517fb6b55f2500000000000000000000000000000000000000000000000000000000815273ffffffffffffffffffffffffffffffffffffffff7f0000000000000000000000000000000000000000000000000000000000000000169063b6b55f259061022c908490600401611273565b602060405180830381600087803b15801561024657600080fd5b505af115801561025a573d6000803e3d6000fd5b505050506040513d601f19601f8201168201806040525081019061027e91906111d1565b507f000000000000000000000000000000000000000000000000000000000000000073ffffffffffffffffffffffffffffffffffffffff1663b6b55f257f000000000000000000000000000000000000000000000000000000000000000073ffffffffffffffffffffffffffffffffffffffff166370a08231306040518263ffffffff1660e01b81526004016103149190611205565b60206040518083038186803b15801561032c57600080fd5b505afa158015610340573d6000803e3d6000fd5b505050506040513d601f19601f8201168201806040525081019061036491906111d1565b6040518263ffffffff1660e01b81526004016103809190611273565b600060405180830381600087803b15801561039a57600080fd5b505af11580156103ae573d6000803e3d6000fd5b5050505050565b7f000000000000000000000000000000000000000000000000000000000000000073ffffffffffffffffffffffffffffffffffffffff1663e6f1daf26040518163ffffffff1660e01b8152600401600060405180830381600087803b15801561041d57600080fd5b505af1158015610431573d6000803e3d6000fd5b50506040517f54c49fe90000000000000000000000000000000000000000000000000000000081526000925073ffffffffffffffffffffffffffffffffffffffff7f00000000000000000000000000000000000000000000000000000000000000001691506354c49fe9906104aa908490600401611273565b60206040518083038186803b1580156104c257600080fd5b505afa1580156104d6573d6000803e3d6000fd5b505050506040513d601f19601f820116820180604052508101906104fa9190611152565b905060008173ffffffffffffffffffffffffffffffffffffffff166370a08231306040518263ffffffff1660e01b81526004016105379190611205565b60206040518083038186803b15801561054f57600080fd5b505afa158015610563573d6000803e3d6000fd5b505050506040513d601f19601f8201168201806040525081019061058791906111d1565b905080156106fb576040517fa9059cbb00000000000000000000000000000000000000000000000000000000815273ffffffffffffffffffffffffffffffffffffffff83169063a9059cbb90610603907f000000000000000000000000000000000000000000000000000000000000000090859060040161124d565b602060405180830381600087803b15801561061d57600080fd5b505af1158015610631573d6000803e3d6000fd5b505050506040513d601f19601f820116820180604052508101906106559190611199565b506040517f3c6b16ab00000000000000000000000000000000000000000000000000000000815273ffffffffffffffffffffffffffffffffffffffff7f00000000000000000000000000000000000000000000000000000000000000001690633c6b16ab906106c8908490600401611273565b600060405180830381600087803b1580156106e257600080fd5b505af11580156106f6573d6000803e3d6000fd5b505050505b5050565b60006107b27f000000000000000000000000000000000000000000000000000000000000000073ffffffffffffffffffffffffffffffffffffffff166370a08231306040518263ffffffff1660e01b815260040161075d9190611205565b60206040518083038186803b15801561077557600080fd5b505afa158015610789573d6000803e3d6000fd5b505050506040513d601f19601f820116820180604052508101906107ad91906111d1565b610d0b565b905090565b7f000000000000000000000000000000000000000000000000000000000000000073ffffffffffffffffffffffffffffffffffffffff16331461082f576040517f08c379a0000000000000000000000000000000000000000000000000000000008152600401610826906112cd565b60405180910390fd5b6040517f70a082310000000000000000000000000000000000000000000000000000000081527f00000000000000000000000000000000000000000000000000000000000000009060009073ffffffffffffffffffffffffffffffffffffffff8316906370a08231906108a6903090600401611205565b60206040518083038186803b1580156108be57600080fd5b505afa1580156108d2573d6000803e3d6000fd5b505050506040513d601f19601f820116820180604052508101906108f691906111d1565b9050600061090384610dcd565b6040517f2e1a7d4d00000000000000000000000000000000000000000000000000000000815290915073ffffffffffffffffffffffffffffffffffffffff7f00000000000000000000000000000000000000000000000000000000000000001690632e1a7d4d90610978908490600401611273565b600060405180830381600087803b15801561099257600080fd5b505af11580156109a6573d6000803e3d6000fd5b50506040517f2e1a7d4d00000000000000000000000000000000000000000000000000000000815273ffffffffffffffffffffffffffffffffffffffff7f0000000000000000000000000000000000000000000000000000000000000000169250632e1a7d4d9150610a1c908490600401611273565b600060405180830381600087803b158015610a3657600080fd5b505af1158015610a4a573d6000803e3d6000fd5b505050506103ae85838573ffffffffffffffffffffffffffffffffffffffff166370a08231306040518263ffffffff1660e01b8152600401610a8c9190611205565b60206040518083038186803b158015610aa457600080fd5b505afa158015610ab8573d6000803e3d6000fd5b505050506040513d601f19601f82011682018060405250810190610adc91906111d1565b73ffffffffffffffffffffffffffffffffffffffff871692919003610e82565b7f000000000000000000000000000000000000000000000000000000000000000081565b7f000000000000000000000000000000000000000000000000000000000000000081565b7f000000000000000000000000000000000000000000000000000000000000000081565b801580610c1657506040517fdd62ed3e00000000000000000000000000000000000000000000000000000000815273ffffffffffffffffffffffffffffffffffffffff84169063dd62ed3e90610bc49030908690600401611226565b60206040518083038186803b158015610bdc57600080fd5b505afa158015610bf0573d6000803e3d6000fd5b505050506040513d601f19601f82011682018060405250810190610c1491906111d1565b155b610c4c576040517f08c379a000000000000000000000000000000000000000000000000000000000815260040161082690611489565b610ced8363095ea7b360e01b8484604051602401610c6b92919061124d565b604080517fffffffffffffffffffffffffffffffffffffffffffffffffffffffffffffffe08184030181529190526020810180517bffffffffffffffffffffffffffffffffffffffffffffffffffffffff167fffffffff0000000000000000000000000000000000000000000000000000000090931692909217909152610ea1565b505050565b6060610d018484600085610f57565b90505b9392505050565b6000610dc7670de0b6b3a7640000610dc17f000000000000000000000000000000000000000000000000000000000000000073ffffffffffffffffffffffffffffffffffffffff166377c7b8fc6040518163ffffffff1660e01b815260040160206040518083038186803b158015610d8257600080fd5b505afa158015610d96573d6000803e3d6000fd5b505050506040513d601f19601f82011682018060405250810190610dba91906111d1565b8590611059565b906110ad565b92915050565b6000610dc77f000000000000000000000000000000000000000000000000000000000000000073ffffffffffffffffffffffffffffffffffffffff166377c7b8fc6040518163ffffffff1660e01b815260040160206040518083038186803b158015610e3857600080fd5b505afa158015610e4c573d6000803e3d6000fd5b505050506040513d601f19601f82011682018060405250810190610e7091906111d1565b610dc184670de0b6b3a7640000611059565b610ced8363a9059cbb60e01b8484604051602401610c6b92919061124d565b6060610f03826040518060400160405280602081526020017f5361666545524332303a206c6f772d6c6576656c2063616c6c206661696c65648152508573ffffffffffffffffffffffffffffffffffffffff16610cf29092919063ffffffff16565b805190915015610ced5780806020019051810190610f219190611199565b610ced576040517f08c379a00000000000000000000000000000000000000000000000000000000081526004016108269061142c565b606082471015610f93576040517f08c379a000000000000000000000000000000000000000000000000000000000815260040161082690611304565b610f9c856110f9565b610fd2576040517f08c379a0000000000000000000000000000000000000000000000000000000008152600401610826906113f5565b600060608673ffffffffffffffffffffffffffffffffffffffff168587604051610ffc91906111e9565b60006040518083038185875af1925050503d8060008114611039576040519150601f19603f3d011682016040523d82523d6000602084013e61103e565b606091505b509150915061104e8282866110ff565b979650505050505050565b60008261106857506000610dc7565b8282028284828161107557fe5b0414610d04576040517f08c379a000000000000000000000000000000000000000000000000000000000815260040161082690611398565b60008082116110e8576040517f08c379a000000000000000000000000000000000000000000000000000000000815260040161082690611361565b8183816110f157fe5b049392505050565b3b151590565b6060831561110e575081610d04565b82511561111e5782518084602001fd5b816040517f08c379a0000000000000000000000000000000000000000000000000000000008152600401610826919061127c565b600060208284031215611163578081fd5b8151610d0481611516565b60008060408385031215611180578081fd5b823561118b81611516565b946020939093013593505050565b6000602082840312156111aa578081fd5b81518015158114610d04578182fd5b6000602082840312156111ca578081fd5b5035919050565b6000602082840312156111e2578081fd5b5051919050565b600082516111fb8184602087016114e6565b9190910192915050565b73ffffffffffffffffffffffffffffffffffffffff91909116815260200190565b73ffffffffffffffffffffffffffffffffffffffff92831681529116602082015260400190565b73ffffffffffffffffffffffffffffffffffffffff929092168252602082015260400190565b90815260200190565b600060208252825180602084015261129b8160408501602087016114e6565b601f017fffffffffffffffffffffffffffffffffffffffffffffffffffffffffffffffe0169190910160400192915050565b6020808252601d908201527f59617869735661756c74416461707465723a206f6e6c792061646d696e000000604082015260600190565b60208082526026908201527f416464726573733a20696e73756666696369656e742062616c616e636520666f60408201527f722063616c6c0000000000000000000000000000000000000000000000000000606082015260800190565b6020808252601a908201527f536166654d6174683a206469766973696f6e206279207a65726f000000000000604082015260600190565b60208082526021908201527f536166654d6174683a206d756c7469706c69636174696f6e206f766572666c6f60408201527f7700000000000000000000000000000000000000000000000000000000000000606082015260800190565b6020808252601d908201527f416464726573733a2063616c6c20746f206e6f6e2d636f6e7472616374000000604082015260600190565b6020808252602a908201527f5361666545524332303a204552433230206f7065726174696f6e20646964206e60408201527f6f74207375636365656400000000000000000000000000000000000000000000606082015260800190565b60208082526036908201527f5361666545524332303a20617070726f76652066726f6d206e6f6e2d7a65726f60408201527f20746f206e6f6e2d7a65726f20616c6c6f77616e636500000000000000000000606082015260800190565b60005b838110156115015781810151838201526020016114e9565b83811115611510576000848401525b50505050565b73ffffffffffffffffffffffffffffffffffffffff8116811461153857600080fd5b5056fea2646970667358221220bb4a213cc28347b93a71441be497eaf8d6d1b8dffffdad1c691e5bb3b09f209d64736f6c634300060c0033",
  "devdoc": {
    "details": "A vault adapter implementation which wraps a yAxis vault.",
    "kind": "dev",
    "methods": {
      "claimReward()": {
        "details": "Claim gauge rewards."
      },
      "deposit(uint256)": {
        "details": "Deposits tokens into the vault.",
        "params": {
          "_amount": "the amount of tokens to deposit into the vault."
        }
      },
      "totalValue()": {
        "details": "Gets the total value of the assets that the adapter holds in the vault.",
        "returns": {
          "_0": "the total assets."
        }
      },
      "withdraw(address,uint256)": {
        "details": "Withdraws tokens from the vault to the recipient. This function reverts if the caller is not the admin.",
        "params": {
          "_amount": "the amount of tokens to withdraw.",
          "_recipient": "the account to withdraw the tokes to."
        }
      }
    },
    "stateVariables": {
      "admin": {
        "details": "The address which has admin control over this contract."
      },
      "gauge": {
        "details": "The gauge of the vault that the adapter is wrapping."
      },
      "lpToken": {
        "details": "The token that the vault issued"
      },
      "rewards": {
        "details": "The address which will receive rewards."
      },
      "token": {
        "details": "The token that the vault accepts"
      },
      "vault": {
        "details": "The vault that the adapter is wrapping."
      }
    },
    "title": "YaxisVaultAdapter",
    "version": 1
  },
  "userdoc": {
    "kind": "user",
    "methods": {},
    "version": 1
  },
  "storageLayout": {
    "storage": [],
    "types": null
  }
}